{
  "contractName": "CaleroController",
  "abi": [
    {
      "constant": true,
      "inputs": [
        {
          "name": "",
          "type": "uint256"
        }
      ],
      "name": "owners",
      "outputs": [
        {
          "name": "",
          "type": "address"
        }
      ],
      "payable": false,
      "stateMutability": "view",
      "type": "function"
    },
    {
      "constant": true,
      "inputs": [],
      "name": "allOperationsCount",
      "outputs": [
        {
          "name": "",
          "type": "uint256"
        }
      ],
      "payable": false,
      "stateMutability": "view",
      "type": "function"
    },
    {
      "constant": true,
      "inputs": [],
      "name": "howManyOwnersDecide",
      "outputs": [
        {
          "name": "",
          "type": "uint256"
        }
      ],
      "payable": false,
      "stateMutability": "view",
      "type": "function"
    },
    {
      "constant": true,
      "inputs": [
        {
          "name": "wallet",
          "type": "address"
        }
      ],
      "name": "isOwner",
      "outputs": [
        {
          "name": "",
          "type": "bool"
        }
      ],
      "payable": false,
      "stateMutability": "view",
      "type": "function"
    },
    {
      "constant": true,
      "inputs": [
        {
          "name": "",
          "type": "uint256"
        }
      ],
      "name": "allOperations",
      "outputs": [
        {
          "name": "",
          "type": "bytes32"
        }
      ],
      "payable": false,
      "stateMutability": "view",
      "type": "function"
    },
    {
      "constant": true,
      "inputs": [
        {
          "name": "",
          "type": "bytes32"
        }
      ],
      "name": "votesMaskByOperation",
      "outputs": [
        {
          "name": "",
          "type": "uint256"
        }
      ],
      "payable": false,
      "stateMutability": "view",
      "type": "function"
    },
    {
      "constant": true,
      "inputs": [],
      "name": "ico",
      "outputs": [
        {
          "name": "",
          "type": "address"
        }
      ],
      "payable": false,
      "stateMutability": "view",
      "type": "function"
    },
    {
      "constant": false,
      "inputs": [
        {
          "name": "operation",
          "type": "bytes32"
        }
      ],
      "name": "cancelPending",
      "outputs": [],
      "payable": false,
      "stateMutability": "nonpayable",
      "type": "function"
    },
    {
      "constant": true,
      "inputs": [
        {
          "name": "",
          "type": "bytes32"
        }
      ],
      "name": "votesCountByOperation",
      "outputs": [
        {
          "name": "",
          "type": "uint256"
        }
      ],
      "payable": false,
      "stateMutability": "view",
      "type": "function"
    },
    {
      "constant": true,
      "inputs": [],
      "name": "ownersGeneration",
      "outputs": [
        {
          "name": "",
          "type": "uint256"
        }
      ],
      "payable": false,
      "stateMutability": "view",
      "type": "function"
    },
    {
      "constant": true,
      "inputs": [],
      "name": "ownersCount",
      "outputs": [
        {
          "name": "",
          "type": "uint256"
        }
      ],
      "payable": false,
      "stateMutability": "view",
      "type": "function"
    },
    {
      "constant": true,
      "inputs": [
        {
          "name": "",
          "type": "address"
        }
      ],
      "name": "ownersIndices",
      "outputs": [
        {
          "name": "",
          "type": "uint256"
        }
      ],
      "payable": false,
      "stateMutability": "view",
      "type": "function"
    },
    {
      "constant": false,
      "inputs": [
        {
          "name": "newOwners",
          "type": "address[]"
        },
        {
          "name": "newHowManyOwnersDecide",
          "type": "uint256"
        }
      ],
      "name": "transferOwnershipWithHowMany",
      "outputs": [],
      "payable": false,
      "stateMutability": "nonpayable",
      "type": "function"
    },
    {
      "constant": true,
      "inputs": [
        {
          "name": "",
          "type": "bytes32"
        }
      ],
      "name": "allOperationsIndicies",
      "outputs": [
        {
          "name": "",
          "type": "uint256"
        }
      ],
      "payable": false,
      "stateMutability": "view",
      "type": "function"
    },
    {
      "constant": true,
      "inputs": [],
      "name": "token",
      "outputs": [
        {
          "name": "",
          "type": "address"
        }
      ],
      "payable": false,
      "stateMutability": "view",
      "type": "function"
    },
    {
      "inputs": [],
      "payable": false,
      "stateMutability": "nonpayable",
      "type": "constructor"
    },
    {
      "payable": true,
      "stateMutability": "payable",
      "type": "fallback"
    },
    {
      "anonymous": false,
      "inputs": [
        {
          "indexed": false,
          "name": "previousOwners",
          "type": "address[]"
        },
        {
          "indexed": false,
          "name": "howManyOwnersDecide",
          "type": "uint256"
        },
        {
          "indexed": false,
          "name": "newOwners",
          "type": "address[]"
        },
        {
          "indexed": false,
          "name": "newHowManyOwnersDecide",
          "type": "uint256"
        }
      ],
      "name": "OwnershipTransferred",
      "type": "event"
    },
    {
      "anonymous": false,
      "inputs": [
        {
          "indexed": false,
          "name": "operation",
          "type": "bytes32"
        },
        {
          "indexed": false,
          "name": "howMany",
          "type": "uint256"
        },
        {
          "indexed": false,
          "name": "ownersCount",
          "type": "uint256"
        },
        {
          "indexed": false,
          "name": "proposer",
          "type": "address"
        }
      ],
      "name": "OperationCreated",
      "type": "event"
    },
    {
      "anonymous": false,
      "inputs": [
        {
          "indexed": false,
          "name": "operation",
          "type": "bytes32"
        },
        {
          "indexed": false,
          "name": "votes",
          "type": "uint256"
        },
        {
          "indexed": false,
          "name": "howMany",
          "type": "uint256"
        },
        {
          "indexed": false,
          "name": "ownersCount",
          "type": "uint256"
        },
        {
          "indexed": false,
          "name": "upvoter",
          "type": "address"
        }
      ],
      "name": "OperationUpvoted",
      "type": "event"
    },
    {
      "anonymous": false,
      "inputs": [
        {
          "indexed": false,
          "name": "operation",
          "type": "bytes32"
        },
        {
          "indexed": false,
          "name": "howMany",
          "type": "uint256"
        },
        {
          "indexed": false,
          "name": "ownersCount",
          "type": "uint256"
        },
        {
          "indexed": false,
          "name": "performer",
          "type": "address"
        }
      ],
      "name": "OperationPerformed",
      "type": "event"
    },
    {
      "anonymous": false,
      "inputs": [
        {
          "indexed": false,
          "name": "operation",
          "type": "bytes32"
        },
        {
          "indexed": false,
          "name": "votes",
          "type": "uint256"
        },
        {
          "indexed": false,
          "name": "ownersCount",
          "type": "uint256"
        },
        {
          "indexed": false,
          "name": "downvoter",
          "type": "address"
        }
      ],
      "name": "OperationDownvoted",
      "type": "event"
    },
    {
      "anonymous": false,
      "inputs": [
        {
          "indexed": false,
          "name": "operation",
          "type": "bytes32"
        },
        {
          "indexed": false,
          "name": "lastCanceller",
          "type": "address"
        }
      ],
      "name": "OperationCancelled",
      "type": "event"
    },
    {
      "constant": false,
      "inputs": [],
      "name": "initCrowdsale",
      "outputs": [],
      "payable": false,
      "stateMutability": "nonpayable",
      "type": "function"
    },
    {
      "constant": false,
      "inputs": [
        {
          "name": "_tokens",
          "type": "uint256"
        },
        {
          "name": "_bonus",
          "type": "uint256"
        },
        {
          "name": "_startDate",
          "type": "uint256"
        },
        {
          "name": "_finishDate",
          "type": "uint256"
        }
      ],
      "name": "startPhase",
      "outputs": [],
      "payable": false,
      "stateMutability": "nonpayable",
      "type": "function"
    },
    {
      "constant": false,
      "inputs": [
        {
          "name": "_contributor",
          "type": "address"
        },
        {
          "name": "_amount",
          "type": "uint256"
        }
      ],
      "name": "transferEther",
      "outputs": [],
      "payable": false,
      "stateMutability": "nonpayable",
      "type": "function"
    },
    {
      "constant": false,
      "inputs": [
        {
          "name": "_contributor",
          "type": "address"
        },
        {
          "name": "_amount",
          "type": "uint256"
        }
      ],
      "name": "transferTokensToNonETHBuyers",
      "outputs": [],
      "payable": false,
      "stateMutability": "nonpayable",
      "type": "function"
    },
    {
      "constant": false,
      "inputs": [
        {
          "name": "_token",
          "type": "address"
        },
        {
          "name": "_contributor",
          "type": "address"
        },
        {
          "name": "_amount",
          "type": "uint256"
        }
      ],
      "name": "transferERC20",
      "outputs": [],
      "payable": false,
      "stateMutability": "nonpayable",
      "type": "function"
    },
    {
      "constant": false,
      "inputs": [
        {
          "name": "dests",
          "type": "address[]"
        },
        {
          "name": "amounts",
          "type": "uint256[]"
        }
      ],
      "name": "airdrop",
      "outputs": [],
      "payable": false,
      "stateMutability": "nonpayable",
      "type": "function"
    },
    {
      "constant": false,
      "inputs": [
        {
          "name": "_target",
          "type": "address"
        }
      ],
      "name": "freezeAccount",
      "outputs": [],
      "payable": false,
      "stateMutability": "nonpayable",
      "type": "function"
    },
    {
      "constant": false,
      "inputs": [
        {
          "name": "_target",
          "type": "address"
        }
      ],
      "name": "unFreezeAccount",
      "outputs": [],
      "payable": false,
      "stateMutability": "nonpayable",
      "type": "function"
    },
    {
      "constant": false,
      "inputs": [],
      "name": "pause",
      "outputs": [],
      "payable": false,
      "stateMutability": "nonpayable",
      "type": "function"
    },
    {
      "constant": false,
      "inputs": [],
      "name": "resume",
      "outputs": [],
      "payable": false,
      "stateMutability": "nonpayable",
      "type": "function"
    },
    {
      "constant": false,
      "inputs": [],
      "name": "killICOContract",
      "outputs": [],
      "payable": false,
      "stateMutability": "nonpayable",
      "type": "function"
    }
  ],
  "bytecode": "0x60806040523480156200001157600080fd5b50600060023390806001815401808255809150509060018203906000526020600020016000909192909190916101000a81548173ffffffffffffffffffffffffffffffffffffffff021916908373ffffffffffffffffffffffffffffffffffffffff160217905550506001600660003373ffffffffffffffffffffffffffffffffffffffff1673ffffffffffffffffffffffffffffffffffffffff168152602001908152602001600020819055506001808190555073__TokenDeployer_________________________63ca9e3d4f6040518163ffffffff167c010000000000000000000000000000000000000000000000000000000002815260040160206040518083038186803b1580156200012757600080fd5b505af41580156200013c573d6000803e3d6000fd5b505050506040513d60208110156200015357600080fd5b8101908080519060200190929190505050905080600a60006101000a81548173ffffffffffffffffffffffffffffffffffffffff021916908373ffffffffffffffffffffffffffffffffffffffff160217905550506135d780620001b86000396000f300608060405260043610610154576000357c0100000000000000000000000000000000000000000000000000000000900463ffffffff168063025e7c2714610156578063046f7da2146101c357806305b1137b146101da5780630e51d3bf1461022757806322f2f89a1461023e5780632f4a81df146102695780632f54bf6e14610294578063301a9b09146102ef578063431ab2331461033a578063483a86d21461038357806353cc2fae1461039a578063568b5915146103dd5780635d45220114610422578063672434821461047957806377216e36146104cc5780638456cb5914610519578063893372ca1461053057806390a53085146105615780639db5dbe4146105a6578063b25bb3a714610613578063b94885461461063e578063cc047a0414610669578063e8518341146106c0578063ea1a264414610730578063f26c159f14610775578063fc0c546a146107b8575b005b34801561016257600080fd5b506101816004803603810190808035906020019092919050505061080f565b604051808273ffffffffffffffffffffffffffffffffffffffff1673ffffffffffffffffffffffffffffffffffffffff16815260200191505060405180910390f35b3480156101cf57600080fd5b506101d861084d565b005b3480156101e657600080fd5b50610225600480360381019080803573ffffffffffffffffffffffffffffffffffffffff169060200190929190803590602001909291905050506109f5565b005b34801561023357600080fd5b5061023c610b96565b005b34801561024a57600080fd5b50610253610fd3565b6040518082815260200191505060405180910390f35b34801561027557600080fd5b5061027e610fe0565b6040518082815260200191505060405180910390f35b3480156102a057600080fd5b506102d5600480360381019080803573ffffffffffffffffffffffffffffffffffffffff169060200190929190505050610fe6565b604051808215151515815260200191505060405180910390f35b3480156102fb57600080fd5b5061033860048036038101908080359060200190929190803590602001909291908035906020019092919080359060200190929190505050611031565b005b34801561034657600080fd5b5061036560048036038101908080359060200190929190505050611202565b60405180826000191660001916815260200191505060405180910390f35b34801561038f57600080fd5b50610398611225565b005b3480156103a657600080fd5b506103db600480360381019080803573ffffffffffffffffffffffffffffffffffffffff1690602001909291905050506113cf565b005b3480156103e957600080fd5b5061040c600480360381019080803560001916906020019092919050505061167a565b6040518082815260200191505060405180910390f35b34801561042e57600080fd5b50610437611692565b604051808273ffffffffffffffffffffffffffffffffffffffff1673ffffffffffffffffffffffffffffffffffffffff16815260200191505060405180910390f35b34801561048557600080fd5b506104ca6004803603810190808035906020019082018035906020019190919293919293908035906020019082018035906020019190919293919293905050506116b8565b005b3480156104d857600080fd5b50610517600480360381019080803573ffffffffffffffffffffffffffffffffffffffff16906020019092919080359060200190929190505050611960565b005b34801561052557600080fd5b5061052e611b55565b005b34801561053c57600080fd5b5061055f6004803603810190808035600019169060200190929190505050611cfd565b005b34801561056d57600080fd5b50610590600480360381019080803560001916906020019092919050505061208d565b6040518082815260200191505060405180910390f35b3480156105b257600080fd5b50610611600480360381019080803573ffffffffffffffffffffffffffffffffffffffff169060200190929190803573ffffffffffffffffffffffffffffffffffffffff169060200190929190803590602001909291905050506120a5565b005b34801561061f57600080fd5b506106286122c5565b6040518082815260200191505060405180910390f35b34801561064a57600080fd5b506106536122cb565b6040518082815260200191505060405180910390f35b34801561067557600080fd5b506106aa600480360381019080803573ffffffffffffffffffffffffffffffffffffffff1690602001909291905050506122d8565b6040518082815260200191505060405180910390f35b3480156106cc57600080fd5b5061072e60048036038101908080359060200190820180359060200190808060200260200160405190810160405280939291908181526020018383602002808284378201915050505050509192919290803590602001909291905050506122f0565b005b34801561073c57600080fd5b5061075f6004803603810190808035600019169060200190929190505050612ad6565b6040518082815260200191505060405180910390f35b34801561078157600080fd5b506107b6600480360381019080803573ffffffffffffffffffffffffffffffffffffffff169060200190929190505050612aee565b005b3480156107c457600080fd5b506107cd612d99565b604051808273ffffffffffffffffffffffffffffffffffffffff1673ffffffffffffffffffffffffffffffffffffffff16815260200191505060405180910390f35b60028181548110151561081e57fe5b906000526020600020016000915054906101000a900473ffffffffffffffffffffffffffffffffffffffff1681565b60006108596001612dbf565b156109f257600073ffffffffffffffffffffffffffffffffffffffff16600460009054906101000a900473ffffffffffffffffffffffffffffffffffffffff1673ffffffffffffffffffffffffffffffffffffffff1614905080156109025733600460006101000a81548173ffffffffffffffffffffffffffffffffffffffff021916908373ffffffffffffffffffffffffffffffffffffffff16021790555060016005819055505b600a60009054906101000a900473ffffffffffffffffffffffffffffffffffffffff1673ffffffffffffffffffffffffffffffffffffffff16633f4ba83a6040518163ffffffff167c0100000000000000000000000000000000000000000000000000000000028152600401600060405180830381600087803b15801561098857600080fd5b505af115801561099c573d6000803e3d6000fd5b5050505080156109f1576000600460006101000a81548173ffffffffffffffffffffffffffffffffffffffff021916908373ffffffffffffffffffffffffffffffffffffffff16021790555060006005819055505b5b50565b6000610a02600154612dbf565b15610b9157600073ffffffffffffffffffffffffffffffffffffffff16600460009054906101000a900473ffffffffffffffffffffffffffffffffffffffff1673ffffffffffffffffffffffffffffffffffffffff161490508015610aac5733600460006101000a81548173ffffffffffffffffffffffffffffffffffffffff021916908373ffffffffffffffffffffffffffffffffffffffff1602179055506001546005819055505b600073ffffffffffffffffffffffffffffffffffffffff168373ffffffffffffffffffffffffffffffffffffffff1614151515610ae857600080fd5b60008210151515610af857600080fd5b8273ffffffffffffffffffffffffffffffffffffffff166108fc839081150290604051600060405180830381858888f19350505050158015610b3e573d6000803e3d6000fd5b508015610b90576000600460006101000a81548173ffffffffffffffffffffffffffffffffffffffff021916908373ffffffffffffffffffffffffffffffffffffffff16021790555060006005819055505b5b505050565b600080610ba4600154612dbf565b15610fcf57600073ffffffffffffffffffffffffffffffffffffffff16600460009054906101000a900473ffffffffffffffffffffffffffffffffffffffff1673ffffffffffffffffffffffffffffffffffffffff161490508015610c4e5733600460006101000a81548173ffffffffffffffffffffffffffffffffffffffff021916908373ffffffffffffffffffffffffffffffffffffffff1602179055506001546005819055505b73__CrowdsaleDeployer_____________________6328f31b88600a60009054906101000a900473ffffffffffffffffffffffffffffffffffffffff166040518263ffffffff167c0100000000000000000000000000000000000000000000000000000000028152600401808273ffffffffffffffffffffffffffffffffffffffff1673ffffffffffffffffffffffffffffffffffffffff16815260200191505060206040518083038186803b158015610d0757600080fd5b505af4158015610d1b573d6000803e3d6000fd5b505050506040513d6020811015610d3157600080fd5b8101908080519060200190929190505050915081600b60006101000a81548173ffffffffffffffffffffffffffffffffffffffff021916908373ffffffffffffffffffffffffffffffffffffffff160217905550600a60009054906101000a900473ffffffffffffffffffffffffffffffffffffffff1673ffffffffffffffffffffffffffffffffffffffff1663a9059cbb83600a60009054906101000a900473ffffffffffffffffffffffffffffffffffffffff1673ffffffffffffffffffffffffffffffffffffffff166370a08231306040518263ffffffff167c0100000000000000000000000000000000000000000000000000000000028152600401808273ffffffffffffffffffffffffffffffffffffffff1673ffffffffffffffffffffffffffffffffffffffff168152602001915050602060405180830381600087803b158015610e8157600080fd5b505af1158015610e95573d6000803e3d6000fd5b505050506040513d6020811015610eab57600080fd5b81019080805190602001909291905050506040518363ffffffff167c0100000000000000000000000000000000000000000000000000000000028152600401808373ffffffffffffffffffffffffffffffffffffffff1673ffffffffffffffffffffffffffffffffffffffff16815260200182815260200192505050602060405180830381600087803b158015610f4157600080fd5b505af1158015610f55573d6000803e3d6000fd5b505050506040513d6020811015610f6b57600080fd5b8101908080519060200190929190505050508015610fce576000600460006101000a81548173ffffffffffffffffffffffffffffffffffffffff021916908373ffffffffffffffffffffffffffffffffffffffff16021790555060006005819055505b5b5050565b6000600380549050905090565b60015481565b600080600660008473ffffffffffffffffffffffffffffffffffffffff1673ffffffffffffffffffffffffffffffffffffffff16815260200190815260200160002054119050919050565b600061103e600154612dbf565b156111fb57600073ffffffffffffffffffffffffffffffffffffffff16600460009054906101000a900473ffffffffffffffffffffffffffffffffffffffff1673ffffffffffffffffffffffffffffffffffffffff1614905080156110e85733600460006101000a81548173ffffffffffffffffffffffffffffffffffffffff021916908373ffffffffffffffffffffffffffffffffffffffff1602179055506001546005819055505b600b60009054906101000a900473ffffffffffffffffffffffffffffffffffffffff1673ffffffffffffffffffffffffffffffffffffffff1663301a9b09868686866040518563ffffffff167c010000000000000000000000000000000000000000000000000000000002815260040180858152602001848152602001838152602001828152602001945050505050600060405180830381600087803b15801561119157600080fd5b505af11580156111a5573d6000803e3d6000fd5b5050505080156111fa576000600460006101000a81548173ffffffffffffffffffffffffffffffffffffffff021916908373ffffffffffffffffffffffffffffffffffffffff16021790555060006005819055505b5b5050505050565b60038181548110151561121157fe5b906000526020600020016000915090505481565b6000611232600154612dbf565b156113cc57600073ffffffffffffffffffffffffffffffffffffffff16600460009054906101000a900473ffffffffffffffffffffffffffffffffffffffff1673ffffffffffffffffffffffffffffffffffffffff1614905080156112dc5733600460006101000a81548173ffffffffffffffffffffffffffffffffffffffff021916908373ffffffffffffffffffffffffffffffffffffffff1602179055506001546005819055505b600b60009054906101000a900473ffffffffffffffffffffffffffffffffffffffff1673ffffffffffffffffffffffffffffffffffffffff16631c02708d6040518163ffffffff167c0100000000000000000000000000000000000000000000000000000000028152600401600060405180830381600087803b15801561136257600080fd5b505af1158015611376573d6000803e3d6000fd5b5050505080156113cb576000600460006101000a81548173ffffffffffffffffffffffffffffffffffffffff021916908373ffffffffffffffffffffffffffffffffffffffff16021790555060006005819055505b5b50565b60006113db6001612dbf565b1561167657600073ffffffffffffffffffffffffffffffffffffffff16600460009054906101000a900473ffffffffffffffffffffffffffffffffffffffff1673ffffffffffffffffffffffffffffffffffffffff1614905080156114845733600460006101000a81548173ffffffffffffffffffffffffffffffffffffffff021916908373ffffffffffffffffffffffffffffffffffffffff16021790555060016005819055505b600073ffffffffffffffffffffffffffffffffffffffff168273ffffffffffffffffffffffffffffffffffffffff161415151561154f576040517f08c379a00000000000000000000000000000000000000000000000000000000081526004018080602001828103825260328152602001807f756e467265657a654163636f756e743a2074686520746172676574206164647281526020017f657373206973206e6f7420636f7272656374000000000000000000000000000081525060400191505060405180910390fd5b600a60009054906101000a900473ffffffffffffffffffffffffffffffffffffffff1673ffffffffffffffffffffffffffffffffffffffff166353cc2fae836040518263ffffffff167c0100000000000000000000000000000000000000000000000000000000028152600401808273ffffffffffffffffffffffffffffffffffffffff1673ffffffffffffffffffffffffffffffffffffffff168152602001915050600060405180830381600087803b15801561160c57600080fd5b505af1158015611620573d6000803e3d6000fd5b505050508015611675576000600460006101000a81548173ffffffffffffffffffffffffffffffffffffffff021916908373ffffffffffffffffffffffffffffffffffffffff16021790555060006005819055505b5b5050565b60086020528060005260406000206000915090505481565b600b60009054906101000a900473ffffffffffffffffffffffffffffffffffffffff1681565b6000806116c6600154612dbf565b1561195857600073ffffffffffffffffffffffffffffffffffffffff16600460009054906101000a900473ffffffffffffffffffffffffffffffffffffffff1673ffffffffffffffffffffffffffffffffffffffff1614905080156117705733600460006101000a81548173ffffffffffffffffffffffffffffffffffffffff021916908373ffffffffffffffffffffffffffffffffffffffff1602179055506001546005819055505b6000868690501415151561178357600080fd5b6000848490501415151561179657600080fd5b83839050868690501415156117aa57600080fd5b600091505b8585905082101561190657600a60009054906101000a900473ffffffffffffffffffffffffffffffffffffffff1673ffffffffffffffffffffffffffffffffffffffff1663a9059cbb878785818110151561180657fe5b9050602002013573ffffffffffffffffffffffffffffffffffffffff16868686818110151561183157fe5b905060200201356040518363ffffffff167c0100000000000000000000000000000000000000000000000000000000028152600401808373ffffffffffffffffffffffffffffffffffffffff1673ffffffffffffffffffffffffffffffffffffffff16815260200182815260200192505050602060405180830381600087803b1580156118bd57600080fd5b505af11580156118d1573d6000803e3d6000fd5b505050506040513d60208110156118e757600080fd5b81019080805190602001909291905050505081806001019250506117af565b8015611957576000600460006101000a81548173ffffffffffffffffffffffffffffffffffffffff021916908373ffffffffffffffffffffffffffffffffffffffff16021790555060006005819055505b5b505050505050565b600061196d600154612dbf565b15611b5057600073ffffffffffffffffffffffffffffffffffffffff16600460009054906101000a900473ffffffffffffffffffffffffffffffffffffffff1673ffffffffffffffffffffffffffffffffffffffff161490508015611a175733600460006101000a81548173ffffffffffffffffffffffffffffffffffffffff021916908373ffffffffffffffffffffffffffffffffffffffff1602179055506001546005819055505b600b60009054906101000a900473ffffffffffffffffffffffffffffffffffffffff1673ffffffffffffffffffffffffffffffffffffffff166377216e3684670de0b6b3a764000085026040518363ffffffff167c0100000000000000000000000000000000000000000000000000000000028152600401808373ffffffffffffffffffffffffffffffffffffffff1673ffffffffffffffffffffffffffffffffffffffff16815260200182815260200192505050600060405180830381600087803b158015611ae657600080fd5b505af1158015611afa573d6000803e3d6000fd5b505050508015611b4f576000600460006101000a81548173ffffffffffffffffffffffffffffffffffffffff021916908373ffffffffffffffffffffffffffffffffffffffff16021790555060006005819055505b5b505050565b6000611b616001612dbf565b15611cfa57600073ffffffffffffffffffffffffffffffffffffffff16600460009054906101000a900473ffffffffffffffffffffffffffffffffffffffff1673ffffffffffffffffffffffffffffffffffffffff161490508015611c0a5733600460006101000a81548173ffffffffffffffffffffffffffffffffffffffff021916908373ffffffffffffffffffffffffffffffffffffffff16021790555060016005819055505b600a60009054906101000a900473ffffffffffffffffffffffffffffffffffffffff1673ffffffffffffffffffffffffffffffffffffffff16638456cb596040518163ffffffff167c0100000000000000000000000000000000000000000000000000000000028152600401600060405180830381600087803b158015611c9057600080fd5b505af1158015611ca4573d6000803e3d6000fd5b505050508015611cf9576000600460006101000a81548173ffffffffffffffffffffffffffffffffffffffff021916908373ffffffffffffffffffffffffffffffffffffffff16021790555060006005819055505b5b50565b6000806000611d0c6001612dbf565b1561208757600073ffffffffffffffffffffffffffffffffffffffff16600460009054906101000a900473ffffffffffffffffffffffffffffffffffffffff1673ffffffffffffffffffffffffffffffffffffffff161490508015611db55733600460006101000a81548173ffffffffffffffffffffffffffffffffffffffff021916908373ffffffffffffffffffffffffffffffffffffffff16021790555060016005819055505b6001600660003373ffffffffffffffffffffffffffffffffffffffff1673ffffffffffffffffffffffffffffffffffffffff1681526020019081526020016000205403925060008360020a600860008760001916600019168152602001908152602001600020541614151515611eb9576040517f08c379a00000000000000000000000000000000000000000000000000000000081526004018080602001828103825260308152602001807f63616e63656c50656e64696e673a206f7065726174696f6e206e6f7420666f7581526020017f6e6420666f72207468697320757365720000000000000000000000000000000081525060400191505060405180910390fd5b8260020a196008600086600019166000191681526020019081526020016000206000828254169250508190555060016009600086600019166000191681526020019081526020016000205403915081600960008660001916600019168152602001908152602001600020819055507f3e0a7036018b5a2a3c5d0afa14e51998ef3cf98c38e4289a8897222b3acf75a78483600280549050336040518085600019166000191681526020018481526020018381526020018273ffffffffffffffffffffffffffffffffffffffff1673ffffffffffffffffffffffffffffffffffffffff16815260200194505050505060405180910390a1600082141561203557611fc184613369565b7f55e0dd61c29aac6fc36807628300ad3e3ec68655ae76ae4002f7fb101496fa9f84336040518083600019166000191681526020018273ffffffffffffffffffffffffffffffffffffffff1673ffffffffffffffffffffffffffffffffffffffff1681526020019250505060405180910390a15b8015612086576000600460006101000a81548173ffffffffffffffffffffffffffffffffffffffff021916908373ffffffffffffffffffffffffffffffffffffffff16021790555060006005819055505b5b50505050565b60096020528060005260406000206000915090505481565b60006120b2600154612dbf565b156122bf57600073ffffffffffffffffffffffffffffffffffffffff16600460009054906101000a900473ffffffffffffffffffffffffffffffffffffffff1673ffffffffffffffffffffffffffffffffffffffff16149050801561215c5733600460006101000a81548173ffffffffffffffffffffffffffffffffffffffff021916908373ffffffffffffffffffffffffffffffffffffffff1602179055506001546005819055505b600b60009054906101000a900473ffffffffffffffffffffffffffffffffffffffff1673ffffffffffffffffffffffffffffffffffffffff16639db5dbe48585856040518463ffffffff167c0100000000000000000000000000000000000000000000000000000000028152600401808473ffffffffffffffffffffffffffffffffffffffff1673ffffffffffffffffffffffffffffffffffffffff1681526020018373ffffffffffffffffffffffffffffffffffffffff1673ffffffffffffffffffffffffffffffffffffffff1681526020018281526020019350505050600060405180830381600087803b15801561225557600080fd5b505af1158015612269573d6000803e3d6000fd5b5050505080156122be576000600460006101000a81548173ffffffffffffffffffffffffffffffffffffffff021916908373ffffffffffffffffffffffffffffffffffffffff16021790555060006005819055505b5b50505050565b60005481565b6000600280549050905090565b60066020528060005260406000206000915090505481565b6000806000612300600154612dbf565b15612acf57600073ffffffffffffffffffffffffffffffffffffffff16600460009054906101000a900473ffffffffffffffffffffffffffffffffffffffff1673ffffffffffffffffffffffffffffffffffffffff1614905080156123aa5733600460006101000a81548173ffffffffffffffffffffffffffffffffffffffff021916908373ffffffffffffffffffffffffffffffffffffffff1602179055506001546005819055505b60008551111515612449576040517f08c379a00000000000000000000000000000000000000000000000000000000081526004018080602001828103825260338152602001807f7472616e736665724f776e65727368697057697468486f774d616e793a206f7781526020017f6e65727320617272617920697320656d7074790000000000000000000000000081525060400191505060405180910390fd5b6101008551111515156124ea576040517f08c379a000000000000000000000000000000000000000000000000000000000815260040180806020018281038252603e8152602001807f7472616e736665724f776e65727368697057697468486f774d616e793a206f7781526020017f6e65727320636f756e742069732067726561746572207468656e20323536000081525060400191505060405180910390fd5b600084111515612588576040517f08c379a000000000000000000000000000000000000000000000000000000000815260040180806020018281038252603f8152602001807f7472616e736665724f776e65727368697057697468486f774d616e793a206e6581526020017f77486f774d616e794f776e65727344656369646520657175616c20746f20300081525060400191505060405180910390fd5b8451841115151561264d576040517f08c379a00000000000000000000000000000000000000000000000000000000081526004018080602001828103825260518152602001807f7472616e736665724f776e65727368697057697468486f774d616e793a206e6581526020017f77486f774d616e794f776e65727344656369646520657863656564732074686581526020017f206e756d626572206f66206f776e65727300000000000000000000000000000081525060600191505060405180910390fd5b600092505b6002805490508310156126e8576006600060028581548110151561267257fe5b9060005260206000200160009054906101000a900473ffffffffffffffffffffffffffffffffffffffff1673ffffffffffffffffffffffffffffffffffffffff1673ffffffffffffffffffffffffffffffffffffffff168152602001908152602001600020600090558280600101935050612652565b600091505b845182101561293757600073ffffffffffffffffffffffffffffffffffffffff16858381518110151561271c57fe5b9060200190602002015173ffffffffffffffffffffffffffffffffffffffff16141515156127d8576040517f08c379a00000000000000000000000000000000000000000000000000000000081526004018080602001828103825260388152602001807f7472616e736665724f776e65727368697057697468486f774d616e793a206f7781526020017f6e65727320617272617920636f6e7461696e73207a65726f000000000000000081525060400191505060405180910390fd5b60006006600087858151811015156127ec57fe5b9060200190602002015173ffffffffffffffffffffffffffffffffffffffff1673ffffffffffffffffffffffffffffffffffffffff168152602001908152602001600020541415156128cc576040517f08c379a000000000000000000000000000000000000000000000000000000000815260040180806020018281038252603e8152602001807f7472616e736665724f776e65727368697057697468486f774d616e793a206f7781526020017f6e65727320617272617920636f6e7461696e73206475706c696361746573000081525060400191505060405180910390fd5b600182016006600087858151811015156128e257fe5b9060200190602002015173ffffffffffffffffffffffffffffffffffffffff1673ffffffffffffffffffffffffffffffffffffffff1681526020019081526020016000208190555081806001019250506126ed565b7fd167b96814cd24898418cc293e8d47d54afe6dcf0631283f0830e1eae621f6bd6002600154878760405180806020018581526020018060200184815260200183810383528781815481526020019150805480156129ea57602002820191906000526020600020905b8160009054906101000a900473ffffffffffffffffffffffffffffffffffffffff1673ffffffffffffffffffffffffffffffffffffffff16815260200190600101908083116129a0575b5050838103825285818151815260200191508051906020019060200280838360005b83811015612a27578082015181840152602081019050612a0c565b50505050905001965050505050505060405180910390a18460029080519060200190612a5492919061348d565b50836001819055506000600381612a6b9190613517565b5060008081548092919060010191905055508015612ace576000600460006101000a81548173ffffffffffffffffffffffffffffffffffffffff021916908373ffffffffffffffffffffffffffffffffffffffff16021790555060006005819055505b5b5050505050565b60076020528060005260406000206000915090505481565b6000612afa6001612dbf565b15612d9557600073ffffffffffffffffffffffffffffffffffffffff16600460009054906101000a900473ffffffffffffffffffffffffffffffffffffffff1673ffffffffffffffffffffffffffffffffffffffff161490508015612ba35733600460006101000a81548173ffffffffffffffffffffffffffffffffffffffff021916908373ffffffffffffffffffffffffffffffffffffffff16021790555060016005819055505b600073ffffffffffffffffffffffffffffffffffffffff168273ffffffffffffffffffffffffffffffffffffffff1614151515612c6e576040517f08c379a00000000000000000000000000000000000000000000000000000000081526004018080602001828103825260308152602001807f667265657a654163636f756e743a20746865207461726765742061646472657381526020017f73206973206e6f7420636f72726563740000000000000000000000000000000081525060400191505060405180910390fd5b600a60009054906101000a900473ffffffffffffffffffffffffffffffffffffffff1673ffffffffffffffffffffffffffffffffffffffff1663f26c159f836040518263ffffffff167c0100000000000000000000000000000000000000000000000000000000028152600401808273ffffffffffffffffffffffffffffffffffffffff1673ffffffffffffffffffffffffffffffffffffffff168152602001915050600060405180830381600087803b158015612d2b57600080fd5b505af1158015612d3f573d6000803e3d6000fd5b505050508015612d94576000600460006101000a81548173ffffffffffffffffffffffffffffffffffffffff021916908373ffffffffffffffffffffffffffffffffffffffff16021790555060006005819055505b5b5050565b600a60009054906101000a900473ffffffffffffffffffffffffffffffffffffffff1681565b6000806000803373ffffffffffffffffffffffffffffffffffffffff16600460009054906101000a900473ffffffffffffffffffffffffffffffffffffffff1673ffffffffffffffffffffffffffffffffffffffff161415612eea576005548511151515612ee1576040517f08c379a00000000000000000000000000000000000000000000000000000000081526004018080602001828103825260448152602001807f636865636b486f774d616e794f776e6572733a206e6573746564206f776e657281526020017f73206d6f64696669657220636865636b2072657175697265206d6f7265206f7781526020017f6e6572730000000000000000000000000000000000000000000000000000000081525060600191505060405180910390fd5b60019350613361565b6001600660003373ffffffffffffffffffffffffffffffffffffffff1673ffffffffffffffffffffffffffffffffffffffff1681526020019081526020016000205403925060028054905083101515612fd1576040517f08c379a000000000000000000000000000000000000000000000000000000000815260040180806020018281038252602e8152602001807f636865636b486f774d616e794f776e6572733a206d73672e73656e646572206981526020017f73206e6f7420616e206f776e657200000000000000000000000000000000000081525060400191505060405180910390fd5b60003660005460405180848480828437820191505082815260200193505050506040518091039020915060008360020a60086000856000191660001916815260200190815260200160002054161415156130b9576040517f08c379a00000000000000000000000000000000000000000000000000000000081526004018080602001828103825260398152602001807f636865636b486f774d616e794f776e6572733a206f776e657220616c7265616481526020017f7920766f74656420666f7220746865206f7065726174696f6e0000000000000081525060400191505060405180910390fd5b8260020a600860008460001916600019168152602001908152602001600020600082825417925050819055506001600960008460001916600019168152602001908152602001600020540190508060096000846000191660001916815260200190815260200160002081905550600181141561320f576003805490506007600084600019166000191681526020019081526020016000208190555060038290806001815401808255809150509060018203906000526020600020016000909192909190915090600019169055507f6bab0114f9524353d2d33e64edd3ebbd16e21edd57de2226ba76c310a7ce22658286600280549050336040518085600019166000191681526020018481526020018381526020018273ffffffffffffffffffffffffffffffffffffffff1673ffffffffffffffffffffffffffffffffffffffff16815260200194505050505060405180910390a15b7f8dd9582c6577aea81973b5adeb6c135f6e18565d99578b7ba0c9377437ec0221828287600280549050336040518086600019166000191681526020018581526020018481526020018381526020018273ffffffffffffffffffffffffffffffffffffffff1673ffffffffffffffffffffffffffffffffffffffff1681526020019550505050505060405180910390a18460096000846000191660001916815260200190815260200160002054141561335c576132cb82613369565b7f8a11c8ca99994c292318ce367f65bf6ff61d390bc814b3588496f6fbcc32807a8286600280549050336040518085600019166000191681526020018481526020018381526020018273ffffffffffffffffffffffffffffffffffffffff1673ffffffffffffffffffffffffffffffffffffffff16815260200194505050505060405180910390a160019350613361565b600093505b505050919050565b60006007600083600019166000191681526020019081526020016000205490506001600380549050038110156134165760036001600380549050038154811015156133b057fe5b90600052602060002001546003828154811015156133ca57fe5b90600052602060002001816000191690555080600760006003848154811015156133f057fe5b906000526020600020015460001916600019168152602001908152602001600020819055505b600380548091906001900361342b9190613517565b506008600083600019166000191681526020019081526020016000206000905560096000836000191660001916815260200190815260200160002060009055600760008360001916600019168152602001908152602001600020600090555050565b828054828255906000526020600020908101928215613506579160200282015b828111156135055782518260006101000a81548173ffffffffffffffffffffffffffffffffffffffff021916908373ffffffffffffffffffffffffffffffffffffffff160217905550916020019190600101906134ad565b5b5090506135139190613543565b5090565b81548183558181111561353e5781836000526020600020918201910161353d9190613586565b5b505050565b61358391905b8082111561357f57600081816101000a81549073ffffffffffffffffffffffffffffffffffffffff021916905550600101613549565b5090565b90565b6135a891905b808211156135a457600081600090555060010161358c565b5090565b905600a165627a7a7230582040ecdc9324784254c28c905fa72b4f65f2e9625e317a3e3e9eae3469e6d2e5030029",
  "source": "pragma solidity ^0.4.24;\n\nimport './Multiownable.sol';\nimport './interfaces/TokenInterface.sol';\nimport './interfaces/CrowdsaleInterface.sol';\nimport './deployers/TokenDeployer.sol';\nimport './deployers/CrowdsaleDeployer.sol';\n\n/**\n * @title CaleroController\n */\ncontract CaleroController is Multiownable {\n    TokenInterface public token;\n    CrowdsaleInterface public ico;\n\n    /**\n     * @dev Constructor\n     */\n    constructor() public {\n        address _token = TokenDeployer.deployTokenContract();\n        token = TokenInterface(_token);\n    }\n\n    function() external payable {\n        // ETH claimed\n    }\n\n    function initCrowdsale() external onlyManyOwners {\n        address _ico = CrowdsaleDeployer.deployCrowdsaleContract(address(token));\n        ico = CrowdsaleInterface(_ico);\n\n        token.transfer(_ico, token.balanceOf(this));  // Transfer all crowdsale tokens from controller to crowdsale contract\n    }\n\n    function startPhase(uint256 _tokens, uint256 _bonus, uint256 _startDate, uint256 _finishDate) external onlyManyOwners {\n        ico.startPhase(_tokens, _bonus, _startDate, _finishDate);\n    }\n\n    function transferEther(address _contributor, uint256 _amount) external onlyManyOwners {\n        require(_contributor != address(0));\n        require(_amount >= 0);\n\n        _contributor.transfer(_amount);\n    }\n\n    function transferTokensToNonETHBuyers(address _contributor, uint256 _amount) external onlyManyOwners {\n        ico.transferTokensToNonETHBuyers(_contributor, _amount * 1 ether);\n    }\n\n    function transferERC20(address _token, address _contributor, uint256 _amount) external onlyManyOwners {\n        ico.transferERC20(_token, _contributor, _amount);\n    }\n\n    function airdrop(address[] dests, uint256[] amounts) external onlyManyOwners {\n        require(dests.length != 0);\n        require(amounts.length != 0);\n        require(dests.length == amounts.length);\n\n        for (uint i = 0; i < dests.length; i++) {\n            token.transfer(dests[i], amounts[i]);\n        }\n    }\n\n    function freezeAccount(address _target) external onlyAnyOwner {\n        require(_target != address(0), \"freezeAccount: the target address is not correct\");\n\n        token.freezeAccount(_target);\n    }\n\n    function unFreezeAccount(address _target) external onlyAnyOwner {\n        require(_target != address(0), \"unFreezeAccount: the target address is not correct\");\n\n        token.unFreezeAccount(_target);\n    }\n\n    function pause() external onlyAnyOwner {\n        token.pause();\n    }\n\n    function resume() external onlyAnyOwner {\n        token.unpause();\n    }\n\n    function killICOContract() external onlyManyOwners {\n        ico.killContract();\n    }\n}",
  "sourcePath": "/Users/arikdonovan/Desktop/TokenSmartContract/contracts/CaleroController.sol",
  "compiler": {
    "name": "solc",
    "version": "0.4.24+commit.e67f0147.Emscripten.clang"
  },
  "schemaVersion": "2.0.0",
  "updatedAt": "2018-07-30T23:48:12.382Z"
}