{
  "contractName": "CaleroICO",
  "abi": [
    {
      "constant": true,
      "inputs": [],
      "name": "refundIsAvailable",
      "outputs": [
        {
          "name": "",
          "type": "bool"
        }
      ],
      "payable": false,
      "stateMutability": "view",
      "type": "function"
    },
    {
      "constant": true,
      "inputs": [
        {
          "name": "",
          "type": "address"
        }
      ],
      "name": "contributors",
      "outputs": [
        {
          "name": "eth",
          "type": "uint256"
        },
        {
          "name": "whitelisted",
          "type": "bool"
        },
        {
          "name": "ethHistory",
          "type": "uint256"
        },
        {
          "name": "tokensPurchasedDuringICO",
          "type": "uint256"
        },
        {
          "name": "bonusGetDuringPrivateSale",
          "type": "uint256"
        }
      ],
      "payable": false,
      "stateMutability": "view",
      "type": "function"
    },
    {
      "constant": true,
      "inputs": [],
      "name": "ICO",
      "outputs": [
        {
          "name": "tokens",
          "type": "uint256"
        },
        {
          "name": "startDate",
          "type": "uint256"
        },
        {
          "name": "endDate",
          "type": "uint256"
        },
        {
          "name": "bonus",
          "type": "uint256"
        }
      ],
      "payable": false,
      "stateMutability": "view",
      "type": "function"
    },
    {
      "constant": true,
      "inputs": [],
      "name": "tokensSold",
      "outputs": [
        {
          "name": "",
          "type": "uint256"
        }
      ],
      "payable": false,
      "stateMutability": "view",
      "type": "function"
    },
    {
      "constant": true,
      "inputs": [],
      "name": "hardcapReached",
      "outputs": [
        {
          "name": "",
          "type": "bool"
        }
      ],
      "payable": false,
      "stateMutability": "view",
      "type": "function"
    },
    {
      "constant": true,
      "inputs": [],
      "name": "softcapReached",
      "outputs": [
        {
          "name": "",
          "type": "bool"
        }
      ],
      "payable": false,
      "stateMutability": "view",
      "type": "function"
    },
    {
      "constant": true,
      "inputs": [],
      "name": "burned",
      "outputs": [
        {
          "name": "",
          "type": "bool"
        }
      ],
      "payable": false,
      "stateMutability": "view",
      "type": "function"
    },
    {
      "constant": true,
      "inputs": [],
      "name": "buyPrice",
      "outputs": [
        {
          "name": "",
          "type": "uint256"
        }
      ],
      "payable": false,
      "stateMutability": "view",
      "type": "function"
    },
    {
      "constant": true,
      "inputs": [],
      "name": "owner",
      "outputs": [
        {
          "name": "",
          "type": "address"
        }
      ],
      "payable": false,
      "stateMutability": "view",
      "type": "function"
    },
    {
      "constant": true,
      "inputs": [],
      "name": "ICOdeadLine",
      "outputs": [
        {
          "name": "",
          "type": "uint256"
        }
      ],
      "payable": false,
      "stateMutability": "view",
      "type": "function"
    },
    {
      "constant": true,
      "inputs": [],
      "name": "hardcap",
      "outputs": [
        {
          "name": "",
          "type": "uint256"
        }
      ],
      "payable": false,
      "stateMutability": "view",
      "type": "function"
    },
    {
      "constant": true,
      "inputs": [],
      "name": "stage",
      "outputs": [
        {
          "name": "",
          "type": "uint256"
        }
      ],
      "payable": false,
      "stateMutability": "view",
      "type": "function"
    },
    {
      "constant": false,
      "inputs": [
        {
          "name": "newOwner",
          "type": "address"
        }
      ],
      "name": "transferOwnership",
      "outputs": [],
      "payable": false,
      "stateMutability": "nonpayable",
      "type": "function"
    },
    {
      "constant": true,
      "inputs": [],
      "name": "softcap",
      "outputs": [
        {
          "name": "",
          "type": "uint256"
        }
      ],
      "payable": false,
      "stateMutability": "view",
      "type": "function"
    },
    {
      "constant": true,
      "inputs": [],
      "name": "token",
      "outputs": [
        {
          "name": "",
          "type": "address"
        }
      ],
      "payable": false,
      "stateMutability": "view",
      "type": "function"
    },
    {
      "inputs": [
        {
          "name": "_contractAddress",
          "type": "address"
        }
      ],
      "payable": false,
      "stateMutability": "nonpayable",
      "type": "constructor"
    },
    {
      "payable": true,
      "stateMutability": "payable",
      "type": "fallback"
    },
    {
      "anonymous": false,
      "inputs": [],
      "name": "SoftcapReached",
      "type": "event"
    },
    {
      "anonymous": false,
      "inputs": [],
      "name": "HardcapReached",
      "type": "event"
    },
    {
      "anonymous": false,
      "inputs": [
        {
          "indexed": false,
          "name": "tokens",
          "type": "uint256"
        },
        {
          "indexed": false,
          "name": "startDate",
          "type": "uint256"
        },
        {
          "indexed": false,
          "name": "endDate",
          "type": "uint256"
        },
        {
          "indexed": false,
          "name": "bonus",
          "type": "uint256"
        }
      ],
      "name": "CrowdStarted",
      "type": "event"
    },
    {
      "anonymous": false,
      "inputs": [],
      "name": "RefundsEnabled",
      "type": "event"
    },
    {
      "anonymous": false,
      "inputs": [
        {
          "indexed": true,
          "name": "beneficiary",
          "type": "address"
        },
        {
          "indexed": false,
          "name": "weiAmount",
          "type": "uint256"
        }
      ],
      "name": "Refunded",
      "type": "event"
    },
    {
      "anonymous": false,
      "inputs": [
        {
          "indexed": false,
          "name": "amount",
          "type": "uint256"
        }
      ],
      "name": "Burned",
      "type": "event"
    },
    {
      "anonymous": false,
      "inputs": [
        {
          "indexed": true,
          "name": "previousOwner",
          "type": "address"
        },
        {
          "indexed": true,
          "name": "newOwner",
          "type": "address"
        }
      ],
      "name": "OwnershipTransferred",
      "type": "event"
    },
    {
      "constant": false,
      "inputs": [
        {
          "name": "_tokens",
          "type": "uint256"
        },
        {
          "name": "_startDate",
          "type": "uint256"
        },
        {
          "name": "_endDate",
          "type": "uint256"
        },
        {
          "name": "_bonus",
          "type": "uint256"
        }
      ],
      "name": "startCrowd",
      "outputs": [],
      "payable": false,
      "stateMutability": "nonpayable",
      "type": "function"
    },
    {
      "constant": false,
      "inputs": [
        {
          "name": "_bonus",
          "type": "uint256"
        }
      ],
      "name": "changeBonus",
      "outputs": [
        {
          "name": "",
          "type": "bool"
        }
      ],
      "payable": false,
      "stateMutability": "nonpayable",
      "type": "function"
    },
    {
      "constant": false,
      "inputs": [
        {
          "name": "_tokens",
          "type": "uint256"
        }
      ],
      "name": "increaseIcoStageTokensSize",
      "outputs": [
        {
          "name": "",
          "type": "bool"
        }
      ],
      "payable": false,
      "stateMutability": "nonpayable",
      "type": "function"
    },
    {
      "constant": false,
      "inputs": [
        {
          "name": "_tokens",
          "type": "uint256"
        }
      ],
      "name": "decreaseIcoStageTokensSize",
      "outputs": [
        {
          "name": "",
          "type": "bool"
        }
      ],
      "payable": false,
      "stateMutability": "nonpayable",
      "type": "function"
    },
    {
      "constant": false,
      "inputs": [
        {
          "name": "_numerator",
          "type": "uint256"
        },
        {
          "name": "_denominator",
          "type": "uint256"
        }
      ],
      "name": "changeTokenBuyPrice",
      "outputs": [
        {
          "name": "",
          "type": "bool"
        }
      ],
      "payable": false,
      "stateMutability": "nonpayable",
      "type": "function"
    },
    {
      "constant": false,
      "inputs": [
        {
          "name": "_address",
          "type": "address"
        },
        {
          "name": "_amountTokens",
          "type": "uint256"
        }
      ],
      "name": "sendToken",
      "outputs": [
        {
          "name": "",
          "type": "bool"
        }
      ],
      "payable": false,
      "stateMutability": "nonpayable",
      "type": "function"
    },
    {
      "constant": false,
      "inputs": [
        {
          "name": "_addresses",
          "type": "address[]"
        },
        {
          "name": "_amountTokens",
          "type": "uint256[]"
        }
      ],
      "name": "sendTokens",
      "outputs": [
        {
          "name": "",
          "type": "bool"
        }
      ],
      "payable": false,
      "stateMutability": "nonpayable",
      "type": "function"
    },
    {
      "constant": false,
      "inputs": [
        {
          "name": "_contributor",
          "type": "address"
        }
      ],
      "name": "whitelistAddress",
      "outputs": [],
      "payable": false,
      "stateMutability": "nonpayable",
      "type": "function"
    },
    {
      "constant": false,
      "inputs": [
        {
          "name": "_contributors",
          "type": "address[]"
        }
      ],
      "name": "whitelistAddresses",
      "outputs": [],
      "payable": false,
      "stateMutability": "nonpayable",
      "type": "function"
    },
    {
      "constant": false,
      "inputs": [
        {
          "name": "_to",
          "type": "address"
        },
        {
          "name": "amount",
          "type": "uint256"
        }
      ],
      "name": "transferEthFromContract",
      "outputs": [],
      "payable": false,
      "stateMutability": "nonpayable",
      "type": "function"
    },
    {
      "constant": false,
      "inputs": [],
      "name": "burnAfterICO",
      "outputs": [],
      "payable": false,
      "stateMutability": "nonpayable",
      "type": "function"
    },
    {
      "constant": true,
      "inputs": [
        {
          "name": "_weiAmount",
          "type": "uint256"
        }
      ],
      "name": "getTokenAmount",
      "outputs": [
        {
          "name": "",
          "type": "uint256"
        }
      ],
      "payable": false,
      "stateMutability": "view",
      "type": "function"
    },
    {
      "constant": true,
      "inputs": [],
      "name": "getPhaseAvailableTokens",
      "outputs": [
        {
          "name": "",
          "type": "uint256"
        }
      ],
      "payable": false,
      "stateMutability": "view",
      "type": "function"
    },
    {
      "constant": true,
      "inputs": [],
      "name": "getPhaseBuyableTokens",
      "outputs": [
        {
          "name": "",
          "type": "uint256"
        }
      ],
      "payable": false,
      "stateMutability": "view",
      "type": "function"
    },
    {
      "constant": false,
      "inputs": [],
      "name": "enableRefundAfterICO",
      "outputs": [],
      "payable": false,
      "stateMutability": "nonpayable",
      "type": "function"
    },
    {
      "constant": false,
      "inputs": [],
      "name": "getRefundAfterICO",
      "outputs": [],
      "payable": false,
      "stateMutability": "nonpayable",
      "type": "function"
    },
    {
      "constant": true,
      "inputs": [
        {
          "name": "_contributor",
          "type": "address"
        }
      ],
      "name": "getInfoAboutContributor",
      "outputs": [
        {
          "name": "",
          "type": "uint256"
        },
        {
          "name": "",
          "type": "bool"
        },
        {
          "name": "",
          "type": "uint256"
        },
        {
          "name": "",
          "type": "uint256"
        },
        {
          "name": "",
          "type": "uint256"
        }
      ],
      "payable": false,
      "stateMutability": "view",
      "type": "function"
    },
    {
      "constant": true,
      "inputs": [],
      "name": "crowdSaleStatus",
      "outputs": [
        {
          "name": "",
          "type": "string"
        }
      ],
      "payable": false,
      "stateMutability": "view",
      "type": "function"
    }
  ],
  "bytecode": "0x60606040526000600255600060035566038d7ea4c680006004556a295be96e64066972000000600555341561003357600080fd5b60405160208061238d83398101604052808051906020019091905050336000806101000a81548173ffffffffffffffffffffffffffffffffffffffff021916908373ffffffffffffffffffffffffffffffffffffffff16021790555060008173ffffffffffffffffffffffffffffffffffffffff16141515156100b557600080fd5b80600160006101000a81548173ffffffffffffffffffffffffffffffffffffffff021916908373ffffffffffffffffffffffffffffffffffffffff160217905550600160009054906101000a900473ffffffffffffffffffffffffffffffffffffffff1673ffffffffffffffffffffffffffffffffffffffff166312778e8d306040518263ffffffff167c0100000000000000000000000000000000000000000000000000000000028152600401808273ffffffffffffffffffffffffffffffffffffffff1673ffffffffffffffffffffffffffffffffffffffff168152602001915050600060405180830381600087803b15156101b257600080fd5b6102c65a03f115156101c357600080fd5b505050506121b7806101d66000396000f3006060604052600436106101a1576000357c0100000000000000000000000000000000000000000000000000000000900463ffffffff168063061303a7146101fa578063107fdbff146102275780631765c9d9146102625780631f6d49421461028b57806324484723146102f8578063273ba6bb146103335780632bf043041461037157806331198d19146103cb578063412664ae1461040d5780634156658514610467578063463c693a146104a0578063518ab2a8146104b5578063542219b3146104de5780635e6911af1461054b5780636beabed4146105785780636eb219291461058d57806373f42561146105ba5780638620410b146105e75780638da5cb5b14610610578063905deafe14610665578063a8583346146106a9578063ae814638146106d2578063b071cbe6146106fb578063c040e6b814610724578063c1ff808d1461074d578063c2507ac114610788578063c888a8c7146107bf578063d12f6938146107d4578063d8b66ae114610862578063e666862f14610914578063f2fde38b14610952578063f89be5931461098b578063fc0c546a146109b4575b635bad44d0421015156101b357600080fd5b42600860010154111515156101c757600080fd5b426008600201541115156101da57600080fd5b6000600860000154141515156101ef57600080fd5b6101f833610a09565b005b341561020557600080fd5b61020d610ad1565b604051808215151515815260200191505060405180910390f35b341561023257600080fd5b6102486004808035906020019091905050610ae4565b604051808215151515815260200191505060405180910390f35b341561026d57600080fd5b610275610bce565b6040518082815260200191505060405180910390f35b341561029657600080fd5b6102c2600480803573ffffffffffffffffffffffffffffffffffffffff16906020019091905050610bfa565b60405180868152602001851515151581526020018481526020018381526020018281526020019550505050505060405180910390f35b341561030357600080fd5b6103196004808035906020019091905050610c3d565b604051808215151515815260200191505060405180910390f35b341561033e57600080fd5b610346610d27565b6040518085815260200184815260200183815260200182815260200194505050505060405180910390f35b341561037c57600080fd5b6103c9600480803590602001908201803590602001908080602002602001604051908101604052809392919081815260200183836020028082843782019150505050505091905050610d45565b005b34156103d657600080fd5b61040b600480803573ffffffffffffffffffffffffffffffffffffffff16906020019091908035906020019091905050610de1565b005b341561041857600080fd5b61044d600480803573ffffffffffffffffffffffffffffffffffffffff16906020019091908035906020019091905050610e9b565b604051808215151515815260200191505060405180910390f35b341561047257600080fd5b61049e600480803573ffffffffffffffffffffffffffffffffffffffff1690602001909190505061102b565b005b34156104ab57600080fd5b6104b3611092565b005b34156104c057600080fd5b6104c86111f7565b6040518082815260200191505060405180910390f35b34156104e957600080fd5b610515600480803573ffffffffffffffffffffffffffffffffffffffff169060200190919050506111fd565b60405180868152602001851515151581526020018481526020018381526020018281526020019550505050505060405180910390f35b341561055657600080fd5b61055e611306565b604051808215151515815260200191505060405180910390f35b341561058357600080fd5b61058b611319565b005b341561059857600080fd5b6105a061145f565b604051808215151515815260200191505060405180910390f35b34156105c557600080fd5b6105cd611472565b604051808215151515815260200191505060405180910390f35b34156105f257600080fd5b6105fa611485565b6040518082815260200191505060405180910390f35b341561061b57600080fd5b61062361148b565b604051808273ffffffffffffffffffffffffffffffffffffffff1673ffffffffffffffffffffffffffffffffffffffff16815260200191505060405180910390f35b341561067057600080fd5b61068f60048080359060200190919080359060200190919050506114b0565b604051808215151515815260200191505060405180910390f35b34156106b457600080fd5b6106bc611576565b6040518082815260200191505060405180910390f35b34156106dd57600080fd5b6106e5611583565b6040518082815260200191505060405180910390f35b341561070657600080fd5b61070e61158b565b6040518082815260200191505060405180910390f35b341561072f57600080fd5b61073761159a565b6040518082815260200191505060405180910390f35b341561075857600080fd5b61076e60048080359060200190919050506115a0565b604051808215151515815260200191505060405180910390f35b341561079357600080fd5b6107a96004808035906020019091905050611664565b6040518082815260200191505060405180910390f35b34156107ca57600080fd5b6107d2611676565b005b34156107df57600080fd5b6107e76116ed565b6040518080602001828103825283818151815260200191508051906020019080838360005b8381101561082757808201518184015260208101905061080c565b50505050905090810190601f1680156108545780820380516001836020036101000a031916815260200191505b509250505060405180910390f35b341561086d57600080fd5b6108fa600480803590602001908201803590602001908080602002602001604051908101604052809392919081815260200183836020028082843782019150505050505091908035906020019082018035906020019080806020026020016040519081016040528093929190818152602001838360200280828437820191505050505050919050506118e1565b604051808215151515815260200191505060405180910390f35b341561091f57600080fd5b61095060048080359060200190919080359060200190919080359060200190919080359060200190919050506119ce565b005b341561095d57600080fd5b610989600480803573ffffffffffffffffffffffffffffffffffffffff16906020019091905050611b08565b005b341561099657600080fd5b61099e611c5d565b6040518082815260200191505060405180910390f35b34156109bf57600080fd5b6109c7611c6c565b604051808273ffffffffffffffffffffffffffffffffffffffff1673ffffffffffffffffffffffffffffffffffffffff16815260200191505060405180910390f35b600073ffffffffffffffffffffffffffffffffffffffff168173ffffffffffffffffffffffffffffffffffffffff1614151515610a4557600080fd5b600760003373ffffffffffffffffffffffffffffffffffffffff1673ffffffffffffffffffffffffffffffffffffffff16815260200190815260200160002060010160009054906101000a900460ff161515610aa057600080fd5b60003414151515610ab057600080fd5b662386f26fc100003410151515610ac657600080fd5b610ace611c92565b50565b600660029054906101000a900460ff1681565b60008060009054906101000a900473ffffffffffffffffffffffffffffffffffffffff1673ffffffffffffffffffffffffffffffffffffffff163373ffffffffffffffffffffffffffffffffffffffff16141515610b4157600080fd5b600082111515610b5057600080fd5b608060405190810160405280610b7484600860000154611d1f90919063ffffffff16565b81526020016008600101548152602001600860020154815260200160086003015481525060086000820151816000015560208201518160010155604082015181600201556060820151816003015590505060019050919050565b600080610bf1606460086003015401600860000154611d3d90919063ffffffff16565b90508091505090565b60076020528060005260406000206000915090508060000154908060010160009054906101000a900460ff16908060020154908060030154908060040154905085565b60008060009054906101000a900473ffffffffffffffffffffffffffffffffffffffff1673ffffffffffffffffffffffffffffffffffffffff163373ffffffffffffffffffffffffffffffffffffffff16141515610c9a57600080fd5b600082111515610ca957600080fd5b608060405190810160405280610ccd84600860000154611d5890919063ffffffff16565b81526020016008600101548152602001600860020154815260200160086003015481525060086000820151816000015560208201518160010155604082015181600201556060820151816003015590505060019050919050565b60088060000154908060010154908060020154908060030154905084565b60008060009054906101000a900473ffffffffffffffffffffffffffffffffffffffff1673ffffffffffffffffffffffffffffffffffffffff163373ffffffffffffffffffffffffffffffffffffffff16141515610da257600080fd5b600090505b8151811015610ddd57610dd08282815181101515610dc157fe5b90602001906020020151611d71565b8080600101915050610da7565b5050565b6000809054906101000a900473ffffffffffffffffffffffffffffffffffffffff1673ffffffffffffffffffffffffffffffffffffffff163373ffffffffffffffffffffffffffffffffffffffff16141515610e3c57600080fd5b600660009054906101000a900460ff161515610e5757600080fd5b8173ffffffffffffffffffffffffffffffffffffffff166108fc829081150290604051600060405180830381858888f193505050501515610e9757600080fd5b5050565b60008060009054906101000a900473ffffffffffffffffffffffffffffffffffffffff1673ffffffffffffffffffffffffffffffffffffffff163373ffffffffffffffffffffffffffffffffffffffff16141515610ef857600080fd5b60008373ffffffffffffffffffffffffffffffffffffffff1614151515610f1e57600080fd5b60008214151515610f2e57600080fd5b600160009054906101000a900473ffffffffffffffffffffffffffffffffffffffff1673ffffffffffffffffffffffffffffffffffffffff1663a9059cbb84846000604051602001526040518363ffffffff167c0100000000000000000000000000000000000000000000000000000000028152600401808373ffffffffffffffffffffffffffffffffffffffff1673ffffffffffffffffffffffffffffffffffffffff16815260200182815260200192505050602060405180830381600087803b1515610ffb57600080fd5b6102c65a03f1151561100c57600080fd5b50505060405180519050151561102157600080fd5b6001905092915050565b6000809054906101000a900473ffffffffffffffffffffffffffffffffffffffff1673ffffffffffffffffffffffffffffffffffffffff163373ffffffffffffffffffffffffffffffffffffffff1614151561108657600080fd5b61108f81611d71565b50565b600080635bad44d0421115156110a757600080fd5b600660029054906101000a900460ff1615156110c257600080fd5b6000600760003373ffffffffffffffffffffffffffffffffffffffff1673ffffffffffffffffffffffffffffffffffffffff1681526020019081526020016000206002015411151561111357600080fd5b600760003373ffffffffffffffffffffffffffffffffffffffff1673ffffffffffffffffffffffffffffffffffffffff168152602001908152602001600020915081600201549050600082600201819055503373ffffffffffffffffffffffffffffffffffffffff166108fc829081150290604051600060405180830381858888f1935050505015156111a557600080fd5b3373ffffffffffffffffffffffffffffffffffffffff167fd7dee2702d63ad89917b6a4da9981c90c4d24f8c2bdfd64c604ecae57d8d0651826040518082815260200191505060405180910390a25050565b60035481565b600080600080600061120d612145565b600073ffffffffffffffffffffffffffffffffffffffff168773ffffffffffffffffffffffffffffffffffffffff161415151561124957600080fd5b600760008873ffffffffffffffffffffffffffffffffffffffff1673ffffffffffffffffffffffffffffffffffffffff16815260200190815260200160002060a06040519081016040529081600082015481526020016001820160009054906101000a900460ff161515151581526020016002820154815260200160038201548152602001600482015481525050905080600001518160200151826040015183606001518460800151955095509550955095505091939590929450565b600660019054906101000a900460ff1681565b635bad44d04211151561132b57600080fd5b600660039054906101000a900460ff1615151561134757600080fd5b600660019054906101000a900460ff1615151561136357600080fd5b600160009054906101000a900473ffffffffffffffffffffffffffffffffffffffff1673ffffffffffffffffffffffffffffffffffffffff166342966c686005546040518263ffffffff167c010000000000000000000000000000000000000000000000000000000002815260040180828152602001915050600060405180830381600087803b15156113f557600080fd5b6102c65a03f1151561140657600080fd5b5050506001600660036101000a81548160ff0219169083151502179055507fd83c63197e8e676d80ab0122beba9a9d20f3828839e9a1d6fe81d242e9cd7e6e6005546040518082815260200191505060405180910390a1565b600660009054906101000a900460ff1681565b600660039054906101000a900460ff1681565b60045481565b6000809054906101000a900473ffffffffffffffffffffffffffffffffffffffff1681565b60008060009054906101000a900473ffffffffffffffffffffffffffffffffffffffff1673ffffffffffffffffffffffffffffffffffffffff163373ffffffffffffffffffffffffffffffffffffffff1614151561150d57600080fd5b6000831415151561151d57600080fd5b6000821415151561152d57600080fd5b600083141561153b57600192505b600082141561154957600191505b61156682670de0b6b3a76400008502611d3d90919063ffffffff16565b6004819055506001905092915050565b6000600860000154905090565b635bad44d081565b6a295be96e6406697200000081565b60025481565b60008060009054906101000a900473ffffffffffffffffffffffffffffffffffffffff1673ffffffffffffffffffffffffffffffffffffffff163373ffffffffffffffffffffffffffffffffffffffff161415156115fd57600080fd5b6080604051908101604052806008600001548152602001600860010154815260200160086002015481526020018381525060086000820151816000015560208201518160010155604082015181600201556060820151816003015590505060019050919050565b600061166f82611e10565b9050919050565b635bad44d04211151561168857600080fd5b600660009054906101000a900460ff161515156116a457600080fd5b6001600660026101000a81548160ff0219169083151502179055507f599d8e5a83cffb867d051598c4d70e805d59802d8081c1c7d6dffc5b6aca2b8960405160405180910390a1565b6116f5612177565b6002546000141561173d576040805190810160405280601781526020017f49434f20646f6573206e6f74207374617274207965742e00000000000000000081525090506118de565b60025460011415611785576040805190810160405280600c81526020017f507269766174652073616c65000000000000000000000000000000000000000081525090506118de565b600254600214156117cd576040805190810160405280600881526020017f5072652073616c6500000000000000000000000000000000000000000000000081525090506118de565b60025460031415611815576040805190810160405280600f81526020017f49434f206669727374207374616765000000000000000000000000000000000081525090506118de565b6002546004141561185d576040805190810160405280601081526020017f49434f207365636f6e642073746167650000000000000000000000000000000081525090506118de565b600254600514156118a5576040805190810160405280600f81526020017f49434f207468697264207374616765000000000000000000000000000000000081525090506118de565b6040805190810160405280601381526020017f43726f776473616c652066696e6973686564210000000000000000000000000081525090505b90565b6000806000809054906101000a900473ffffffffffffffffffffffffffffffffffffffff1673ffffffffffffffffffffffffffffffffffffffff163373ffffffffffffffffffffffffffffffffffffffff1614151561193f57600080fd5b6000845111151561194f57600080fd5b6000835111151561195f57600080fd5b8251845114151561196f57600080fd5b600090505b83518110156119c3576119b5848281518110151561198e57fe5b9060200190602002015184838151811015156119a657fe5b90602001906020020151610e9b565b508080600101915050611974565b600191505092915050565b6000809054906101000a900473ffffffffffffffffffffffffffffffffffffffff1673ffffffffffffffffffffffffffffffffffffffff163373ffffffffffffffffffffffffffffffffffffffff16141515611a2957600080fd5b6005548411151515611a3a57600080fd5b8183101515611a4857600080fd5b60806040519081016040528085815260200184815260200183815260200182815250600860008201518160000155602082015181600101556040820151816002015560608201518160030155905050611aad6001600254611d1f90919063ffffffff16565b6002819055507f0b2372e3f324b2221357aaa55fbd29bef547f541463a42016dcf3a68d101eb2d848484846040518085815260200184815260200183815260200182815260200194505050505060405180910390a150505050565b6000809054906101000a900473ffffffffffffffffffffffffffffffffffffffff1673ffffffffffffffffffffffffffffffffffffffff163373ffffffffffffffffffffffffffffffffffffffff16141515611b6357600080fd5b600073ffffffffffffffffffffffffffffffffffffffff168173ffffffffffffffffffffffffffffffffffffffff1614151515611b9f57600080fd5b8073ffffffffffffffffffffffffffffffffffffffff166000809054906101000a900473ffffffffffffffffffffffffffffffffffffffff1673ffffffffffffffffffffffffffffffffffffffff167f8be0079c531659141344cd1fd0a4f28419497f9722a3daafe3b4186f6b6457e060405160405180910390a3806000806101000a81548173ffffffffffffffffffffffffffffffffffffffff021916908373ffffffffffffffffffffffffffffffffffffffff16021790555050565b6a0152d02c7e14af6800000081565b600160009054906101000a900473ffffffffffffffffffffffffffffffffffffffff1681565b6000600760003373ffffffffffffffffffffffffffffffffffffffff1673ffffffffffffffffffffffffffffffffffffffff1681526020019081526020016000209050611cec348260000154611d1f90919063ffffffff16565b8160000181905550611d0b348260020154611d1f90919063ffffffff16565b8160020181905550611d1c33611e7e565b50565b6000808284019050838110151515611d3357fe5b8091505092915050565b6000808284811515611d4b57fe5b0490508091505092915050565b6000828211151515611d6657fe5b818303905092915050565b60008073ffffffffffffffffffffffffffffffffffffffff168273ffffffffffffffffffffffffffffffffffffffff1614151515611dae57600080fd5b600760008373ffffffffffffffffffffffffffffffffffffffff1673ffffffffffffffffffffffffffffffffffffffff168152602001908152602001600020905060018160010160006101000a81548160ff0219169083151502179055505050565b600080600083111515611e2257600080fd5b611e41600454670de0b6b3a76400008502611d3d90919063ffffffff16565b9050600081111515611e5257600080fd5b611e73611e64826008600301546120aa565b82611d1f90919063ffffffff16565b905080915050919050565b6000806000600760008573ffffffffffffffffffffffffffffffffffffffff1673ffffffffffffffffffffffffffffffffffffffff168152602001908152602001600020925082600001549150611ed482611e10565b905060025460011415611f2d57611f24611f11611f06600454670de0b6b3a76400008602611d3d90919063ffffffff16565b6008600301546120aa565b8460040154611d1f90919063ffffffff16565b83600401819055505b600081111515611f3c57600080fd5b611f45816120e8565b1515611f5057600080fd5b60008360000181905550611f71818460030154611d1f90919063ffffffff16565b8360030181905550611f8e81600354611d1f90919063ffffffff16565b600381905550611fa981600554611d5890919063ffffffff16565b600581905550611fc781600860000154611d5890919063ffffffff16565b6008600001819055506a0152d02c7e14af6800000060035410158015611ffa5750600660009054906101000a900460ff16155b15612047576001600660006101000a81548160ff0219169083151502179055507ffdb05b528f2dac23ab38f2ec9c3a79a5960a50239b3c90882fdd244e3b20477a60405160405180910390a15b6a295be96e6406697200000060035414156120a4576001600660016101000a81548160ff0219169083151502179055507f5be90159e4545cc658d8cad2a258389b64e1afafc55741b601a6e455ef00cccb60405160405180910390a15b50505050565b600080831115156120ba57600080fd5b6120e060646120d2848661210a90919063ffffffff16565b611d3d90919063ffffffff16565b905092915050565b60008160086000015410156121005760009050612105565b600190505b919050565b600080600084141561211f576000915061213e565b828402905082848281151561213057fe5b0414151561213a57fe5b8091505b5092915050565b60a060405190810160405280600081526020016000151581526020016000815260200160008152602001600081525090565b6020604051908101604052806000815250905600a165627a7a72305820f67d48cb4efedadb7e58c2bac2a757537fd2cd9690f0a3165cb3f24466ccdb500029",
  "source": "pragma solidity ^0.4.18;\r\n\r\nimport \"./SafeMath.sol\";\r\nimport \"./Ownable.sol\";\r\nimport \"./CaleroToken.sol\";\r\n\r\n/**\r\n * @title CaleroICO\r\n */\r\ncontract CaleroICO is Ownable {\r\n    using SafeMath for uint256;\r\n\r\n    CaleroToken public token; // The token which being sold\r\n\r\n    uint256 public stage = 0; // ICO stage (privat sale, pre sale, main sale)\r\n    uint256 public tokensSold = 0; // Total value of sold tokens\r\n    uint256 public buyPrice = 0.001 ether; // 1 CLE = 0.001ETH or 1 ETH ~ 1000 CLE\r\n   \r\n    uint256 public constant ICOdeadLine = 1538082000; // ICO finish time -  28 September 2018, 00:00:00\r\n\r\n    uint256 public constant softcap = 1600000 ether; // Soft Cap = 1,600,000 CLE. Its constant and non-changeable number\r\n    uint256 public constant hardcap = 50000000 ether; //  Hard Cap = 50,000,000 CLE. Its is constant and non-changeable number\r\n\r\n    uint256 availableTokens = hardcap;\r\n\r\n    bool public softcapReached;\r\n    bool public hardcapReached;\r\n    bool public refundIsAvailable;\r\n    bool public burned;\r\n\r\n    event SoftcapReached();\r\n    event HardcapReached();\r\n\r\n    event CrowdStarted(uint256 tokens, uint256 startDate, uint256 endDate, uint256 bonus);\r\n    \r\n    event RefundsEnabled();\r\n    event Refunded(address indexed beneficiary, uint256 weiAmount);\r\n    event Burned(uint256 amount);\r\n   \r\n    mapping(address => Contributor) public contributors;\r\n\r\n    struct Contributor {\r\n        uint256 eth;                // ETH on this wallet \r\n        bool whitelisted;           // White listed true/false\r\n        uint256 ethHistory;         // All deposited ETH history\r\n        uint256 tokensPurchasedDuringICO;  // Tokens puchuased during ICO\r\n        uint256 bonusGetDuringPrivateSale;  // Bonus purchuased during private sale\r\n    }\r\n\r\n    struct Ico {\r\n        uint256 tokens;    // Tokens in crowdsale\r\n        uint256 startDate; // Date when crowsale will be starting, after its starting that property will be the 0\r\n        uint256 endDate;   // Date when crowdsale will be stop\r\n        uint256 bonus;  // Bonus\r\n    }\r\n\r\n    Ico public ICO;\r\n\r\n    modifier afterDeadline {\r\n        require(now > ICOdeadLine);\r\n        _;\r\n    }\r\n\r\n    /**\r\n     * @dev Constructor\r\n     */\r\n    function CaleroICO(address _contractAddress) Ownable() public {\r\n        require(_contractAddress != 0x0);\r\n        \r\n        token = CaleroToken(_contractAddress);\r\n        token.addDistributionContract(this);\r\n    }\r\n\r\n    /**\r\n     * @dev fallback function\r\n     */\r\n    function () external payable {\r\n        require(now < ICOdeadLine);\r\n        require(ICO.startDate <= now);\r\n        require(ICO.endDate > now);\r\n        require(ICO.tokens != 0);\r\n\r\n        _secureChecks(msg.sender);\r\n    }\r\n\r\n    /**\r\n     * @dev token purchase\r\n     * @param _contributor Address performing the token purchase\r\n     */\r\n    function _secureChecks(address _contributor) internal {\r\n        require(_contributor != address(0));\r\n        require(contributors[msg.sender].whitelisted);\r\n        require(msg.value != 0);\r\n        require(msg.value >= ( 1 ether / 100));\r\n\r\n        _forwardFunds();\r\n    }\r\n\r\n    function _forwardFunds() internal {\r\n        Contributor storage contributor = contributors[msg.sender];\r\n\r\n        contributor.eth = contributor.eth.add(msg.value);\r\n        contributor.ethHistory = contributor.ethHistory.add(msg.value);\r\n\r\n        _deliverTokens(msg.sender);\r\n    }\r\n\r\n    function _deliverTokens(address _contributor) internal {\r\n        Contributor storage contributor = contributors[_contributor];\r\n\r\n        uint256 amountEth = contributor.eth;\r\n        uint256 amountToken = _getTokenAmount(amountEth);\r\n\r\n        if (1 == stage) {         \r\n            contributor.bonusGetDuringPrivateSale = (contributor.bonusGetDuringPrivateSale).add( _withBonus(((amountEth * 1 ether).div(buyPrice)), ICO.bonus ));\r\n            // Bonus tokens (for private sale buyers) will lock 2 more months after crowdsale finish\r\n        }\r\n\r\n        require(amountToken > 0);\r\n        require(_confirmSell(amountToken));\r\n        \r\n        contributor.eth = 0;\r\n        contributor.tokensPurchasedDuringICO = (contributor.tokensPurchasedDuringICO).add(amountToken);\r\n        \r\n        tokensSold = tokensSold.add(amountToken);\r\n        availableTokens = availableTokens.sub(amountToken);\r\n        ICO.tokens = ICO.tokens.sub(amountToken);\r\n\r\n        // token.transfer(_contributor, amountToken); To change\r\n\r\n        if ((tokensSold >= softcap) && !softcapReached) {\r\n            softcapReached = true;\r\n            SoftcapReached();\r\n        }\r\n\r\n        if (tokensSold == hardcap) {\r\n            hardcapReached = true;\r\n            HardcapReached();\r\n        }\r\n\r\n    }\r\n\r\n    function _confirmSell(uint256 _amount) internal view returns(bool) {\r\n        if (ICO.tokens < _amount) {\r\n            return false;\r\n        }\r\n\r\n        return true;\r\n    }\r\n\r\n    /**\r\n     * @dev the way in which ether is converted to tokens.\r\n     * @param _weiAmount Value in wei to be converted into tokens\r\n     * @return Number of tokens that can be purchased with the specified _weiAmount\r\n     */\r\n    function _getTokenAmount(uint256 _weiAmount) internal view returns(uint256) {\r\n        require(_weiAmount > 0);\r\n        \r\n        uint256 weiAmount = (_weiAmount * 1 ether).div(buyPrice);\r\n        require(weiAmount > 0);\r\n        \r\n        weiAmount = weiAmount.add(_withBonus(weiAmount, ICO.bonus));\r\n        return weiAmount;\r\n    }\r\n\r\n    function _withBonus(uint256 _amount, uint256 _percent) internal pure returns(uint256) {\r\n        require(_amount > 0);\r\n\r\n        return (_amount.mul(_percent)).div(100);\r\n    }\r\n\r\n    function _whitelistAddress(address _contributor) internal {\r\n        require(_contributor != address(0));\r\n        \r\n        Contributor storage contributor = contributors[_contributor];\r\n        contributor.whitelisted = true;\r\n    }\r\n\r\n    \r\n    /************ Public functions for owner only ************/\r\n\r\n    /**\r\n     * @dev Start crowdsale state\r\n     */\r\n    function startCrowd(uint256 _tokens, uint256 _startDate, uint256 _endDate, uint256 _bonus) public onlyOwner {\r\n        require(_tokens <= availableTokens);\r\n        require(_startDate < _endDate);\r\n\r\n        ICO = Ico(_tokens, _startDate, _endDate, _bonus); // _startDate + _endDate * 1 days\r\n        stage = stage.add(1);\r\n\r\n        CrowdStarted(_tokens, _startDate, _endDate, _bonus);\r\n    }\r\n\r\n    /**\r\n     * @dev Change crowdsale bonus size\r\n     */\r\n    function changeBonus(uint256 _bonus) public onlyOwner returns(bool) {\r\n        ICO = Ico (ICO.tokens, ICO.startDate, ICO.endDate, _bonus);\r\n        return true;\r\n    }\r\n\r\n    /**\r\n     * @dev Increase crowdsale tokens size\r\n     */\r\n    function increaseIcoStageTokensSize(uint256 _tokens) public onlyOwner returns(bool) {\r\n        require(_tokens > 0);\r\n         \r\n        ICO = Ico ((ICO.tokens).add(_tokens), ICO.startDate, ICO.endDate, ICO.bonus);\r\n        return true;\r\n    }\r\n\r\n    /**\r\n     * @dev Decrease crowdsale bonus size\r\n     */\r\n    function decreaseIcoStageTokensSize(uint256 _tokens) public onlyOwner returns(bool) {\r\n        require(_tokens > 0);\r\n         \r\n        ICO = Ico ((ICO.tokens).sub(_tokens), ICO.startDate, ICO.endDate, ICO.bonus);\r\n        return true;\r\n    }\r\n\r\n    /**\r\n     * @dev Change token buy size\r\n     */ \r\n    function changeTokenBuyPrice(uint256 _numerator, uint256 _denominator) public onlyOwner returns(bool) {\r\n        require(_numerator != 0);\r\n        require(_denominator != 0);\r\n    \r\n        if (_numerator == 0) _numerator = 1;\r\n        if (_denominator == 0) _denominator = 1;\r\n\r\n        buyPrice = (_numerator * 1 ether).div(_denominator);\r\n\r\n        return true;\r\n    }\r\n \r\n    /**\r\n     * @dev Send tokens to contributor\r\n     */\r\n    function sendToken(address _address, uint256 _amountTokens) public onlyOwner returns(bool){\r\n        require(_address != 0x0);\r\n        require(_amountTokens != 0);\r\n\r\n        require(token.transfer(_address, _amountTokens));\r\n\r\n        return true;\r\n    }\r\n\r\n    /**\r\n     * @dev Send tokens to many contributors\r\n     */\r\n    function sendTokens(address[] _addresses, uint256[] _amountTokens) public onlyOwner returns(bool) {\r\n        require(_addresses.length > 0);\r\n        require(_amountTokens.length > 0);\r\n        require(_addresses.length  == _amountTokens.length);\r\n\r\n        for (uint256 i = 0; i < _addresses.length; i++) {\r\n            sendToken(_addresses[i], _amountTokens[i]);\r\n        }\r\n\r\n        return true;\r\n    }\r\n\r\n    /**\r\n     * @dev Add contributor to whitelist\r\n     */\r\n    function whitelistAddress(address _contributor) public onlyOwner {\r\n        _whitelistAddress(_contributor);\r\n    }\r\n\r\n    /**\r\n     * @dev Add many contributors to whitelist\r\n     */\r\n    function whitelistAddresses(address[] _contributors) public onlyOwner {\r\n        for (uint256 i = 0; i < _contributors.length; i++) {\r\n            _whitelistAddress(_contributors[i]);\r\n        }\r\n    }\r\n\r\n    /**\r\n     * @dev Transfer ETH from smart contract if soft cap was reached\r\n     */\r\n    function transferEthFromContract(address _to, uint256 amount) public onlyOwner {\r\n        require(softcapReached);\r\n        \r\n        _to.transfer(amount);\r\n    }\r\n\r\n\r\n\r\n    /************ Public functions for contributors ************/\r\n    \r\n    /**\r\n     * @dev Burn smart contract available tokens after ICO\r\n     */\r\n    function burnAfterICO() public afterDeadline {\r\n        require(!burned);\r\n        require(!hardcapReached);\r\n\r\n        token.burn(availableTokens);\r\n        burned = true;\r\n\r\n        Burned(availableTokens);\r\n    }\r\n\r\n    /**\r\n     * @dev Returnstokens according to rate\r\n     */\r\n    function getTokenAmount(uint256 _weiAmount) public view returns(uint256) {\r\n        return _getTokenAmount(_weiAmount);\r\n    }\r\n    \r\n    /**\r\n     * @dev Returnsavaialble tokens for current stage\r\n     */\r\n    function getPhaseAvailableTokens() public view returns(uint256) {\r\n        return ICO.tokens;\r\n    }\r\n    \r\n    /**\r\n     * @dev Returnsavailable tokens for current phase for sale\r\n     */\r\n    function getPhaseBuyableTokens() public view returns(uint256) {\r\n        uint256 tokensForBuy = (ICO.tokens).div(ICO.bonus + 100);\r\n        return tokensForBuy;\r\n    }\r\n\r\n    /**\r\n     * @dev Enable refund if softcap doesnt reached\r\n     */\r\n    function enableRefundAfterICO() public afterDeadline {\r\n        require(!softcapReached);\r\n\r\n        refundIsAvailable = true;\r\n\r\n        RefundsEnabled();\r\n    }\r\n\r\n    /**\r\n     * @dev Contributor call and get his ETH from contract\r\n     */\r\n    function getRefundAfterICO() public afterDeadline {\r\n        require(refundIsAvailable);\r\n        require(contributors[msg.sender].ethHistory > 0);\r\n\r\n        Contributor storage contributor = contributors[msg.sender];\r\n\r\n        uint256 depositedValue = contributor.ethHistory;\r\n        contributor.ethHistory = 0;\r\n\r\n        msg.sender.transfer(depositedValue);\r\n\r\n        Refunded(msg.sender, depositedValue);\r\n    }\r\n\r\n    /**\r\n     * @dev Get info about the contributor via address, who participated to crowdsale\r\n     */\r\n    function getInfoAboutContributor(address _contributor) public view returns(uint256, bool, uint256, uint256, uint256) {\r\n        require(_contributor != address(0));\r\n\r\n        Contributor memory contributor = contributors[_contributor];\r\n        return(contributor.eth, contributor.whitelisted, contributor.ethHistory, contributor.tokensPurchasedDuringICO, contributor.bonusGetDuringPrivateSale);\r\n    }\r\n\r\n    /**\r\n     * @dev Get crowdsale current status (string)\r\n     */\r\n    function crowdSaleStatus() public constant returns(string) {\r\n        if (0 == stage) {\r\n            return \"ICO does not start yet.\";\r\n        }\r\n        else if (1 == stage) {\r\n            return \"Private sale\";\r\n        }\r\n        else if(2 == stage) {\r\n            return \"Pre sale\";\r\n        }\r\n        else if (3 == stage) {\r\n            return \"ICO first stage\";\r\n        }\r\n        else if (4 == stage) {\r\n            return \"ICO second stage\";\r\n        }\r\n        else if (5 == stage) {\r\n            return \"ICO third stage\";\r\n        }\r\n\r\n        return \"Crowdsale finished!\";\r\n    }\r\n    \r\n}",
  "sourcePath": "C:\\Users\\home\\Desktop\\TokenSmartContract\\contracts\\CaleroICO.sol",
  "compiler": {
    "name": "solc",
    "version": "0.4.19+commit.c4cbbb05.Emscripten.clang"
  },
  "schemaVersion": "2.0.0",
  "updatedAt": "2018-04-08T22:59:54.705Z"
}