{
  "contractName": "CaleroICO",
  "abi": [
    {
      "constant": true,
      "inputs": [],
      "name": "refundIsAvailable",
      "outputs": [
        {
          "name": "",
          "type": "bool"
        }
      ],
      "payable": false,
      "stateMutability": "view",
      "type": "function"
    },
    {
      "constant": true,
      "inputs": [
        {
          "name": "",
          "type": "address"
        }
      ],
      "name": "contributors",
      "outputs": [
        {
          "name": "eth",
          "type": "uint256"
        },
        {
          "name": "whitelisted",
          "type": "bool"
        },
        {
          "name": "created",
          "type": "bool"
        },
        {
          "name": "ethHistory",
          "type": "uint256"
        },
        {
          "name": "tokensPurchasedDuringICO",
          "type": "uint256"
        },
        {
          "name": "bonusGetDuringPrivateSale",
          "type": "uint256"
        }
      ],
      "payable": false,
      "stateMutability": "view",
      "type": "function"
    },
    {
      "constant": true,
      "inputs": [],
      "name": "ICO",
      "outputs": [
        {
          "name": "tokens",
          "type": "uint256"
        },
        {
          "name": "startDate",
          "type": "uint256"
        },
        {
          "name": "endDate",
          "type": "uint256"
        },
        {
          "name": "discount",
          "type": "uint256"
        }
      ],
      "payable": false,
      "stateMutability": "view",
      "type": "function"
    },
    {
      "constant": true,
      "inputs": [],
      "name": "tokensSold",
      "outputs": [
        {
          "name": "",
          "type": "uint256"
        }
      ],
      "payable": false,
      "stateMutability": "view",
      "type": "function"
    },
    {
      "constant": true,
      "inputs": [],
      "name": "hardcapReached",
      "outputs": [
        {
          "name": "",
          "type": "bool"
        }
      ],
      "payable": false,
      "stateMutability": "view",
      "type": "function"
    },
    {
      "constant": true,
      "inputs": [],
      "name": "softcapReached",
      "outputs": [
        {
          "name": "",
          "type": "bool"
        }
      ],
      "payable": false,
      "stateMutability": "view",
      "type": "function"
    },
    {
      "constant": true,
      "inputs": [],
      "name": "burned",
      "outputs": [
        {
          "name": "",
          "type": "bool"
        }
      ],
      "payable": false,
      "stateMutability": "view",
      "type": "function"
    },
    {
      "constant": true,
      "inputs": [],
      "name": "buyPrice",
      "outputs": [
        {
          "name": "",
          "type": "uint256"
        }
      ],
      "payable": false,
      "stateMutability": "view",
      "type": "function"
    },
    {
      "constant": true,
      "inputs": [],
      "name": "owner",
      "outputs": [
        {
          "name": "",
          "type": "address"
        }
      ],
      "payable": false,
      "stateMutability": "view",
      "type": "function"
    },
    {
      "constant": true,
      "inputs": [],
      "name": "ICOdeadLine",
      "outputs": [
        {
          "name": "",
          "type": "uint256"
        }
      ],
      "payable": false,
      "stateMutability": "view",
      "type": "function"
    },
    {
      "constant": true,
      "inputs": [],
      "name": "hardcap",
      "outputs": [
        {
          "name": "",
          "type": "uint256"
        }
      ],
      "payable": false,
      "stateMutability": "view",
      "type": "function"
    },
    {
      "constant": true,
      "inputs": [],
      "name": "stage",
      "outputs": [
        {
          "name": "",
          "type": "uint256"
        }
      ],
      "payable": false,
      "stateMutability": "view",
      "type": "function"
    },
    {
      "constant": false,
      "inputs": [
        {
          "name": "newOwner",
          "type": "address"
        }
      ],
      "name": "transferOwnership",
      "outputs": [],
      "payable": false,
      "stateMutability": "nonpayable",
      "type": "function"
    },
    {
      "constant": true,
      "inputs": [],
      "name": "softcap",
      "outputs": [
        {
          "name": "",
          "type": "uint256"
        }
      ],
      "payable": false,
      "stateMutability": "view",
      "type": "function"
    },
    {
      "constant": true,
      "inputs": [],
      "name": "token",
      "outputs": [
        {
          "name": "",
          "type": "address"
        }
      ],
      "payable": false,
      "stateMutability": "view",
      "type": "function"
    },
    {
      "inputs": [
        {
          "name": "_contractAddress",
          "type": "address"
        }
      ],
      "payable": false,
      "stateMutability": "nonpayable",
      "type": "constructor"
    },
    {
      "payable": true,
      "stateMutability": "payable",
      "type": "fallback"
    },
    {
      "anonymous": false,
      "inputs": [],
      "name": "SoftcapReached",
      "type": "event"
    },
    {
      "anonymous": false,
      "inputs": [],
      "name": "HardcapReached",
      "type": "event"
    },
    {
      "anonymous": false,
      "inputs": [],
      "name": "RefundsEnabled",
      "type": "event"
    },
    {
      "anonymous": false,
      "inputs": [
        {
          "indexed": true,
          "name": "beneficiary",
          "type": "address"
        },
        {
          "indexed": false,
          "name": "weiAmount",
          "type": "uint256"
        }
      ],
      "name": "Refunded",
      "type": "event"
    },
    {
      "anonymous": false,
      "inputs": [
        {
          "indexed": false,
          "name": "amount",
          "type": "uint256"
        }
      ],
      "name": "Burned",
      "type": "event"
    },
    {
      "anonymous": false,
      "inputs": [
        {
          "indexed": true,
          "name": "previousOwner",
          "type": "address"
        },
        {
          "indexed": true,
          "name": "newOwner",
          "type": "address"
        }
      ],
      "name": "OwnershipTransferred",
      "type": "event"
    },
    {
      "constant": true,
      "inputs": [],
      "name": "crowdSaleStatus",
      "outputs": [
        {
          "name": "",
          "type": "string"
        }
      ],
      "payable": false,
      "stateMutability": "view",
      "type": "function"
    },
    {
      "constant": false,
      "inputs": [
        {
          "name": "_discount",
          "type": "uint256"
        }
      ],
      "name": "_changeDiscount",
      "outputs": [
        {
          "name": "",
          "type": "bool"
        }
      ],
      "payable": false,
      "stateMutability": "nonpayable",
      "type": "function"
    },
    {
      "constant": false,
      "inputs": [
        {
          "name": "_numerator",
          "type": "uint256"
        },
        {
          "name": "_denominator",
          "type": "uint256"
        }
      ],
      "name": "_changeRate",
      "outputs": [
        {
          "name": "success",
          "type": "bool"
        }
      ],
      "payable": false,
      "stateMutability": "nonpayable",
      "type": "function"
    },
    {
      "constant": false,
      "inputs": [
        {
          "name": "_contributor",
          "type": "address"
        }
      ],
      "name": "whitelistAddress",
      "outputs": [],
      "payable": false,
      "stateMutability": "nonpayable",
      "type": "function"
    },
    {
      "constant": false,
      "inputs": [
        {
          "name": "_contributors",
          "type": "address[]"
        }
      ],
      "name": "whitelistAddresses",
      "outputs": [],
      "payable": false,
      "stateMutability": "nonpayable",
      "type": "function"
    },
    {
      "constant": false,
      "inputs": [
        {
          "name": "_to",
          "type": "address"
        },
        {
          "name": "amount",
          "type": "uint256"
        }
      ],
      "name": "transferEthFromContract",
      "outputs": [],
      "payable": false,
      "stateMutability": "nonpayable",
      "type": "function"
    },
    {
      "constant": false,
      "inputs": [
        {
          "name": "_address",
          "type": "address"
        },
        {
          "name": "_amountTokens",
          "type": "uint256"
        }
      ],
      "name": "sendToken",
      "outputs": [
        {
          "name": "success",
          "type": "bool"
        }
      ],
      "payable": false,
      "stateMutability": "nonpayable",
      "type": "function"
    },
    {
      "constant": false,
      "inputs": [
        {
          "name": "_addresses",
          "type": "address[]"
        },
        {
          "name": "_amountTokens",
          "type": "uint256[]"
        }
      ],
      "name": "sendTokens",
      "outputs": [
        {
          "name": "success",
          "type": "bool"
        }
      ],
      "payable": false,
      "stateMutability": "nonpayable",
      "type": "function"
    },
    {
      "constant": false,
      "inputs": [
        {
          "name": "_tokens",
          "type": "uint256"
        },
        {
          "name": "_startDate",
          "type": "uint256"
        },
        {
          "name": "_endDate",
          "type": "uint256"
        },
        {
          "name": "_discount",
          "type": "uint256"
        }
      ],
      "name": "startCrowd",
      "outputs": [],
      "payable": false,
      "stateMutability": "nonpayable",
      "type": "function"
    },
    {
      "constant": false,
      "inputs": [
        {
          "name": "_contributor",
          "type": "address"
        }
      ],
      "name": "refundTokensForAddress",
      "outputs": [],
      "payable": false,
      "stateMutability": "nonpayable",
      "type": "function"
    },
    {
      "constant": false,
      "inputs": [],
      "name": "burnAfterICO",
      "outputs": [],
      "payable": false,
      "stateMutability": "nonpayable",
      "type": "function"
    },
    {
      "constant": false,
      "inputs": [],
      "name": "refundTokens",
      "outputs": [],
      "payable": false,
      "stateMutability": "nonpayable",
      "type": "function"
    },
    {
      "constant": true,
      "inputs": [
        {
          "name": "_weiAmount",
          "type": "uint256"
        }
      ],
      "name": "getTokenAmount",
      "outputs": [
        {
          "name": "",
          "type": "uint256"
        }
      ],
      "payable": false,
      "stateMutability": "view",
      "type": "function"
    },
    {
      "constant": true,
      "inputs": [],
      "name": "getPhaseAvailableTokens",
      "outputs": [
        {
          "name": "",
          "type": "uint256"
        }
      ],
      "payable": false,
      "stateMutability": "view",
      "type": "function"
    },
    {
      "constant": true,
      "inputs": [],
      "name": "getPhaseBuyableTokens",
      "outputs": [
        {
          "name": "",
          "type": "uint256"
        }
      ],
      "payable": false,
      "stateMutability": "view",
      "type": "function"
    },
    {
      "constant": false,
      "inputs": [],
      "name": "enableRefundAfterICO",
      "outputs": [],
      "payable": false,
      "stateMutability": "nonpayable",
      "type": "function"
    },
    {
      "constant": false,
      "inputs": [],
      "name": "getRefundAfterICO",
      "outputs": [],
      "payable": false,
      "stateMutability": "nonpayable",
      "type": "function"
    }
  ],
  "bytecode": "0x60606040526000600255600060035566038d7ea4c680006004556a295be96e64066972000000600555341561003357600080fd5b60405160208061208983398101604052808051906020019091905050336000806101000a81548173ffffffffffffffffffffffffffffffffffffffff021916908373ffffffffffffffffffffffffffffffffffffffff16021790555060008173ffffffffffffffffffffffffffffffffffffffff16141515156100b557600080fd5b80600160006101000a81548173ffffffffffffffffffffffffffffffffffffffff021916908373ffffffffffffffffffffffffffffffffffffffff160217905550600160009054906101000a900473ffffffffffffffffffffffffffffffffffffffff1673ffffffffffffffffffffffffffffffffffffffff166312778e8d306040518263ffffffff167c0100000000000000000000000000000000000000000000000000000000028152600401808273ffffffffffffffffffffffffffffffffffffffff1673ffffffffffffffffffffffffffffffffffffffff168152602001915050600060405180830381600087803b15156101b257600080fd5b6102c65a03f115156101c357600080fd5b50505050611eb3806101d66000396000f300606060405260043610610196576000357c0100000000000000000000000000000000000000000000000000000000900463ffffffff168063061303a7146101ef5780631765c9d91461021c5780631f6d494214610245578063273ba6bb146102bd5780632bf04304146102fb57806331198d1914610355578063412664ae1461039757806341566585146103f1578063463c693a1461042a578063518ab2a81461043f5780635e6911af146104685780636beabed4146104955780636eb21929146104aa57806371007509146104d757806373f42561146104ec5780638620410b146105195780638aabe700146105425780638da5cb5b1461057b578063a8583346146105d0578063ae814638146105f9578063b071cbe614610622578063b518ac3c1461064b578063c040e6b81461068f578063c2507ac1146106b8578063c8456bc0146106ef578063c888a8c71461072a578063d12f69381461073f578063d8b66ae1146107cd578063e666862f1461087f578063f2fde38b146108bd578063f89be593146108f6578063fc0c546a1461091f575b635bad44d0421015156101a857600080fd5b42600860010154111515156101bc57600080fd5b426008600201541115156101cf57600080fd5b6000600860000154141515156101e457600080fd5b6101ed33610974565b005b34156101fa57600080fd5b6102026109e1565b604051808215151515815260200191505060405180910390f35b341561022757600080fd5b61022f6109f4565b6040518082815260200191505060405180910390f35b341561025057600080fd5b61027c600480803573ffffffffffffffffffffffffffffffffffffffff16906020019091905050610a2b565b604051808781526020018615151515815260200185151515158152602001848152602001838152602001828152602001965050505050505060405180910390f35b34156102c857600080fd5b6102d0610a81565b6040518085815260200184815260200183815260200182815260200194505050505060405180910390f35b341561030657600080fd5b610353600480803590602001908201803590602001908080602002602001604051908101604052809392919081815260200183836020028082843782019150505050505091905050610a9f565b005b341561036057600080fd5b610395600480803573ffffffffffffffffffffffffffffffffffffffff16906020019091908035906020019091905050610b3b565b005b34156103a257600080fd5b6103d7600480803573ffffffffffffffffffffffffffffffffffffffff16906020019091908035906020019091905050610bf5565b604051808215151515815260200191505060405180910390f35b34156103fc57600080fd5b610428600480803573ffffffffffffffffffffffffffffffffffffffff16906020019091905050610d75565b005b341561043557600080fd5b61043d610ddc565b005b341561044a57600080fd5b610452610f41565b6040518082815260200191505060405180910390f35b341561047357600080fd5b61047b610f47565b604051808215151515815260200191505060405180910390f35b34156104a057600080fd5b6104a8610f5a565b005b34156104b557600080fd5b6104bd6110a0565b604051808215151515815260200191505060405180910390f35b34156104e257600080fd5b6104ea6110b3565b005b34156104f757600080fd5b6104ff6110be565b604051808215151515815260200191505060405180910390f35b341561052457600080fd5b61052c6110d1565b6040518082815260200191505060405180910390f35b341561054d57600080fd5b610579600480803573ffffffffffffffffffffffffffffffffffffffff169060200190919050506110d7565b005b341561058657600080fd5b61058e61113e565b604051808273ffffffffffffffffffffffffffffffffffffffff1673ffffffffffffffffffffffffffffffffffffffff16815260200191505060405180910390f35b34156105db57600080fd5b6105e3611163565b6040518082815260200191505060405180910390f35b341561060457600080fd5b61060c611170565b6040518082815260200191505060405180910390f35b341561062d57600080fd5b610635611178565b6040518082815260200191505060405180910390f35b341561065657600080fd5b6106756004808035906020019091908035906020019091905050611187565b604051808215151515815260200191505060405180910390f35b341561069a57600080fd5b6106a261122d565b6040518082815260200191505060405180910390f35b34156106c357600080fd5b6106d96004808035906020019091905050611233565b6040518082815260200191505060405180910390f35b34156106fa57600080fd5b6107106004808035906020019091905050611245565b604051808215151515815260200191505060405180910390f35b341561073557600080fd5b61073d611309565b005b341561074a57600080fd5b610752611380565b6040518080602001828103825283818151815260200191508051906020019080838360005b83811015610792578082015181840152602081019050610777565b50505050905090810190601f1680156107bf5780820380516001836020036101000a031916815260200191505b509250505060405180910390f35b34156107d857600080fd5b61086560048080359060200190820180359060200190808060200260200160405190810160405280939291908181526020018383602002808284378201915050505050509190803590602001908201803590602001908080602002602001604051908101604052809392919081815260200183836020028082843782019150505050505091905050611574565b604051808215151515815260200191505060405180910390f35b341561088a57600080fd5b6108bb6004808035906020019091908035906020019091908035906020019091908035906020019091905050611661565b005b34156108c857600080fd5b6108f4600480803573ffffffffffffffffffffffffffffffffffffffff16906020019091905050611752565b005b341561090157600080fd5b6109096118a7565b6040518082815260200191505060405180910390f35b341561092a57600080fd5b6109326118b6565b604051808273ffffffffffffffffffffffffffffffffffffffff1673ffffffffffffffffffffffffffffffffffffffff16815260200191505060405180910390f35b600073ffffffffffffffffffffffffffffffffffffffff168173ffffffffffffffffffffffffffffffffffffffff16141515156109b057600080fd5b600034141515156109c057600080fd5b662386f26fc1000034101515156109d657600080fd5b6109de6118dc565b50565b600660029054906101000a900460ff1681565b600080610a22610a0e6008600001546008600301546119bd565b6008600001546119ed90919063ffffffff16565b90508091505090565b60076020528060005260406000206000915090508060000154908060010160009054906101000a900460ff16908060010160019054906101000a900460ff16908060020154908060030154908060040154905086565b60088060000154908060010154908060020154908060030154905084565b60008060009054906101000a900473ffffffffffffffffffffffffffffffffffffffff1673ffffffffffffffffffffffffffffffffffffffff163373ffffffffffffffffffffffffffffffffffffffff16141515610afc57600080fd5b600090505b8151811015610b3757610b2a8282815181101515610b1b57fe5b90602001906020020151611a06565b8080600101915050610b01565b5050565b6000809054906101000a900473ffffffffffffffffffffffffffffffffffffffff1673ffffffffffffffffffffffffffffffffffffffff163373ffffffffffffffffffffffffffffffffffffffff16141515610b9657600080fd5b600660009054906101000a900460ff161515610bb157600080fd5b8173ffffffffffffffffffffffffffffffffffffffff166108fc829081150290604051600060405180830381858888f193505050501515610bf157600080fd5b5050565b60008060009054906101000a900473ffffffffffffffffffffffffffffffffffffffff1673ffffffffffffffffffffffffffffffffffffffff163373ffffffffffffffffffffffffffffffffffffffff16141515610c5257600080fd5b60008373ffffffffffffffffffffffffffffffffffffffff1614151515610c7857600080fd5b600160009054906101000a900473ffffffffffffffffffffffffffffffffffffffff1673ffffffffffffffffffffffffffffffffffffffff1663a9059cbb84846000604051602001526040518363ffffffff167c0100000000000000000000000000000000000000000000000000000000028152600401808373ffffffffffffffffffffffffffffffffffffffff1673ffffffffffffffffffffffffffffffffffffffff16815260200182815260200192505050602060405180830381600087803b1515610d4557600080fd5b6102c65a03f11515610d5657600080fd5b505050604051805190501515610d6b57600080fd5b6001905092915050565b6000809054906101000a900473ffffffffffffffffffffffffffffffffffffffff1673ffffffffffffffffffffffffffffffffffffffff163373ffffffffffffffffffffffffffffffffffffffff16141515610dd057600080fd5b610dd981611a06565b50565b600080635bad44d042111515610df157600080fd5b600660029054906101000a900460ff161515610e0c57600080fd5b6000600760003373ffffffffffffffffffffffffffffffffffffffff1673ffffffffffffffffffffffffffffffffffffffff16815260200190815260200160002060020154111515610e5d57600080fd5b600760003373ffffffffffffffffffffffffffffffffffffffff1673ffffffffffffffffffffffffffffffffffffffff168152602001908152602001600020915081600201549050600082600201819055503373ffffffffffffffffffffffffffffffffffffffff166108fc829081150290604051600060405180830381858888f193505050501515610eef57600080fd5b3373ffffffffffffffffffffffffffffffffffffffff167fd7dee2702d63ad89917b6a4da9981c90c4d24f8c2bdfd64c604ecae57d8d0651826040518082815260200191505060405180910390a25050565b60035481565b600660019054906101000a900460ff1681565b635bad44d042111515610f6c57600080fd5b600660039054906101000a900460ff16151515610f8857600080fd5b600660019054906101000a900460ff16151515610fa457600080fd5b600160009054906101000a900473ffffffffffffffffffffffffffffffffffffffff1673ffffffffffffffffffffffffffffffffffffffff166342966c686005546040518263ffffffff167c010000000000000000000000000000000000000000000000000000000002815260040180828152602001915050600060405180830381600087803b151561103657600080fd5b6102c65a03f1151561104757600080fd5b5050506001600660036101000a81548160ff0219169083151502179055507fd83c63197e8e676d80ab0122beba9a9d20f3828839e9a1d6fe81d242e9cd7e6e6005546040518082815260200191505060405180910390a1565b600660009054906101000a900460ff1681565b6110bc33611abd565b565b600660039054906101000a900460ff1681565b60045481565b6000809054906101000a900473ffffffffffffffffffffffffffffffffffffffff1673ffffffffffffffffffffffffffffffffffffffff163373ffffffffffffffffffffffffffffffffffffffff1614151561113257600080fd5b61113b81611abd565b50565b6000809054906101000a900473ffffffffffffffffffffffffffffffffffffffff1681565b6000600860000154905090565b635bad44d081565b6a295be96e6406697200000081565b60008060009054906101000a900473ffffffffffffffffffffffffffffffffffffffff1673ffffffffffffffffffffffffffffffffffffffff163373ffffffffffffffffffffffffffffffffffffffff161415156111e457600080fd5b60008314156111f257600192505b600082141561120057600191505b61121d82670de0b6b3a76400008502611b6690919063ffffffff16565b6004819055506001905092915050565b60025481565b600061123e82611b81565b9050919050565b60008060009054906101000a900473ffffffffffffffffffffffffffffffffffffffff1673ffffffffffffffffffffffffffffffffffffffff163373ffffffffffffffffffffffffffffffffffffffff161415156112a257600080fd5b6080604051908101604052806008600001548152602001600860010154815260200160086002015481526020018381525060086000820151816000015560208201518160010155604082015181600201556060820151816003015590505060019050919050565b635bad44d04211151561131b57600080fd5b600660009054906101000a900460ff1615151561133757600080fd5b6001600660026101000a81548160ff0219169083151502179055507f599d8e5a83cffb867d051598c4d70e805d59802d8081c1c7d6dffc5b6aca2b8960405160405180910390a1565b611388611e73565b600254600014156113d0576040805190810160405280601781526020017f49434f20646f6573206e6f74207374617274207965742e0000000000000000008152509050611571565b60025460011415611418576040805190810160405280600c81526020017f507269766174652073616c6500000000000000000000000000000000000000008152509050611571565b60025460021415611460576040805190810160405280600881526020017f5072652073616c650000000000000000000000000000000000000000000000008152509050611571565b600254600314156114a8576040805190810160405280600f81526020017f49434f20666972737420737461676500000000000000000000000000000000008152509050611571565b600254600414156114f0576040805190810160405280601081526020017f49434f207365636f6e64207374616765000000000000000000000000000000008152509050611571565b60025460051415611538576040805190810160405280600f81526020017f49434f20746869726420737461676500000000000000000000000000000000008152509050611571565b6040805190810160405280601381526020017f43726f776473616c652066696e6973686564210000000000000000000000000081525090505b90565b6000806000809054906101000a900473ffffffffffffffffffffffffffffffffffffffff1673ffffffffffffffffffffffffffffffffffffffff163373ffffffffffffffffffffffffffffffffffffffff161415156115d257600080fd5b600084511115156115e257600080fd5b600083511115156115f257600080fd5b8251845114151561160257600080fd5b600090505b835181101561165657611648848281518110151561162157fe5b90602001906020020151848381518110151561163957fe5b90602001906020020151610bf5565b508080600101915050611607565b600191505092915050565b6000809054906101000a900473ffffffffffffffffffffffffffffffffffffffff1673ffffffffffffffffffffffffffffffffffffffff163373ffffffffffffffffffffffffffffffffffffffff161415156116bc57600080fd5b600554670de0b6b3a76400008502111515156116d757600080fd5b608060405190810160405280670de0b6b3a764000086028152602001848152602001838152602001828152506008600082015181600001556020820151816001015560408201518160020155606082015181600301559050506117466001600254611be090919063ffffffff16565b60028190555050505050565b6000809054906101000a900473ffffffffffffffffffffffffffffffffffffffff1673ffffffffffffffffffffffffffffffffffffffff163373ffffffffffffffffffffffffffffffffffffffff161415156117ad57600080fd5b600073ffffffffffffffffffffffffffffffffffffffff168173ffffffffffffffffffffffffffffffffffffffff16141515156117e957600080fd5b8073ffffffffffffffffffffffffffffffffffffffff166000809054906101000a900473ffffffffffffffffffffffffffffffffffffffff1673ffffffffffffffffffffffffffffffffffffffff167f8be0079c531659141344cd1fd0a4f28419497f9722a3daafe3b4186f6b6457e060405160405180910390a3806000806101000a81548173ffffffffffffffffffffffffffffffffffffffff021916908373ffffffffffffffffffffffffffffffffffffffff16021790555050565b6a0152d02c7e14af6800000081565b600160009054906101000a900473ffffffffffffffffffffffffffffffffffffffff1681565b6000600760003373ffffffffffffffffffffffffffffffffffffffff1673ffffffffffffffffffffffffffffffffffffffff1681526020019081526020016000209050611936348260000154611be090919063ffffffff16565b8160000181905550611955348260020154611be090919063ffffffff16565b8160020181905550600015158160010160019054906101000a900460ff16151514156119995760018160010160016101000a81548160ff0219169083151502179055505b8060010160009054906101000a900460ff16156119ba576119b933611bfe565b5b50565b60006119e560646119d78486611e1690919063ffffffff16565b611b6690919063ffffffff16565b905092915050565b60008282111515156119fb57fe5b818303905092915050565b6000600760008373ffffffffffffffffffffffffffffffffffffffff1673ffffffffffffffffffffffffffffffffffffffff168152602001908152602001600020905060018160010160006101000a81548160ff021916908315150217905550600015158160010160019054906101000a900460ff1615151415611aa25760018160010160016101000a81548160ff0219169083151502179055505b600081600001541115611ab957611ab882611bfe565b5b5050565b600080600760008473ffffffffffffffffffffffffffffffffffffffff1673ffffffffffffffffffffffffffffffffffffffff168152602001908152602001600020915081600001549050600081111515611b1757600080fd5b600082600001819055508273ffffffffffffffffffffffffffffffffffffffff166108fc829081150290604051600060405180830381858888f193505050501515611b6157600080fd5b505050565b6000808284811515611b7457fe5b0490508091505092915050565b600080611ba3600454670de0b6b3a76400008502611b6690919063ffffffff16565b9050600081111515611bb457600080fd5b611bd5611bc6826008600301546119bd565b82611be090919063ffffffff16565b905080915050919050565b6000808284019050838110151515611bf457fe5b8091505092915050565b6000806000600760008573ffffffffffffffffffffffffffffffffffffffff1673ffffffffffffffffffffffffffffffffffffffff168152602001908152602001600020925082600001549150611c5482611b81565b905060025460011415611c9957611c90611c7d670de0b6b3a764000084026008600301546119bd565b8460040154611be090919063ffffffff16565b83600401819055505b611ca281611e51565b1515611cad57600080fd5b600081111515611cbc57600080fd5b60008360000181905550611cdd818460030154611be090919063ffffffff16565b8360030181905550611cfa81600354611be090919063ffffffff16565b600381905550611d15816005546119ed90919063ffffffff16565b600581905550611d33816008600001546119ed90919063ffffffff16565b6008600001819055506a0152d02c7e14af6800000060035410158015611d665750600660009054906101000a900460ff16155b15611db3576001600660006101000a81548160ff0219169083151502179055507ffdb05b528f2dac23ab38f2ec9c3a79a5960a50239b3c90882fdd244e3b20477a60405160405180910390a15b6a295be96e640669720000006003541415611e10576001600660016101000a81548160ff0219169083151502179055507f5be90159e4545cc658d8cad2a258389b64e1afafc55741b601a6e455ef00cccb60405160405180910390a15b50505050565b6000806000841415611e2b5760009150611e4a565b8284029050828482811515611e3c57fe5b04141515611e4657fe5b8091505b5092915050565b6000816008600001541015611e695760009050611e6e565b600190505b919050565b6020604051908101604052806000815250905600a165627a7a723058204e2d481e2f3401ed0a8e1d7786964fe84f5a40883b47d0601122baf19199de820029",
  "source": "pragma solidity ^0.4.18;\r\n\r\nimport \"./SafeMath.sol\";\r\nimport \"./Ownable.sol\";\r\nimport \"./CaleroToken.sol\";\r\n\r\n/**\r\n * @title CaleroICO\r\n */\r\ncontract CaleroICO is Ownable {\r\n    using SafeMath for uint256;\r\n\r\n    CaleroToken public token; // The token which being sold\r\n\r\n    uint256 public stage = 0; // ICO stage (privat sale, pre sale, main sale)\r\n    uint256 public tokensSold = 0; // Total value of sold tokens\r\n    uint256 public buyPrice = 0.001 ether; // 1 CLE = 0.001ETH or 1 ETH ~ 1000 CLE\r\n   \r\n    uint256 public constant ICOdeadLine = 1538082000; // ICO finish time -  28 September 2018, 00:00:00\r\n\r\n    uint256 public constant softcap = 1600000 ether; // Soft Cap = 1,600,000 CLE. Its constant and non-changeable number\r\n    uint256 public constant hardcap = 50000000 ether; //  Hard Cap = 50,000,000 CLE. Its is constant and non-changeable number\r\n\r\n    uint256 availableTokens = hardcap;\r\n\r\n    bool public softcapReached;\r\n    bool public hardcapReached;\r\n    bool public refundIsAvailable;\r\n    bool public burned;\r\n\r\n    event SoftcapReached();\r\n    event HardcapReached();\r\n    \r\n    event RefundsEnabled();\r\n    event Refunded(address indexed beneficiary, uint256 weiAmount);\r\n    event Burned(uint256 amount);\r\n   \r\n    mapping(address => Contributor) public contributors;\r\n\r\n    struct Contributor {\r\n        uint256 eth;                // ETH on this wallet \r\n        bool whitelisted;           // White listed true/false\r\n        bool created;               // Is contributor added\r\n        uint256 ethHistory;         // All deposited ETH history\r\n        uint256 tokensPurchasedDuringICO;  // Tokens puchuased during ICO\r\n        uint256 bonusGetDuringPrivateSale;  // Bonus purchuased during private sale\r\n    }\r\n\r\n    struct Ico {\r\n        uint256 tokens;    // Tokens in crowdsale\r\n        uint256 startDate; // Date when crowsale will be starting, after its starting that property will be the 0\r\n        uint256 endDate;   // Date when crowdsale will be stop\r\n        uint256 discount;  // Discount\r\n    }\r\n\r\n    Ico public ICO;\r\n\r\n    modifier afterDeadline {\r\n        require(now > ICOdeadLine);\r\n        _;\r\n    }\r\n\r\n    /**\r\n     * @dev Constructor\r\n     */\r\n    function CaleroICO(address _contractAddress) Ownable() public {\r\n        require(_contractAddress != 0x0);\r\n        \r\n        token = CaleroToken(_contractAddress);\r\n        token.addDistributionContract(this);\r\n    }\r\n\r\n    /**\r\n     * @dev fallback function\r\n     */\r\n    function () external payable {\r\n        require(now < ICOdeadLine);\r\n        require(ICO.startDate <= now);\r\n        require(ICO.endDate > now);\r\n        require(ICO.tokens != 0);\r\n\r\n        secureChecks(msg.sender);\r\n    }\r\n\r\n    /**\r\n     * @dev token purchase\r\n     * @param _contributor Address performing the token purchase\r\n     */\r\n    function secureChecks(address _contributor) internal {\r\n        require(_contributor != address(0));\r\n        require(msg.value != 0);\r\n        require(msg.value >= ( 1 ether / 100));\r\n\r\n        _forwardFunds();\r\n    }\r\n\r\n    function _forwardFunds() internal {\r\n        Contributor storage contributor = contributors[msg.sender];\r\n\r\n        contributor.eth = contributor.eth.add(msg.value);\r\n        contributor.ethHistory = contributor.ethHistory.add(msg.value);\r\n\r\n        if (contributor.created == false) {\r\n            contributor.created = true;\r\n        }\r\n\r\n        if (contributor.whitelisted) {\r\n            _deliverTokens(msg.sender);\r\n        }\r\n    }\r\n\r\n    function _deliverTokens(address _contributor) internal {\r\n        Contributor storage contributor = contributors[_contributor];\r\n\r\n        uint256 amountEth = contributor.eth;\r\n        uint256 amountToken = _getTokenAmount(amountEth);\r\n\r\n        if (1 == stage) {         \r\n            contributor.bonusGetDuringPrivateSale = (contributor.bonusGetDuringPrivateSale).add(_withDiscount(amountEth * 1 ether, ICO.discount));\r\n            // Bonus tokens (for private sale buyers) will lock 2 more months after crowdsale finish\r\n        }\r\n\r\n        require(confirmSell(amountToken));\r\n        require(amountToken > 0);\r\n\r\n        contributor.eth = 0;\r\n        contributor.tokensPurchasedDuringICO = (contributor.tokensPurchasedDuringICO).add(amountToken);\r\n        \r\n        tokensSold = tokensSold.add(amountToken);\r\n        availableTokens = availableTokens.sub(amountToken);\r\n        ICO.tokens = ICO.tokens.sub(amountToken);\r\n\r\n        // token.transfer(_contributor, amountToken); To change\r\n\r\n        if ((tokensSold >= softcap) && !softcapReached) {\r\n            softcapReached = true;\r\n            SoftcapReached();\r\n        }\r\n\r\n        if (tokensSold == hardcap) {\r\n            hardcapReached = true;\r\n            HardcapReached();\r\n        }\r\n\r\n    }\r\n\r\n    function confirmSell(uint256 _amount) internal view returns(bool) {\r\n        if (ICO.tokens < _amount) {\r\n            return false;\r\n        }\r\n\r\n        return true;\r\n    }\r\n\r\n    function crowdSaleStatus() public constant returns (string) {\r\n        if (0 == stage) {\r\n            return \"ICO does not start yet.\";\r\n        }\r\n        else if (1 == stage) {\r\n            return \"Private sale\";\r\n        }\r\n        else if(2 == stage) {\r\n            return \"Pre sale\";\r\n        }\r\n        else if (3 == stage) {\r\n            return \"ICO first stage\";\r\n        }\r\n        else if (4 == stage) {\r\n            return \"ICO second stage\";\r\n        }\r\n        else if (5 == stage) {\r\n            return \"ICO third stage\";\r\n        }\r\n\r\n        return \"Crowdsale finished!\";\r\n    }\r\n\r\n    function _changeDiscount(uint256 _discount) public onlyOwner returns (bool) {\r\n        ICO = Ico (ICO.tokens, ICO.startDate, ICO.endDate, _discount);\r\n        return true;\r\n    }\r\n\r\n    function _changeRate(uint256 _numerator, uint256 _denominator) public onlyOwner returns (bool success) {\r\n        if (_numerator == 0) _numerator = 1;\r\n        if (_denominator == 0) _denominator = 1;\r\n\r\n        buyPrice = (_numerator * 1 ether).div(_denominator);\r\n\r\n        return true;\r\n    }\r\n\r\n    /**\r\n     * @dev the way in which ether is converted to tokens.\r\n     * @param _weiAmount Value in wei to be converted into tokens\r\n     * @return Number of tokens that can be purchased with the specified _weiAmount\r\n     */\r\n    function _getTokenAmount(uint256 _weiAmount) internal view returns (uint256) {\r\n        uint256 weiAmount = (_weiAmount * 1 ether).div(buyPrice);\r\n        require(weiAmount > 0);\r\n        \r\n        weiAmount = weiAmount.add(_withDiscount(weiAmount, ICO.discount));\r\n        return weiAmount;\r\n    }\r\n\r\n    function _withDiscount(uint256 _amount, uint _percent) internal pure returns (uint256){\r\n        return (_amount.mul(_percent)).div(100);\r\n    }\r\n\r\n    function _refundTokens(address _contributor) internal {\r\n        Contributor storage contributor = contributors[_contributor];\r\n\r\n        uint256 ethAmount = contributor.eth;\r\n        require(ethAmount > 0);\r\n\r\n        contributor.eth = 0;\r\n        _contributor.transfer(ethAmount);\r\n    }\r\n\r\n    function _whitelistAddress(address _contributor) internal {\r\n        Contributor storage contributor = contributors[_contributor];\r\n\r\n        contributor.whitelisted = true;\r\n        \r\n        if (contributor.created == false) {\r\n            contributor.created = true;\r\n        }\r\n        \r\n        //Auto deliver tokens\r\n        if (contributor.eth > 0) {\r\n            _deliverTokens(_contributor);\r\n        }\r\n    }\r\n\r\n    /**********************owner*************************/\r\n    function whitelistAddress(address _contributor) public onlyOwner {\r\n        _whitelistAddress(_contributor);\r\n    }\r\n    \r\n    function whitelistAddresses(address[] _contributors) public onlyOwner {\r\n        for (uint256 i = 0; i < _contributors.length; i++) {\r\n            _whitelistAddress(_contributors[i]);\r\n        }\r\n    }\r\n\r\n    function transferEthFromContract(address _to, uint256 amount) public onlyOwner {\r\n        require(softcapReached);\r\n        _to.transfer(amount);\r\n    }\r\n \r\n    // Send Tokens from smart contract (only owner)\r\n    function sendToken(address _address, uint256 _amountTokens) public onlyOwner returns(bool success){\r\n        require(_address != 0x0);\r\n        require(token.transfer(_address, _amountTokens));\r\n\r\n        return true;\r\n    }\r\n\r\n    function sendTokens(address[] _addresses, uint256[] _amountTokens) public onlyOwner returns(bool success) {\r\n        require(_addresses.length > 0);\r\n        require(_amountTokens.length > 0);\r\n        require(_addresses.length  == _amountTokens.length);\r\n\r\n        for (uint256 i = 0; i < _addresses.length; i++) {\r\n            sendToken(_addresses[i], _amountTokens[i]);\r\n        }\r\n\r\n        return true;\r\n    }\r\n\r\n    function startCrowd(uint256 _tokens, uint256 _startDate, uint256 _endDate, uint256 _discount) public onlyOwner {\r\n        require(( _tokens * 1 ether ) <= availableTokens);\r\n        ICO = Ico (_tokens * 1 ether, _startDate, _endDate, _discount); // _startDate + _endDate * 1 days\r\n        stage = stage.add(1);\r\n    }\r\n\r\n    /**\r\n     * @dev Refound tokens. For owner\r\n     */\r\n    function refundTokensForAddress(address _contributor) public onlyOwner {\r\n        _refundTokens(_contributor);\r\n    }\r\n\r\n    function burnAfterICO() public afterDeadline {\r\n        require(!burned);\r\n        require(!hardcapReached);\r\n\r\n        token.burn(availableTokens);\r\n        burned = true;\r\n\r\n        Burned(availableTokens);\r\n    }\r\n\r\n    /**********************contributor*************************/\r\n  \r\n    /**\r\n    * @dev Refound tokens. For contributors\r\n    */\r\n    function refundTokens() public {\r\n        _refundTokens(msg.sender);\r\n    }\r\n\r\n    /**\r\n     * @dev Returns tokens according to rate\r\n     */\r\n    function getTokenAmount(uint256 _weiAmount) public view returns (uint256) {\r\n        return _getTokenAmount(_weiAmount);\r\n    }\r\n    \r\n    /**\r\n     * @dev Returns avaialble tokens for current phase\r\n     */\r\n    function getPhaseAvailableTokens() public view returns (uint256) {\r\n        return ICO.tokens;\r\n    }\r\n    \r\n    /**\r\n     * @dev Returns available tokens for current phase for sale\r\n     */\r\n    function getPhaseBuyableTokens() public view returns (uint256) {\r\n        uint256 tokensForBuy = ICO.tokens.sub(_withDiscount(ICO.tokens, ICO.discount));\r\n        return tokensForBuy;\r\n    }\r\n\r\n    function enableRefundAfterICO() public afterDeadline {\r\n        require(!softcapReached);\r\n\r\n        refundIsAvailable = true;\r\n\r\n        RefundsEnabled();\r\n    }\r\n\r\n    function getRefundAfterICO() public afterDeadline {\r\n        require(refundIsAvailable);\r\n        require(contributors[msg.sender].ethHistory > 0);\r\n\r\n        Contributor storage contributor = contributors[msg.sender];\r\n\r\n        uint256 depositedValue = contributor.ethHistory;\r\n        contributor.ethHistory = 0;\r\n\r\n        msg.sender.transfer(depositedValue);\r\n\r\n        Refunded(msg.sender, depositedValue);\r\n    }\r\n    \r\n\r\n}",
  "sourcePath": "C:\\Users\\home\\Desktop\\TokenSmartContract\\contracts\\CaleroICO.sol",
  "compiler": {
    "name": "solc",
    "version": "0.4.19+commit.c4cbbb05.Emscripten.clang"
  },
  "schemaVersion": "2.0.0",
  "updatedAt": "2018-04-07T16:03:58.426Z"
}