{
  "contractName": "CaleroController",
  "abi": [
    {
      "constant": true,
      "inputs": [
        {
          "name": "",
          "type": "uint256"
        }
      ],
      "name": "owners",
      "outputs": [
        {
          "name": "",
          "type": "address"
        }
      ],
      "payable": false,
      "stateMutability": "view",
      "type": "function"
    },
    {
      "constant": true,
      "inputs": [],
      "name": "allOperationsCount",
      "outputs": [
        {
          "name": "",
          "type": "uint256"
        }
      ],
      "payable": false,
      "stateMutability": "view",
      "type": "function"
    },
    {
      "constant": true,
      "inputs": [],
      "name": "howManyOwnersDecide",
      "outputs": [
        {
          "name": "",
          "type": "uint256"
        }
      ],
      "payable": false,
      "stateMutability": "view",
      "type": "function"
    },
    {
      "constant": true,
      "inputs": [
        {
          "name": "wallet",
          "type": "address"
        }
      ],
      "name": "isOwner",
      "outputs": [
        {
          "name": "",
          "type": "bool"
        }
      ],
      "payable": false,
      "stateMutability": "view",
      "type": "function"
    },
    {
      "constant": true,
      "inputs": [
        {
          "name": "",
          "type": "uint256"
        }
      ],
      "name": "allOperations",
      "outputs": [
        {
          "name": "",
          "type": "bytes32"
        }
      ],
      "payable": false,
      "stateMutability": "view",
      "type": "function"
    },
    {
      "constant": true,
      "inputs": [
        {
          "name": "",
          "type": "bytes32"
        }
      ],
      "name": "votesMaskByOperation",
      "outputs": [
        {
          "name": "",
          "type": "uint256"
        }
      ],
      "payable": false,
      "stateMutability": "view",
      "type": "function"
    },
    {
      "constant": true,
      "inputs": [],
      "name": "ico",
      "outputs": [
        {
          "name": "",
          "type": "address"
        }
      ],
      "payable": false,
      "stateMutability": "view",
      "type": "function"
    },
    {
      "constant": false,
      "inputs": [
        {
          "name": "operation",
          "type": "bytes32"
        }
      ],
      "name": "cancelPending",
      "outputs": [],
      "payable": false,
      "stateMutability": "nonpayable",
      "type": "function"
    },
    {
      "constant": true,
      "inputs": [
        {
          "name": "",
          "type": "bytes32"
        }
      ],
      "name": "votesCountByOperation",
      "outputs": [
        {
          "name": "",
          "type": "uint256"
        }
      ],
      "payable": false,
      "stateMutability": "view",
      "type": "function"
    },
    {
      "constant": true,
      "inputs": [],
      "name": "ownersGeneration",
      "outputs": [
        {
          "name": "",
          "type": "uint256"
        }
      ],
      "payable": false,
      "stateMutability": "view",
      "type": "function"
    },
    {
      "constant": true,
      "inputs": [],
      "name": "ownersCount",
      "outputs": [
        {
          "name": "",
          "type": "uint256"
        }
      ],
      "payable": false,
      "stateMutability": "view",
      "type": "function"
    },
    {
      "constant": true,
      "inputs": [
        {
          "name": "",
          "type": "address"
        }
      ],
      "name": "ownersIndices",
      "outputs": [
        {
          "name": "",
          "type": "uint256"
        }
      ],
      "payable": false,
      "stateMutability": "view",
      "type": "function"
    },
    {
      "constant": false,
      "inputs": [
        {
          "name": "newOwners",
          "type": "address[]"
        },
        {
          "name": "newHowManyOwnersDecide",
          "type": "uint256"
        }
      ],
      "name": "transferOwnershipWithHowMany",
      "outputs": [],
      "payable": false,
      "stateMutability": "nonpayable",
      "type": "function"
    },
    {
      "constant": true,
      "inputs": [
        {
          "name": "",
          "type": "bytes32"
        }
      ],
      "name": "allOperationsIndicies",
      "outputs": [
        {
          "name": "",
          "type": "uint256"
        }
      ],
      "payable": false,
      "stateMutability": "view",
      "type": "function"
    },
    {
      "constant": true,
      "inputs": [],
      "name": "token",
      "outputs": [
        {
          "name": "",
          "type": "address"
        }
      ],
      "payable": false,
      "stateMutability": "view",
      "type": "function"
    },
    {
      "inputs": [],
      "payable": false,
      "stateMutability": "nonpayable",
      "type": "constructor"
    },
    {
      "payable": true,
      "stateMutability": "payable",
      "type": "fallback"
    },
    {
      "anonymous": false,
      "inputs": [
        {
          "indexed": false,
          "name": "previousOwners",
          "type": "address[]"
        },
        {
          "indexed": false,
          "name": "howManyOwnersDecide",
          "type": "uint256"
        },
        {
          "indexed": false,
          "name": "newOwners",
          "type": "address[]"
        },
        {
          "indexed": false,
          "name": "newHowManyOwnersDecide",
          "type": "uint256"
        }
      ],
      "name": "OwnershipTransferred",
      "type": "event"
    },
    {
      "anonymous": false,
      "inputs": [
        {
          "indexed": false,
          "name": "operation",
          "type": "bytes32"
        },
        {
          "indexed": false,
          "name": "howMany",
          "type": "uint256"
        },
        {
          "indexed": false,
          "name": "ownersCount",
          "type": "uint256"
        },
        {
          "indexed": false,
          "name": "proposer",
          "type": "address"
        }
      ],
      "name": "OperationCreated",
      "type": "event"
    },
    {
      "anonymous": false,
      "inputs": [
        {
          "indexed": false,
          "name": "operation",
          "type": "bytes32"
        },
        {
          "indexed": false,
          "name": "votes",
          "type": "uint256"
        },
        {
          "indexed": false,
          "name": "howMany",
          "type": "uint256"
        },
        {
          "indexed": false,
          "name": "ownersCount",
          "type": "uint256"
        },
        {
          "indexed": false,
          "name": "upvoter",
          "type": "address"
        }
      ],
      "name": "OperationUpvoted",
      "type": "event"
    },
    {
      "anonymous": false,
      "inputs": [
        {
          "indexed": false,
          "name": "operation",
          "type": "bytes32"
        },
        {
          "indexed": false,
          "name": "howMany",
          "type": "uint256"
        },
        {
          "indexed": false,
          "name": "ownersCount",
          "type": "uint256"
        },
        {
          "indexed": false,
          "name": "performer",
          "type": "address"
        }
      ],
      "name": "OperationPerformed",
      "type": "event"
    },
    {
      "anonymous": false,
      "inputs": [
        {
          "indexed": false,
          "name": "operation",
          "type": "bytes32"
        },
        {
          "indexed": false,
          "name": "votes",
          "type": "uint256"
        },
        {
          "indexed": false,
          "name": "ownersCount",
          "type": "uint256"
        },
        {
          "indexed": false,
          "name": "downvoter",
          "type": "address"
        }
      ],
      "name": "OperationDownvoted",
      "type": "event"
    },
    {
      "anonymous": false,
      "inputs": [
        {
          "indexed": false,
          "name": "operation",
          "type": "bytes32"
        },
        {
          "indexed": false,
          "name": "lastCanceller",
          "type": "address"
        }
      ],
      "name": "OperationCancelled",
      "type": "event"
    },
    {
      "constant": false,
      "inputs": [],
      "name": "initCrowdsale",
      "outputs": [],
      "payable": false,
      "stateMutability": "nonpayable",
      "type": "function"
    },
    {
      "constant": false,
      "inputs": [
        {
          "name": "_tokens",
          "type": "uint256"
        },
        {
          "name": "_bonus",
          "type": "uint256"
        },
        {
          "name": "_startDate",
          "type": "uint256"
        },
        {
          "name": "_finishDate",
          "type": "uint256"
        }
      ],
      "name": "startPhase",
      "outputs": [],
      "payable": false,
      "stateMutability": "nonpayable",
      "type": "function"
    },
    {
      "constant": false,
      "inputs": [],
      "name": "finalizeCrowdsale",
      "outputs": [],
      "payable": false,
      "stateMutability": "nonpayable",
      "type": "function"
    },
    {
      "constant": false,
      "inputs": [
        {
          "name": "_contributor",
          "type": "address"
        },
        {
          "name": "_amount",
          "type": "uint256"
        }
      ],
      "name": "transferEther",
      "outputs": [],
      "payable": false,
      "stateMutability": "nonpayable",
      "type": "function"
    },
    {
      "constant": false,
      "inputs": [
        {
          "name": "_contributor",
          "type": "address"
        },
        {
          "name": "_amount",
          "type": "uint256"
        }
      ],
      "name": "transferTokensToNonETHBuyers",
      "outputs": [],
      "payable": false,
      "stateMutability": "nonpayable",
      "type": "function"
    },
    {
      "constant": false,
      "inputs": [
        {
          "name": "_token",
          "type": "address"
        },
        {
          "name": "_contributor",
          "type": "address"
        },
        {
          "name": "_amount",
          "type": "uint256"
        }
      ],
      "name": "transferERC20",
      "outputs": [],
      "payable": false,
      "stateMutability": "nonpayable",
      "type": "function"
    },
    {
      "constant": false,
      "inputs": [
        {
          "name": "_target",
          "type": "address"
        }
      ],
      "name": "freezeAccount",
      "outputs": [],
      "payable": false,
      "stateMutability": "nonpayable",
      "type": "function"
    },
    {
      "constant": false,
      "inputs": [
        {
          "name": "_target",
          "type": "address"
        }
      ],
      "name": "unFreezeAccount",
      "outputs": [],
      "payable": false,
      "stateMutability": "nonpayable",
      "type": "function"
    },
    {
      "constant": false,
      "inputs": [],
      "name": "pause",
      "outputs": [],
      "payable": false,
      "stateMutability": "nonpayable",
      "type": "function"
    },
    {
      "constant": false,
      "inputs": [],
      "name": "resume",
      "outputs": [],
      "payable": false,
      "stateMutability": "nonpayable",
      "type": "function"
    },
    {
      "constant": false,
      "inputs": [],
      "name": "killICOContract",
      "outputs": [],
      "payable": false,
      "stateMutability": "nonpayable",
      "type": "function"
    }
  ],
  "bytecode": "0x60806040523480156200001157600080fd5b50600060023390806001815401808255809150509060018203906000526020600020016000909192909190916101000a81548173ffffffffffffffffffffffffffffffffffffffff021916908373ffffffffffffffffffffffffffffffffffffffff160217905550506001600660003373ffffffffffffffffffffffffffffffffffffffff1673ffffffffffffffffffffffffffffffffffffffff168152602001908152602001600020819055506001808190555073__TokenDeployer_________________________63ca9e3d4f6040518163ffffffff167c010000000000000000000000000000000000000000000000000000000002815260040160206040518083038186803b1580156200012757600080fd5b505af41580156200013c573d6000803e3d6000fd5b505050506040513d60208110156200015357600080fd5b8101908080519060200190929190505050905080600a60006101000a81548173ffffffffffffffffffffffffffffffffffffffff021916908373ffffffffffffffffffffffffffffffffffffffff1602179055505061351980620001b86000396000f300608060405260043610610154576000357c0100000000000000000000000000000000000000000000000000000000900463ffffffff168063025e7c2714610156578063046f7da2146101c357806305b1137b146101da5780630bf318a3146102275780630e51d3bf1461023e57806322f2f89a146102555780632f4a81df146102805780632f54bf6e146102ab578063301a9b0914610306578063431ab23314610351578063483a86d21461039a57806353cc2fae146103b1578063568b5915146103f45780635d4522011461043957806377216e36146104905780638456cb59146104dd578063893372ca146104f457806390a53085146105255780639db5dbe41461056a578063b25bb3a7146105d7578063b948854614610602578063cc047a041461062d578063e851834114610684578063ea1a2644146106f4578063f26c159f14610739578063fc0c546a1461077c575b005b34801561016257600080fd5b50610181600480360381019080803590602001909291905050506107d3565b604051808273ffffffffffffffffffffffffffffffffffffffff1673ffffffffffffffffffffffffffffffffffffffff16815260200191505060405180910390f35b3480156101cf57600080fd5b506101d8610811565b005b3480156101e657600080fd5b50610225600480360381019080803573ffffffffffffffffffffffffffffffffffffffff169060200190929190803590602001909291905050506109b9565b005b34801561023357600080fd5b5061023c610b5a565b005b34801561024a57600080fd5b50610253610d02565b005b34801561026157600080fd5b5061026a61113f565b6040518082815260200191505060405180910390f35b34801561028c57600080fd5b5061029561114c565b6040518082815260200191505060405180910390f35b3480156102b757600080fd5b506102ec600480360381019080803573ffffffffffffffffffffffffffffffffffffffff169060200190929190505050611152565b604051808215151515815260200191505060405180910390f35b34801561031257600080fd5b5061034f6004803603810190808035906020019092919080359060200190929190803590602001909291908035906020019092919050505061119d565b005b34801561035d57600080fd5b5061037c6004803603810190808035906020019092919050505061136e565b60405180826000191660001916815260200191505060405180910390f35b3480156103a657600080fd5b506103af611391565b005b3480156103bd57600080fd5b506103f2600480360381019080803573ffffffffffffffffffffffffffffffffffffffff16906020019092919050505061153b565b005b34801561040057600080fd5b5061042360048036038101908080356000191690602001909291905050506117e6565b6040518082815260200191505060405180910390f35b34801561044557600080fd5b5061044e6117fe565b604051808273ffffffffffffffffffffffffffffffffffffffff1673ffffffffffffffffffffffffffffffffffffffff16815260200191505060405180910390f35b34801561049c57600080fd5b506104db600480360381019080803573ffffffffffffffffffffffffffffffffffffffff16906020019092919080359060200190929190505050611824565b005b3480156104e957600080fd5b506104f2611a0f565b005b34801561050057600080fd5b506105236004803603810190808035600019169060200190929190505050611bb7565b005b34801561053157600080fd5b506105546004803603810190808035600019169060200190929190505050611f47565b6040518082815260200191505060405180910390f35b34801561057657600080fd5b506105d5600480360381019080803573ffffffffffffffffffffffffffffffffffffffff169060200190929190803573ffffffffffffffffffffffffffffffffffffffff16906020019092919080359060200190929190505050611f5f565b005b3480156105e357600080fd5b506105ec612207565b6040518082815260200191505060405180910390f35b34801561060e57600080fd5b5061061761220d565b6040518082815260200191505060405180910390f35b34801561063957600080fd5b5061066e600480360381019080803573ffffffffffffffffffffffffffffffffffffffff16906020019092919050505061221a565b6040518082815260200191505060405180910390f35b34801561069057600080fd5b506106f26004803603810190808035906020019082018035906020019080806020026020016040519081016040528093929190818152602001838360200280828437820191505050505050919291929080359060200190929190505050612232565b005b34801561070057600080fd5b506107236004803603810190808035600019169060200190929190505050612a18565b6040518082815260200191505060405180910390f35b34801561074557600080fd5b5061077a600480360381019080803573ffffffffffffffffffffffffffffffffffffffff169060200190929190505050612a30565b005b34801561078857600080fd5b50610791612cdb565b604051808273ffffffffffffffffffffffffffffffffffffffff1673ffffffffffffffffffffffffffffffffffffffff16815260200191505060405180910390f35b6002818154811015156107e257fe5b906000526020600020016000915054906101000a900473ffffffffffffffffffffffffffffffffffffffff1681565b600061081d6001612d01565b156109b657600073ffffffffffffffffffffffffffffffffffffffff16600460009054906101000a900473ffffffffffffffffffffffffffffffffffffffff1673ffffffffffffffffffffffffffffffffffffffff1614905080156108c65733600460006101000a81548173ffffffffffffffffffffffffffffffffffffffff021916908373ffffffffffffffffffffffffffffffffffffffff16021790555060016005819055505b600a60009054906101000a900473ffffffffffffffffffffffffffffffffffffffff1673ffffffffffffffffffffffffffffffffffffffff16633f4ba83a6040518163ffffffff167c0100000000000000000000000000000000000000000000000000000000028152600401600060405180830381600087803b15801561094c57600080fd5b505af1158015610960573d6000803e3d6000fd5b5050505080156109b5576000600460006101000a81548173ffffffffffffffffffffffffffffffffffffffff021916908373ffffffffffffffffffffffffffffffffffffffff16021790555060006005819055505b5b50565b60006109c6600154612d01565b15610b5557600073ffffffffffffffffffffffffffffffffffffffff16600460009054906101000a900473ffffffffffffffffffffffffffffffffffffffff1673ffffffffffffffffffffffffffffffffffffffff161490508015610a705733600460006101000a81548173ffffffffffffffffffffffffffffffffffffffff021916908373ffffffffffffffffffffffffffffffffffffffff1602179055506001546005819055505b600073ffffffffffffffffffffffffffffffffffffffff168373ffffffffffffffffffffffffffffffffffffffff1614151515610aac57600080fd5b60008210151515610abc57600080fd5b8273ffffffffffffffffffffffffffffffffffffffff166108fc839081150290604051600060405180830381858888f19350505050158015610b02573d6000803e3d6000fd5b508015610b54576000600460006101000a81548173ffffffffffffffffffffffffffffffffffffffff021916908373ffffffffffffffffffffffffffffffffffffffff16021790555060006005819055505b5b505050565b6000610b666001612d01565b15610cff57600073ffffffffffffffffffffffffffffffffffffffff16600460009054906101000a900473ffffffffffffffffffffffffffffffffffffffff1673ffffffffffffffffffffffffffffffffffffffff161490508015610c0f5733600460006101000a81548173ffffffffffffffffffffffffffffffffffffffff021916908373ffffffffffffffffffffffffffffffffffffffff16021790555060016005819055505b600b60009054906101000a900473ffffffffffffffffffffffffffffffffffffffff1673ffffffffffffffffffffffffffffffffffffffff16630bf318a36040518163ffffffff167c0100000000000000000000000000000000000000000000000000000000028152600401600060405180830381600087803b158015610c9557600080fd5b505af1158015610ca9573d6000803e3d6000fd5b505050508015610cfe576000600460006101000a81548173ffffffffffffffffffffffffffffffffffffffff021916908373ffffffffffffffffffffffffffffffffffffffff16021790555060006005819055505b5b50565b600080610d10600154612d01565b1561113b57600073ffffffffffffffffffffffffffffffffffffffff16600460009054906101000a900473ffffffffffffffffffffffffffffffffffffffff1673ffffffffffffffffffffffffffffffffffffffff161490508015610dba5733600460006101000a81548173ffffffffffffffffffffffffffffffffffffffff021916908373ffffffffffffffffffffffffffffffffffffffff1602179055506001546005819055505b73__CrowdsaleDeployer_____________________6328f31b88600a60009054906101000a900473ffffffffffffffffffffffffffffffffffffffff166040518263ffffffff167c0100000000000000000000000000000000000000000000000000000000028152600401808273ffffffffffffffffffffffffffffffffffffffff1673ffffffffffffffffffffffffffffffffffffffff16815260200191505060206040518083038186803b158015610e7357600080fd5b505af4158015610e87573d6000803e3d6000fd5b505050506040513d6020811015610e9d57600080fd5b8101908080519060200190929190505050915081600b60006101000a81548173ffffffffffffffffffffffffffffffffffffffff021916908373ffffffffffffffffffffffffffffffffffffffff160217905550600a60009054906101000a900473ffffffffffffffffffffffffffffffffffffffff1673ffffffffffffffffffffffffffffffffffffffff1663a9059cbb83600a60009054906101000a900473ffffffffffffffffffffffffffffffffffffffff1673ffffffffffffffffffffffffffffffffffffffff166370a08231306040518263ffffffff167c0100000000000000000000000000000000000000000000000000000000028152600401808273ffffffffffffffffffffffffffffffffffffffff1673ffffffffffffffffffffffffffffffffffffffff168152602001915050602060405180830381600087803b158015610fed57600080fd5b505af1158015611001573d6000803e3d6000fd5b505050506040513d602081101561101757600080fd5b81019080805190602001909291905050506040518363ffffffff167c0100000000000000000000000000000000000000000000000000000000028152600401808373ffffffffffffffffffffffffffffffffffffffff1673ffffffffffffffffffffffffffffffffffffffff16815260200182815260200192505050602060405180830381600087803b1580156110ad57600080fd5b505af11580156110c1573d6000803e3d6000fd5b505050506040513d60208110156110d757600080fd5b810190808051906020019092919050505050801561113a576000600460006101000a81548173ffffffffffffffffffffffffffffffffffffffff021916908373ffffffffffffffffffffffffffffffffffffffff16021790555060006005819055505b5b5050565b6000600380549050905090565b60015481565b600080600660008473ffffffffffffffffffffffffffffffffffffffff1673ffffffffffffffffffffffffffffffffffffffff16815260200190815260200160002054119050919050565b60006111aa600154612d01565b1561136757600073ffffffffffffffffffffffffffffffffffffffff16600460009054906101000a900473ffffffffffffffffffffffffffffffffffffffff1673ffffffffffffffffffffffffffffffffffffffff1614905080156112545733600460006101000a81548173ffffffffffffffffffffffffffffffffffffffff021916908373ffffffffffffffffffffffffffffffffffffffff1602179055506001546005819055505b600b60009054906101000a900473ffffffffffffffffffffffffffffffffffffffff1673ffffffffffffffffffffffffffffffffffffffff1663301a9b09868686866040518563ffffffff167c010000000000000000000000000000000000000000000000000000000002815260040180858152602001848152602001838152602001828152602001945050505050600060405180830381600087803b1580156112fd57600080fd5b505af1158015611311573d6000803e3d6000fd5b505050508015611366576000600460006101000a81548173ffffffffffffffffffffffffffffffffffffffff021916908373ffffffffffffffffffffffffffffffffffffffff16021790555060006005819055505b5b5050505050565b60038181548110151561137d57fe5b906000526020600020016000915090505481565b600061139e600154612d01565b1561153857600073ffffffffffffffffffffffffffffffffffffffff16600460009054906101000a900473ffffffffffffffffffffffffffffffffffffffff1673ffffffffffffffffffffffffffffffffffffffff1614905080156114485733600460006101000a81548173ffffffffffffffffffffffffffffffffffffffff021916908373ffffffffffffffffffffffffffffffffffffffff1602179055506001546005819055505b600b60009054906101000a900473ffffffffffffffffffffffffffffffffffffffff1673ffffffffffffffffffffffffffffffffffffffff16631c02708d6040518163ffffffff167c0100000000000000000000000000000000000000000000000000000000028152600401600060405180830381600087803b1580156114ce57600080fd5b505af11580156114e2573d6000803e3d6000fd5b505050508015611537576000600460006101000a81548173ffffffffffffffffffffffffffffffffffffffff021916908373ffffffffffffffffffffffffffffffffffffffff16021790555060006005819055505b5b50565b60006115476001612d01565b156117e257600073ffffffffffffffffffffffffffffffffffffffff16600460009054906101000a900473ffffffffffffffffffffffffffffffffffffffff1673ffffffffffffffffffffffffffffffffffffffff1614905080156115f05733600460006101000a81548173ffffffffffffffffffffffffffffffffffffffff021916908373ffffffffffffffffffffffffffffffffffffffff16021790555060016005819055505b600073ffffffffffffffffffffffffffffffffffffffff168273ffffffffffffffffffffffffffffffffffffffff16141515156116bb576040517f08c379a00000000000000000000000000000000000000000000000000000000081526004018080602001828103825260328152602001807f756e467265657a654163636f756e743a2074686520746172676574206164647281526020017f657373206973206e6f7420636f7272656374000000000000000000000000000081525060400191505060405180910390fd5b600a60009054906101000a900473ffffffffffffffffffffffffffffffffffffffff1673ffffffffffffffffffffffffffffffffffffffff166353cc2fae836040518263ffffffff167c0100000000000000000000000000000000000000000000000000000000028152600401808273ffffffffffffffffffffffffffffffffffffffff1673ffffffffffffffffffffffffffffffffffffffff168152602001915050600060405180830381600087803b15801561177857600080fd5b505af115801561178c573d6000803e3d6000fd5b5050505080156117e1576000600460006101000a81548173ffffffffffffffffffffffffffffffffffffffff021916908373ffffffffffffffffffffffffffffffffffffffff16021790555060006005819055505b5b5050565b60086020528060005260406000206000915090505481565b600b60009054906101000a900473ffffffffffffffffffffffffffffffffffffffff1681565b6000611831600154612d01565b15611a0a57600073ffffffffffffffffffffffffffffffffffffffff16600460009054906101000a900473ffffffffffffffffffffffffffffffffffffffff1673ffffffffffffffffffffffffffffffffffffffff1614905080156118db5733600460006101000a81548173ffffffffffffffffffffffffffffffffffffffff021916908373ffffffffffffffffffffffffffffffffffffffff1602179055506001546005819055505b600b60009054906101000a900473ffffffffffffffffffffffffffffffffffffffff1673ffffffffffffffffffffffffffffffffffffffff166377216e3684846040518363ffffffff167c0100000000000000000000000000000000000000000000000000000000028152600401808373ffffffffffffffffffffffffffffffffffffffff1673ffffffffffffffffffffffffffffffffffffffff16815260200182815260200192505050600060405180830381600087803b1580156119a057600080fd5b505af11580156119b4573d6000803e3d6000fd5b505050508015611a09576000600460006101000a81548173ffffffffffffffffffffffffffffffffffffffff021916908373ffffffffffffffffffffffffffffffffffffffff16021790555060006005819055505b5b505050565b6000611a1b6001612d01565b15611bb457600073ffffffffffffffffffffffffffffffffffffffff16600460009054906101000a900473ffffffffffffffffffffffffffffffffffffffff1673ffffffffffffffffffffffffffffffffffffffff161490508015611ac45733600460006101000a81548173ffffffffffffffffffffffffffffffffffffffff021916908373ffffffffffffffffffffffffffffffffffffffff16021790555060016005819055505b600a60009054906101000a900473ffffffffffffffffffffffffffffffffffffffff1673ffffffffffffffffffffffffffffffffffffffff16638456cb596040518163ffffffff167c0100000000000000000000000000000000000000000000000000000000028152600401600060405180830381600087803b158015611b4a57600080fd5b505af1158015611b5e573d6000803e3d6000fd5b505050508015611bb3576000600460006101000a81548173ffffffffffffffffffffffffffffffffffffffff021916908373ffffffffffffffffffffffffffffffffffffffff16021790555060006005819055505b5b50565b6000806000611bc66001612d01565b15611f4157600073ffffffffffffffffffffffffffffffffffffffff16600460009054906101000a900473ffffffffffffffffffffffffffffffffffffffff1673ffffffffffffffffffffffffffffffffffffffff161490508015611c6f5733600460006101000a81548173ffffffffffffffffffffffffffffffffffffffff021916908373ffffffffffffffffffffffffffffffffffffffff16021790555060016005819055505b6001600660003373ffffffffffffffffffffffffffffffffffffffff1673ffffffffffffffffffffffffffffffffffffffff1681526020019081526020016000205403925060008360020a600860008760001916600019168152602001908152602001600020541614151515611d73576040517f08c379a00000000000000000000000000000000000000000000000000000000081526004018080602001828103825260308152602001807f63616e63656c50656e64696e673a206f7065726174696f6e206e6f7420666f7581526020017f6e6420666f72207468697320757365720000000000000000000000000000000081525060400191505060405180910390fd5b8260020a196008600086600019166000191681526020019081526020016000206000828254169250508190555060016009600086600019166000191681526020019081526020016000205403915081600960008660001916600019168152602001908152602001600020819055507f3e0a7036018b5a2a3c5d0afa14e51998ef3cf98c38e4289a8897222b3acf75a78483600280549050336040518085600019166000191681526020018481526020018381526020018273ffffffffffffffffffffffffffffffffffffffff1673ffffffffffffffffffffffffffffffffffffffff16815260200194505050505060405180910390a16000821415611eef57611e7b846132ab565b7f55e0dd61c29aac6fc36807628300ad3e3ec68655ae76ae4002f7fb101496fa9f84336040518083600019166000191681526020018273ffffffffffffffffffffffffffffffffffffffff1673ffffffffffffffffffffffffffffffffffffffff1681526020019250505060405180910390a15b8015611f40576000600460006101000a81548173ffffffffffffffffffffffffffffffffffffffff021916908373ffffffffffffffffffffffffffffffffffffffff16021790555060006005819055505b5b50505050565b60096020528060005260406000206000915090505481565b6000611f6c600154612d01565b1561220157600073ffffffffffffffffffffffffffffffffffffffff16600460009054906101000a900473ffffffffffffffffffffffffffffffffffffffff1673ffffffffffffffffffffffffffffffffffffffff1614905080156120165733600460006101000a81548173ffffffffffffffffffffffffffffffffffffffff021916908373ffffffffffffffffffffffffffffffffffffffff1602179055506001546005819055505b600073ffffffffffffffffffffffffffffffffffffffff168473ffffffffffffffffffffffffffffffffffffffff161415151561205257600080fd5b600073ffffffffffffffffffffffffffffffffffffffff168373ffffffffffffffffffffffffffffffffffffffff161415151561208e57600080fd5b6000821015151561209e57600080fd5b600b60009054906101000a900473ffffffffffffffffffffffffffffffffffffffff1673ffffffffffffffffffffffffffffffffffffffff16639db5dbe48585856040518463ffffffff167c0100000000000000000000000000000000000000000000000000000000028152600401808473ffffffffffffffffffffffffffffffffffffffff1673ffffffffffffffffffffffffffffffffffffffff1681526020018373ffffffffffffffffffffffffffffffffffffffff1673ffffffffffffffffffffffffffffffffffffffff1681526020018281526020019350505050600060405180830381600087803b15801561219757600080fd5b505af11580156121ab573d6000803e3d6000fd5b505050508015612200576000600460006101000a81548173ffffffffffffffffffffffffffffffffffffffff021916908373ffffffffffffffffffffffffffffffffffffffff16021790555060006005819055505b5b50505050565b60005481565b6000600280549050905090565b60066020528060005260406000206000915090505481565b6000806000612242600154612d01565b15612a1157600073ffffffffffffffffffffffffffffffffffffffff16600460009054906101000a900473ffffffffffffffffffffffffffffffffffffffff1673ffffffffffffffffffffffffffffffffffffffff1614905080156122ec5733600460006101000a81548173ffffffffffffffffffffffffffffffffffffffff021916908373ffffffffffffffffffffffffffffffffffffffff1602179055506001546005819055505b6000855111151561238b576040517f08c379a00000000000000000000000000000000000000000000000000000000081526004018080602001828103825260338152602001807f7472616e736665724f776e65727368697057697468486f774d616e793a206f7781526020017f6e65727320617272617920697320656d7074790000000000000000000000000081525060400191505060405180910390fd5b61010085511115151561242c576040517f08c379a000000000000000000000000000000000000000000000000000000000815260040180806020018281038252603e8152602001807f7472616e736665724f776e65727368697057697468486f774d616e793a206f7781526020017f6e65727320636f756e742069732067726561746572207468656e20323536000081525060400191505060405180910390fd5b6000841115156124ca576040517f08c379a000000000000000000000000000000000000000000000000000000000815260040180806020018281038252603f8152602001807f7472616e736665724f776e65727368697057697468486f774d616e793a206e6581526020017f77486f774d616e794f776e65727344656369646520657175616c20746f20300081525060400191505060405180910390fd5b8451841115151561258f576040517f08c379a00000000000000000000000000000000000000000000000000000000081526004018080602001828103825260518152602001807f7472616e736665724f776e65727368697057697468486f774d616e793a206e6581526020017f77486f774d616e794f776e65727344656369646520657863656564732074686581526020017f206e756d626572206f66206f776e65727300000000000000000000000000000081525060600191505060405180910390fd5b600092505b60028054905083101561262a57600660006002858154811015156125b457fe5b9060005260206000200160009054906101000a900473ffffffffffffffffffffffffffffffffffffffff1673ffffffffffffffffffffffffffffffffffffffff1673ffffffffffffffffffffffffffffffffffffffff168152602001908152602001600020600090558280600101935050612594565b600091505b845182101561287957600073ffffffffffffffffffffffffffffffffffffffff16858381518110151561265e57fe5b9060200190602002015173ffffffffffffffffffffffffffffffffffffffff161415151561271a576040517f08c379a00000000000000000000000000000000000000000000000000000000081526004018080602001828103825260388152602001807f7472616e736665724f776e65727368697057697468486f774d616e793a206f7781526020017f6e65727320617272617920636f6e7461696e73207a65726f000000000000000081525060400191505060405180910390fd5b600060066000878581518110151561272e57fe5b9060200190602002015173ffffffffffffffffffffffffffffffffffffffff1673ffffffffffffffffffffffffffffffffffffffff1681526020019081526020016000205414151561280e576040517f08c379a000000000000000000000000000000000000000000000000000000000815260040180806020018281038252603e8152602001807f7472616e736665724f776e65727368697057697468486f774d616e793a206f7781526020017f6e65727320617272617920636f6e7461696e73206475706c696361746573000081525060400191505060405180910390fd5b6001820160066000878581518110151561282457fe5b9060200190602002015173ffffffffffffffffffffffffffffffffffffffff1673ffffffffffffffffffffffffffffffffffffffff16815260200190815260200160002081905550818060010192505061262f565b7fd167b96814cd24898418cc293e8d47d54afe6dcf0631283f0830e1eae621f6bd60026001548787604051808060200185815260200180602001848152602001838103835287818154815260200191508054801561292c57602002820191906000526020600020905b8160009054906101000a900473ffffffffffffffffffffffffffffffffffffffff1673ffffffffffffffffffffffffffffffffffffffff16815260200190600101908083116128e2575b5050838103825285818151815260200191508051906020019060200280838360005b8381101561296957808201518184015260208101905061294e565b50505050905001965050505050505060405180910390a184600290805190602001906129969291906133cf565b508360018190555060006003816129ad9190613459565b5060008081548092919060010191905055508015612a10576000600460006101000a81548173ffffffffffffffffffffffffffffffffffffffff021916908373ffffffffffffffffffffffffffffffffffffffff16021790555060006005819055505b5b5050505050565b60076020528060005260406000206000915090505481565b6000612a3c6001612d01565b15612cd757600073ffffffffffffffffffffffffffffffffffffffff16600460009054906101000a900473ffffffffffffffffffffffffffffffffffffffff1673ffffffffffffffffffffffffffffffffffffffff161490508015612ae55733600460006101000a81548173ffffffffffffffffffffffffffffffffffffffff021916908373ffffffffffffffffffffffffffffffffffffffff16021790555060016005819055505b600073ffffffffffffffffffffffffffffffffffffffff168273ffffffffffffffffffffffffffffffffffffffff1614151515612bb0576040517f08c379a00000000000000000000000000000000000000000000000000000000081526004018080602001828103825260308152602001807f667265657a654163636f756e743a20746865207461726765742061646472657381526020017f73206973206e6f7420636f72726563740000000000000000000000000000000081525060400191505060405180910390fd5b600a60009054906101000a900473ffffffffffffffffffffffffffffffffffffffff1673ffffffffffffffffffffffffffffffffffffffff1663f26c159f836040518263ffffffff167c0100000000000000000000000000000000000000000000000000000000028152600401808273ffffffffffffffffffffffffffffffffffffffff1673ffffffffffffffffffffffffffffffffffffffff168152602001915050600060405180830381600087803b158015612c6d57600080fd5b505af1158015612c81573d6000803e3d6000fd5b505050508015612cd6576000600460006101000a81548173ffffffffffffffffffffffffffffffffffffffff021916908373ffffffffffffffffffffffffffffffffffffffff16021790555060006005819055505b5b5050565b600a60009054906101000a900473ffffffffffffffffffffffffffffffffffffffff1681565b6000806000803373ffffffffffffffffffffffffffffffffffffffff16600460009054906101000a900473ffffffffffffffffffffffffffffffffffffffff1673ffffffffffffffffffffffffffffffffffffffff161415612e2c576005548511151515612e23576040517f08c379a00000000000000000000000000000000000000000000000000000000081526004018080602001828103825260448152602001807f636865636b486f774d616e794f776e6572733a206e6573746564206f776e657281526020017f73206d6f64696669657220636865636b2072657175697265206d6f7265206f7781526020017f6e6572730000000000000000000000000000000000000000000000000000000081525060600191505060405180910390fd5b600193506132a3565b6001600660003373ffffffffffffffffffffffffffffffffffffffff1673ffffffffffffffffffffffffffffffffffffffff1681526020019081526020016000205403925060028054905083101515612f13576040517f08c379a000000000000000000000000000000000000000000000000000000000815260040180806020018281038252602e8152602001807f636865636b486f774d616e794f776e6572733a206d73672e73656e646572206981526020017f73206e6f7420616e206f776e657200000000000000000000000000000000000081525060400191505060405180910390fd5b60003660005460405180848480828437820191505082815260200193505050506040518091039020915060008360020a6008600085600019166000191681526020019081526020016000205416141515612ffb576040517f08c379a00000000000000000000000000000000000000000000000000000000081526004018080602001828103825260398152602001807f636865636b486f774d616e794f776e6572733a206f776e657220616c7265616481526020017f7920766f74656420666f7220746865206f7065726174696f6e0000000000000081525060400191505060405180910390fd5b8260020a6008600084600019166000191681526020019081526020016000206000828254179250508190555060016009600084600019166000191681526020019081526020016000205401905080600960008460001916600019168152602001908152602001600020819055506001811415613151576003805490506007600084600019166000191681526020019081526020016000208190555060038290806001815401808255809150509060018203906000526020600020016000909192909190915090600019169055507f6bab0114f9524353d2d33e64edd3ebbd16e21edd57de2226ba76c310a7ce22658286600280549050336040518085600019166000191681526020018481526020018381526020018273ffffffffffffffffffffffffffffffffffffffff1673ffffffffffffffffffffffffffffffffffffffff16815260200194505050505060405180910390a15b7f8dd9582c6577aea81973b5adeb6c135f6e18565d99578b7ba0c9377437ec0221828287600280549050336040518086600019166000191681526020018581526020018481526020018381526020018273ffffffffffffffffffffffffffffffffffffffff1673ffffffffffffffffffffffffffffffffffffffff1681526020019550505050505060405180910390a18460096000846000191660001916815260200190815260200160002054141561329e5761320d826132ab565b7f8a11c8ca99994c292318ce367f65bf6ff61d390bc814b3588496f6fbcc32807a8286600280549050336040518085600019166000191681526020018481526020018381526020018273ffffffffffffffffffffffffffffffffffffffff1673ffffffffffffffffffffffffffffffffffffffff16815260200194505050505060405180910390a1600193506132a3565b600093505b505050919050565b60006007600083600019166000191681526020019081526020016000205490506001600380549050038110156133585760036001600380549050038154811015156132f257fe5b906000526020600020015460038281548110151561330c57fe5b906000526020600020018160001916905550806007600060038481548110151561333257fe5b906000526020600020015460001916600019168152602001908152602001600020819055505b600380548091906001900361336d9190613459565b506008600083600019166000191681526020019081526020016000206000905560096000836000191660001916815260200190815260200160002060009055600760008360001916600019168152602001908152602001600020600090555050565b828054828255906000526020600020908101928215613448579160200282015b828111156134475782518260006101000a81548173ffffffffffffffffffffffffffffffffffffffff021916908373ffffffffffffffffffffffffffffffffffffffff160217905550916020019190600101906133ef565b5b5090506134559190613485565b5090565b8154818355818111156134805781836000526020600020918201910161347f91906134c8565b5b505050565b6134c591905b808211156134c157600081816101000a81549073ffffffffffffffffffffffffffffffffffffffff02191690555060010161348b565b5090565b90565b6134ea91905b808211156134e65760008160009055506001016134ce565b5090565b905600a165627a7a72305820fa083b6ee1a7b732178e9857dafccf05de3a10259b162208974c7329eae0ccee0029",
  "source": "pragma solidity ^0.4.24;\n\nimport './Multiownable.sol';\nimport './interfaces/TokenInterface.sol';\nimport './interfaces/CrowdsaleInterface.sol';\nimport './deployers/TokenDeployer.sol';\nimport './deployers/CrowdsaleDeployer.sol';\n\n/**\n * @title CaleroController\n */\ncontract CaleroController is Multiownable {\n    TokenInterface public token;\n    CrowdsaleInterface public ico;\n\n    /**\n     * @dev Constructor\n     */\n    constructor() public {\n        address _token = TokenDeployer.deployTokenContract();\n        token = TokenInterface(_token);\n    }\n\n    function() external payable {\n        // ETH claimed\n    }\n\n    function initCrowdsale() external onlyManyOwners {\n        address _ico = CrowdsaleDeployer.deployCrowdsaleContract(address(token));\n        ico = CrowdsaleInterface(_ico);\n\n        token.transfer(_ico, token.balanceOf(this));  // Transfer all crowdsale tokens from controller to crowdsale contract\n    }\n\n    function startPhase(uint256 _tokens, uint256 _bonus, uint256 _startDate, uint256 _finishDate) external onlyManyOwners {\n        ico.startPhase(_tokens, _bonus, _startDate, _finishDate);\n    }\n\n    function finalizeCrowdsale() external onlyAnyOwner {\n        ico.finalizeCrowdsale();\n    }\n\n    function transferEther(address _contributor, uint256 _amount) external onlyManyOwners {\n        require(_contributor != address(0));\n        require(_amount >= 0);\n\n        _contributor.transfer(_amount);\n    }\n\n    function transferTokensToNonETHBuyers(address _contributor, uint256 _amount) external onlyManyOwners {\n        ico.transferTokensToNonETHBuyers(_contributor, _amount);\n    }\n\n    function transferERC20(address _token, address _contributor, uint256 _amount) external onlyManyOwners {\n        require(_token != address(0));\n        require(_contributor != address(0));\n        require(_amount >= 0);\n\n        ico.transferERC20(_token, _contributor, _amount);\n    }\n\n    function freezeAccount(address _target) external onlyAnyOwner {\n        require(_target != address(0), \"freezeAccount: the target address is not correct\");\n\n        token.freezeAccount(_target);\n    }\n\n    function unFreezeAccount(address _target) external onlyAnyOwner {\n        require(_target != address(0), \"unFreezeAccount: the target address is not correct\");\n\n        token.unFreezeAccount(_target);\n    }\n\n    function pause() external onlyAnyOwner {\n        token.pause();\n    }\n\n    function resume() external onlyAnyOwner {\n        token.unpause();\n    }\n\n    function killICOContract() external onlyManyOwners {\n        ico.killContract();\n    }\n}\n",
  "sourcePath": "/Users/arikdonovan/Desktop/TokenSmartContract/contracts/CaleroController.sol",
  "compiler": {
    "name": "solc",
    "version": "0.4.24+commit.e67f0147.Emscripten.clang"
  },
  "schemaVersion": "2.0.0",
  "updatedAt": "2018-08-07T23:52:42.426Z"
}