{
  "contractName": "CaleroICO",
  "abi": [
    {
      "constant": true,
      "inputs": [],
      "name": "ICO",
      "outputs": [
        {
          "name": "tokens",
          "type": "uint256"
        },
        {
          "name": "bonus",
          "type": "uint256"
        },
        {
          "name": "startDate",
          "type": "uint256"
        },
        {
          "name": "finishDate",
          "type": "uint256"
        },
        {
          "name": "finished",
          "type": "bool"
        }
      ],
      "payable": false,
      "stateMutability": "view",
      "type": "function"
    },
    {
      "constant": true,
      "inputs": [],
      "name": "softCapReached",
      "outputs": [
        {
          "name": "",
          "type": "bool"
        }
      ],
      "payable": false,
      "stateMutability": "view",
      "type": "function"
    },
    {
      "constant": true,
      "inputs": [],
      "name": "oraclize",
      "outputs": [
        {
          "name": "",
          "type": "address"
        }
      ],
      "payable": false,
      "stateMutability": "view",
      "type": "function"
    },
    {
      "constant": true,
      "inputs": [],
      "name": "weiRaised",
      "outputs": [
        {
          "name": "",
          "type": "uint256"
        }
      ],
      "payable": false,
      "stateMutability": "view",
      "type": "function"
    },
    {
      "constant": true,
      "inputs": [],
      "name": "minContributionAmount",
      "outputs": [
        {
          "name": "",
          "type": "uint256"
        }
      ],
      "payable": false,
      "stateMutability": "view",
      "type": "function"
    },
    {
      "constant": true,
      "inputs": [],
      "name": "tokensSold",
      "outputs": [
        {
          "name": "",
          "type": "uint256"
        }
      ],
      "payable": false,
      "stateMutability": "view",
      "type": "function"
    },
    {
      "constant": false,
      "inputs": [],
      "name": "renounceOwnership",
      "outputs": [],
      "payable": false,
      "stateMutability": "nonpayable",
      "type": "function"
    },
    {
      "constant": true,
      "inputs": [],
      "name": "pricePerToken",
      "outputs": [
        {
          "name": "",
          "type": "uint256"
        }
      ],
      "payable": false,
      "stateMutability": "view",
      "type": "function"
    },
    {
      "constant": true,
      "inputs": [],
      "name": "owner",
      "outputs": [
        {
          "name": "",
          "type": "address"
        }
      ],
      "payable": false,
      "stateMutability": "view",
      "type": "function"
    },
    {
      "constant": true,
      "inputs": [],
      "name": "softCap",
      "outputs": [
        {
          "name": "",
          "type": "uint256"
        }
      ],
      "payable": false,
      "stateMutability": "view",
      "type": "function"
    },
    {
      "constant": true,
      "inputs": [],
      "name": "finalizeIsAvailable",
      "outputs": [
        {
          "name": "",
          "type": "bool"
        }
      ],
      "payable": false,
      "stateMutability": "view",
      "type": "function"
    },
    {
      "constant": true,
      "inputs": [],
      "name": "hardCapReached",
      "outputs": [
        {
          "name": "",
          "type": "bool"
        }
      ],
      "payable": false,
      "stateMutability": "view",
      "type": "function"
    },
    {
      "constant": true,
      "inputs": [],
      "name": "stage",
      "outputs": [
        {
          "name": "",
          "type": "uint256"
        }
      ],
      "payable": false,
      "stateMutability": "view",
      "type": "function"
    },
    {
      "constant": true,
      "inputs": [],
      "name": "usdRaised",
      "outputs": [
        {
          "name": "",
          "type": "uint256"
        }
      ],
      "payable": false,
      "stateMutability": "view",
      "type": "function"
    },
    {
      "constant": false,
      "inputs": [
        {
          "name": "_newOwner",
          "type": "address"
        }
      ],
      "name": "transferOwnership",
      "outputs": [],
      "payable": false,
      "stateMutability": "nonpayable",
      "type": "function"
    },
    {
      "constant": true,
      "inputs": [],
      "name": "vault",
      "outputs": [
        {
          "name": "",
          "type": "address"
        }
      ],
      "payable": false,
      "stateMutability": "view",
      "type": "function"
    },
    {
      "constant": true,
      "inputs": [],
      "name": "token",
      "outputs": [
        {
          "name": "",
          "type": "address"
        }
      ],
      "payable": false,
      "stateMutability": "view",
      "type": "function"
    },
    {
      "inputs": [
        {
          "name": "_tokenAddress",
          "type": "address"
        }
      ],
      "payable": false,
      "stateMutability": "nonpayable",
      "type": "constructor"
    },
    {
      "payable": true,
      "stateMutability": "payable",
      "type": "fallback"
    },
    {
      "anonymous": false,
      "inputs": [
        {
          "indexed": false,
          "name": "purchaser",
          "type": "address"
        },
        {
          "indexed": false,
          "name": "beneficiary",
          "type": "address"
        },
        {
          "indexed": false,
          "name": "value",
          "type": "uint256"
        },
        {
          "indexed": false,
          "name": "amount",
          "type": "uint256"
        }
      ],
      "name": "TokenPurchase",
      "type": "event"
    },
    {
      "anonymous": false,
      "inputs": [
        {
          "indexed": false,
          "name": "tokens",
          "type": "uint256"
        },
        {
          "indexed": false,
          "name": "bonus",
          "type": "uint256"
        },
        {
          "indexed": false,
          "name": "startDate",
          "type": "uint256"
        },
        {
          "indexed": false,
          "name": "finishDate",
          "type": "uint256"
        }
      ],
      "name": "StageStarted",
      "type": "event"
    },
    {
      "anonymous": false,
      "inputs": [
        {
          "indexed": false,
          "name": "time",
          "type": "uint256"
        }
      ],
      "name": "StageFinished",
      "type": "event"
    },
    {
      "anonymous": false,
      "inputs": [
        {
          "indexed": false,
          "name": "time",
          "type": "uint256"
        }
      ],
      "name": "SoftCapReached",
      "type": "event"
    },
    {
      "anonymous": false,
      "inputs": [
        {
          "indexed": true,
          "name": "previousOwner",
          "type": "address"
        }
      ],
      "name": "OwnershipRenounced",
      "type": "event"
    },
    {
      "anonymous": false,
      "inputs": [
        {
          "indexed": true,
          "name": "previousOwner",
          "type": "address"
        },
        {
          "indexed": true,
          "name": "newOwner",
          "type": "address"
        }
      ],
      "name": "OwnershipTransferred",
      "type": "event"
    },
    {
      "constant": false,
      "inputs": [
        {
          "name": "_beneficiary",
          "type": "address"
        }
      ],
      "name": "buyTokens",
      "outputs": [],
      "payable": true,
      "stateMutability": "payable",
      "type": "function"
    },
    {
      "constant": false,
      "inputs": [
        {
          "name": "_tokens",
          "type": "uint256"
        },
        {
          "name": "_bonus",
          "type": "uint256"
        },
        {
          "name": "_startDate",
          "type": "uint256"
        },
        {
          "name": "_finishDate",
          "type": "uint256"
        }
      ],
      "name": "startPhase",
      "outputs": [],
      "payable": false,
      "stateMutability": "nonpayable",
      "type": "function"
    },
    {
      "constant": false,
      "inputs": [],
      "name": "finalizeCrowdsale",
      "outputs": [],
      "payable": false,
      "stateMutability": "nonpayable",
      "type": "function"
    },
    {
      "constant": false,
      "inputs": [
        {
          "name": "_contributor",
          "type": "address"
        },
        {
          "name": "_amount",
          "type": "uint256"
        }
      ],
      "name": "transferTokensToNonETHBuyers",
      "outputs": [],
      "payable": false,
      "stateMutability": "nonpayable",
      "type": "function"
    },
    {
      "constant": false,
      "inputs": [
        {
          "name": "_token",
          "type": "address"
        },
        {
          "name": "_contributor",
          "type": "address"
        },
        {
          "name": "_amount",
          "type": "uint256"
        }
      ],
      "name": "transferERC20",
      "outputs": [],
      "payable": false,
      "stateMutability": "nonpayable",
      "type": "function"
    },
    {
      "constant": true,
      "inputs": [],
      "name": "crowdSaleStatus",
      "outputs": [
        {
          "name": "",
          "type": "string"
        }
      ],
      "payable": false,
      "stateMutability": "view",
      "type": "function"
    },
    {
      "constant": false,
      "inputs": [],
      "name": "killContract",
      "outputs": [],
      "payable": false,
      "stateMutability": "nonpayable",
      "type": "function"
    }
  ],
  "bytecode": "0x60806040526028600155624c4b40600555600060065567016345785d8a00006007556000600860006101000a81548160ff0219169083151502179055506000600860016101000a81548160ff0219169083151502179055506001600860026101000a81548160ff0219169083151502179055503480156200007f57600080fd5b506040516020806200237083398101806040528101908080519060200190929190505050336000806101000a81548173ffffffffffffffffffffffffffffffffffffffff021916908373ffffffffffffffffffffffffffffffffffffffff16021790555080600860036101000a81548173ffffffffffffffffffffffffffffffffffffffff021916908373ffffffffffffffffffffffffffffffffffffffff16021790555073__VaultDeployer_________________________638a8b611b336040518263ffffffff167c0100000000000000000000000000000000000000000000000000000000028152600401808273ffffffffffffffffffffffffffffffffffffffff1673ffffffffffffffffffffffffffffffffffffffff16815260200191505060206040518083038186803b158015620001bc57600080fd5b505af4158015620001d1573d6000803e3d6000fd5b505050506040513d6020811015620001e857600080fd5b8101908080519060200190929190505050600a60006101000a81548173ffffffffffffffffffffffffffffffffffffffff021916908373ffffffffffffffffffffffffffffffffffffffff16021790555073__OraclizeDeployer______________________635b0360556040518163ffffffff167c010000000000000000000000000000000000000000000000000000000002815260040160206040518083038186803b1580156200029a57600080fd5b505af4158015620002af573d6000803e3d6000fd5b505050506040513d6020811015620002c657600080fd5b8101908080519060200190929190505050600960006101000a81548173ffffffffffffffffffffffffffffffffffffffff021916908373ffffffffffffffffffffffffffffffffffffffff1602179055505061204880620003286000396000f30060806040526004361061013e576000357c0100000000000000000000000000000000000000000000000000000000900463ffffffff1680630bf318a3146101495780631c02708d14610160578063273ba6bb146101775780632b9edee9146101c2578063301a9b09146101f15780633d9aa9321461023c5780634042b66f1461029357806345d5149f146102be578063518ab2a8146102e9578063715018a61461031457806377216e361461032b5780637b1b1de6146103785780638da5cb5b146103a3578063906a26e0146103fa57806393a3658b146104255780639762f802146104545780639db5dbe414610483578063c040e6b8146104f0578063d12f69381461051b578063eadd94ec146105ab578063ec8ac4d8146105d6578063f2fde38b1461060c578063fbfa77cf1461064f578063fc0c546a146106a6575b610147336106fd565b005b34801561015557600080fd5b5061015e6107de565b005b34801561016c57600080fd5b50610175610cba565b005b34801561018357600080fd5b5061018c610dfa565b60405180868152602001858152602001848152602001838152602001821515151581526020019550505050505060405180910390f35b3480156101ce57600080fd5b506101d7610e2b565b604051808215151515815260200191505060405180910390f35b3480156101fd57600080fd5b5061023a60048036038101908080359060200190929190803590602001909291908035906020019092919080359060200190929190505050610e3e565b005b34801561024857600080fd5b50610251611261565b604051808273ffffffffffffffffffffffffffffffffffffffff1673ffffffffffffffffffffffffffffffffffffffff16815260200191505060405180910390f35b34801561029f57600080fd5b506102a8611287565b6040518082815260200191505060405180910390f35b3480156102ca57600080fd5b506102d361128d565b6040518082815260200191505060405180910390f35b3480156102f557600080fd5b506102fe611293565b6040518082815260200191505060405180910390f35b34801561032057600080fd5b50610329611299565b005b34801561033757600080fd5b50610376600480360381019080803573ffffffffffffffffffffffffffffffffffffffff1690602001909291908035906020019092919050505061139b565b005b34801561038457600080fd5b5061038d611547565b6040518082815260200191505060405180910390f35b3480156103af57600080fd5b506103b861154d565b604051808273ffffffffffffffffffffffffffffffffffffffff1673ffffffffffffffffffffffffffffffffffffffff16815260200191505060405180910390f35b34801561040657600080fd5b5061040f611572565b6040518082815260200191505060405180910390f35b34801561043157600080fd5b5061043a611578565b604051808215151515815260200191505060405180910390f35b34801561046057600080fd5b5061046961158b565b604051808215151515815260200191505060405180910390f35b34801561048f57600080fd5b506104ee600480360381019080803573ffffffffffffffffffffffffffffffffffffffff169060200190929190803573ffffffffffffffffffffffffffffffffffffffff1690602001909291908035906020019092919050505061159e565b005b3480156104fc57600080fd5b506105056116dd565b6040518082815260200191505060405180910390f35b34801561052757600080fd5b506105306116e3565b6040518080602001828103825283818151815260200191508051906020019080838360005b83811015610570578082015181840152602081019050610555565b50505050905090810190601f16801561059d5780820380516001836020036101000a031916815260200191505b509250505060405180910390f35b3480156105b757600080fd5b506105c0611841565b6040518082815260200191505060405180910390f35b61060a600480360381019080803573ffffffffffffffffffffffffffffffffffffffff1690602001909291905050506106fd565b005b34801561061857600080fd5b5061064d600480360381019080803573ffffffffffffffffffffffffffffffffffffffff169060200190929190505050611847565b005b34801561065b57600080fd5b506106646118ae565b604051808273ffffffffffffffffffffffffffffffffffffffff1673ffffffffffffffffffffffffffffffffffffffff16815260200191505060405180910390f35b3480156106b257600080fd5b506106bb6118d4565b604051808273ffffffffffffffffffffffffffffffffffffffff1673ffffffffffffffffffffffffffffffffffffffff16815260200191505060405180910390f35b6000806000600b600301544210151561071557600080fd5b600b600201544211151561072857600080fd5b60001515600b60040160009054906101000a900460ff16151514151561074d57600080fd5b61075784346118fa565b61076034611a00565b925061076b83611afb565b91506000600b6001015414151561079d5761078582611b38565b905061079a8183611b6c90919063ffffffff16565b91505b6107b1606484611b8890919063ffffffff16565b92506107bd8483611b9e565b6107c8823485611ca3565b6107d0611d7e565b6107d8611e56565b50505050565b6000809054906101000a900473ffffffffffffffffffffffffffffffffffffffff1673ffffffffffffffffffffffffffffffffffffffff163373ffffffffffffffffffffffffffffffffffffffff1614151561083957600080fd5b600860029054906101000a900460ff1615156108e3576040517f08c379a00000000000000000000000000000000000000000000000000000000081526004018080602001828103825260308152602001807f66696e616c697a6543726f776473616c653a2066696e616c697a65206973206e81526020017f6f7420617661696c61626c65207965740000000000000000000000000000000081525060400191505060405180910390fd5b6003600654141515610983576040517f08c379a00000000000000000000000000000000000000000000000000000000081526004018080602001828103825260308152602001807f66696e616c697a6543726f776473616c653a2066696e616c697a65206973206e81526020017f6f7420617661696c61626c65207965740000000000000000000000000000000081525060400191505060405180910390fd5b6000600860026101000a81548160ff02191690831515021790555060011515600860009054906101000a900460ff1615151415610a5d57600a60009054906101000a900473ffffffffffffffffffffffffffffffffffffffff1673ffffffffffffffffffffffffffffffffffffffff166343d726d66040518163ffffffff167c0100000000000000000000000000000000000000000000000000000000028152600401600060405180830381600087803b158015610a4057600080fd5b505af1158015610a54573d6000803e3d6000fd5b50505050610afc565b600a60009054906101000a900473ffffffffffffffffffffffffffffffffffffffff1673ffffffffffffffffffffffffffffffffffffffff16638c52dc416040518163ffffffff167c0100000000000000000000000000000000000000000000000000000000028152600401600060405180830381600087803b158015610ae357600080fd5b505af1158015610af7573d6000803e3d6000fd5b505050505b610b126001600654611b6c90919063ffffffff16565b600681905550600860039054906101000a900473ffffffffffffffffffffffffffffffffffffffff1673ffffffffffffffffffffffffffffffffffffffff166342966c68600860039054906101000a900473ffffffffffffffffffffffffffffffffffffffff1673ffffffffffffffffffffffffffffffffffffffff166370a08231306040518263ffffffff167c0100000000000000000000000000000000000000000000000000000000028152600401808273ffffffffffffffffffffffffffffffffffffffff1673ffffffffffffffffffffffffffffffffffffffff168152602001915050602060405180830381600087803b158015610c1357600080fd5b505af1158015610c27573d6000803e3d6000fd5b505050506040513d6020811015610c3d57600080fd5b81019080805190602001909291905050506040518263ffffffff167c010000000000000000000000000000000000000000000000000000000002815260040180828152602001915050600060405180830381600087803b158015610ca057600080fd5b505af1158015610cb4573d6000803e3d6000fd5b50505050565b6000809054906101000a900473ffffffffffffffffffffffffffffffffffffffff1673ffffffffffffffffffffffffffffffffffffffff163373ffffffffffffffffffffffffffffffffffffffff16141515610d1557600080fd5b600860029054906101000a900460ff16151515610dc0576040517f08c379a00000000000000000000000000000000000000000000000000000000081526004018080602001828103825260308152602001807f66696e616c697a6543726f776473616c653a2066696e616c697a65206973206e81526020017f6f7420617661696c61626c65207965740000000000000000000000000000000081525060400191505060405180910390fd5b6000809054906101000a900473ffffffffffffffffffffffffffffffffffffffff1673ffffffffffffffffffffffffffffffffffffffff16ff5b600b8060000154908060010154908060020154908060030154908060040160009054906101000a900460ff16905085565b600860009054906101000a900460ff1681565b6000809054906101000a900473ffffffffffffffffffffffffffffffffffffffff1673ffffffffffffffffffffffffffffffffffffffff163373ffffffffffffffffffffffffffffffffffffffff16141515610e9957600080fd5b600860039054906101000a900473ffffffffffffffffffffffffffffffffffffffff1673ffffffffffffffffffffffffffffffffffffffff166370a08231306040518263ffffffff167c0100000000000000000000000000000000000000000000000000000000028152600401808273ffffffffffffffffffffffffffffffffffffffff1673ffffffffffffffffffffffffffffffffffffffff168152602001915050602060405180830381600087803b158015610f5657600080fd5b505af1158015610f6a573d6000803e3d6000fd5b505050506040513d6020811015610f8057600080fd5b8101908080519060200190929190505050841115151561102e576040517f08c379a00000000000000000000000000000000000000000000000000000000081526004018080602001828103825260348152602001807f737461727450686173653a20616d6f756e74206f6620746f6b656e732069732081526020017f6e6f7420656e6f75676820666f7220737461727400000000000000000000000081525060400191505060405180910390fd5b60008214158015611040575060008114155b15156110da576040517f08c379a00000000000000000000000000000000000000000000000000000000081526004018080602001828103825260308152602001807f737461727450686173653a2066696e697368646174652f73746172746461746581526020017f20617265206e6f7420636f72726563740000000000000000000000000000000081525060400191505060405180910390fd5b606483101515611178576040517f08c379a00000000000000000000000000000000000000000000000000000000081526004018080602001828103825260338152602001807f737461727450686173653a2074686520626f6e75732073697a652073686f756c81526020017f6420626520736d616c6c6572206f66203130300000000000000000000000000081525060400191505060405180910390fd5b60a06040519081016040528085815260200184815260200183815260200182815260200160001515815250600b6000820151816000015560208201518160010155604082015181600201556060820151816003015560808201518160040160006101000a81548160ff0219169083151502179055509050506112066001600654611b6c90919063ffffffff16565b6006819055507fb66dec5af7ecdc905a873094a7a5e75d87c437ee0aafd10568f0c95095ea83d9848484846040518085815260200184815260200183815260200182815260200194505050505060405180910390a150505050565b600960009054906101000a900473ffffffffffffffffffffffffffffffffffffffff1681565b60025481565b60075481565b60045481565b6000809054906101000a900473ffffffffffffffffffffffffffffffffffffffff1673ffffffffffffffffffffffffffffffffffffffff163373ffffffffffffffffffffffffffffffffffffffff161415156112f457600080fd5b6000809054906101000a900473ffffffffffffffffffffffffffffffffffffffff1673ffffffffffffffffffffffffffffffffffffffff167ff8df31144d9c2f0f6b59d69b8b98abd5459d07f2742c4df920b25aae33c6482060405160405180910390a260008060006101000a81548173ffffffffffffffffffffffffffffffffffffffff021916908373ffffffffffffffffffffffffffffffffffffffff160217905550565b6000809054906101000a900473ffffffffffffffffffffffffffffffffffffffff1673ffffffffffffffffffffffffffffffffffffffff163373ffffffffffffffffffffffffffffffffffffffff161415156113f657600080fd5b600073ffffffffffffffffffffffffffffffffffffffff168273ffffffffffffffffffffffffffffffffffffffff161415151561143257600080fd5b6000811015151561144257600080fd5b600860039054906101000a900473ffffffffffffffffffffffffffffffffffffffff1673ffffffffffffffffffffffffffffffffffffffff1663a9059cbb83836040518363ffffffff167c0100000000000000000000000000000000000000000000000000000000028152600401808373ffffffffffffffffffffffffffffffffffffffff1673ffffffffffffffffffffffffffffffffffffffff16815260200182815260200192505050602060405180830381600087803b15801561150757600080fd5b505af115801561151b573d6000803e3d6000fd5b505050506040513d602081101561153157600080fd5b8101908080519060200190929190505050505050565b60015481565b6000809054906101000a900473ffffffffffffffffffffffffffffffffffffffff1681565b60055481565b600860029054906101000a900460ff1681565b600860019054906101000a900460ff1681565b6000809054906101000a900473ffffffffffffffffffffffffffffffffffffffff1673ffffffffffffffffffffffffffffffffffffffff163373ffffffffffffffffffffffffffffffffffffffff161415156115f957600080fd5b8273ffffffffffffffffffffffffffffffffffffffff1663a9059cbb83836040518363ffffffff167c0100000000000000000000000000000000000000000000000000000000028152600401808373ffffffffffffffffffffffffffffffffffffffff1673ffffffffffffffffffffffffffffffffffffffff16815260200182815260200192505050602060405180830381600087803b15801561169c57600080fd5b505af11580156116b0573d6000803e3d6000fd5b505050506040513d60208110156116c657600080fd5b810190808051906020019092919050505050505050565b60065481565b60606006546000141561172d576040805190810160405280601781526020017f49434f20646f6573206e6f74207374617274207965742e000000000000000000815250905061183e565b60065460011415611775576040805190810160405280600c81526020017f507269766174652073616c650000000000000000000000000000000000000000815250905061183e565b600654600214156117bd576040805190810160405280600881526020017f5072652073616c65000000000000000000000000000000000000000000000000815250905061183e565b60065460031415611805576040805190810160405280600981526020017f4d61696e2073616c650000000000000000000000000000000000000000000000815250905061183e565b6040805190810160405280601381526020017f43726f776473616c652066696e6973686564210000000000000000000000000081525090505b90565b60035481565b6000809054906101000a900473ffffffffffffffffffffffffffffffffffffffff1673ffffffffffffffffffffffffffffffffffffffff163373ffffffffffffffffffffffffffffffffffffffff161415156118a257600080fd5b6118ab81611ed1565b50565b600a60009054906101000a900473ffffffffffffffffffffffffffffffffffffffff1681565b600860039054906101000a900473ffffffffffffffffffffffffffffffffffffffff1681565b600073ffffffffffffffffffffffffffffffffffffffff168273ffffffffffffffffffffffffffffffffffffffff161415151561193657600080fd5b60075481101515156119fc576040517f08c379a00000000000000000000000000000000000000000000000000000000081526004018080602001828103825260508152602001807f5f70726556616c696461746550757263686173653a2045544820616d6f756e7481526020017f20697320736d616c6c6572207468616e20746865206d696e696d756d20636f6e81526020017f747269627574696f6e20616d6f756e740000000000000000000000000000000081525060600191505060405180910390fd5b5050565b600080611af0670de0b6b3a7640000611ae2600960009054906101000a900473ffffffffffffffffffffffffffffffffffffffff1673ffffffffffffffffffffffffffffffffffffffff166367c9b0176040518163ffffffff167c0100000000000000000000000000000000000000000000000000000000028152600401602060405180830381600087803b158015611a9857600080fd5b505af1158015611aac573d6000803e3d6000fd5b505050506040513d6020811015611ac257600080fd5b810190808051906020019092919050505086611fcb90919063ffffffff16565b611b8890919063ffffffff16565b905080915050919050565b600080611b2d670de0b6b3a7640000611b1f60015486611b8890919063ffffffff16565b611fcb90919063ffffffff16565b905080915050919050565b6000611b656064611b57600b6001015485611fcb90919063ffffffff16565b611b8890919063ffffffff16565b9050919050565b60008183019050828110151515611b7f57fe5b80905092915050565b60008183811515611b9557fe5b04905092915050565b600860039054906101000a900473ffffffffffffffffffffffffffffffffffffffff1673ffffffffffffffffffffffffffffffffffffffff1663a9059cbb83836040518363ffffffff167c0100000000000000000000000000000000000000000000000000000000028152600401808373ffffffffffffffffffffffffffffffffffffffff1673ffffffffffffffffffffffffffffffffffffffff16815260200182815260200192505050602060405180830381600087803b158015611c6357600080fd5b505af1158015611c77573d6000803e3d6000fd5b505050506040513d6020811015611c8d57600080fd5b8101908080519060200190929190505050505050565b611cb883600454611b6c90919063ffffffff16565b600481905550611cd382600254611b6c90919063ffffffff16565b600281905550611cee81600354611b6c90919063ffffffff16565b600381905550611d0c83600b6000015461200390919063ffffffff16565b600b600001819055506000600b600001541415611d79576001600b60040160006101000a81548160ff0219169083151502179055507f0ccc5ba6ec689e598296300fe973143074a851339dfe62903b60525adcbaad2a426040518082815260200191505060405180910390a15b505050565b600a60009054906101000a900473ffffffffffffffffffffffffffffffffffffffff1673ffffffffffffffffffffffffffffffffffffffff1663f340fa0134336040518363ffffffff167c0100000000000000000000000000000000000000000000000000000000028152600401808273ffffffffffffffffffffffffffffffffffffffff1673ffffffffffffffffffffffffffffffffffffffff1681526020019150506000604051808303818588803b158015611e3b57600080fd5b505af1158015611e4f573d6000803e3d6000fd5b5050505050565b600860009054906101000a900460ff16158015611e77575060055460035410155b15611ecf576001600860006101000a81548160ff0219169083151502179055507f42ef6182c6d744dd081ab962505f40413083376dfcc13e58b60f4f32e9673809426040518082815260200191505060405180910390a15b565b600073ffffffffffffffffffffffffffffffffffffffff168173ffffffffffffffffffffffffffffffffffffffff1614151515611f0d57600080fd5b8073ffffffffffffffffffffffffffffffffffffffff166000809054906101000a900473ffffffffffffffffffffffffffffffffffffffff1673ffffffffffffffffffffffffffffffffffffffff167f8be0079c531659141344cd1fd0a4f28419497f9722a3daafe3b4186f6b6457e060405160405180910390a3806000806101000a81548173ffffffffffffffffffffffffffffffffffffffff021916908373ffffffffffffffffffffffffffffffffffffffff16021790555050565b600080831415611fde5760009050611ffd565b8183029050818382811515611fef57fe5b04141515611ff957fe5b8090505b92915050565b600082821115151561201157fe5b8183039050929150505600a165627a7a72305820e902220f547206fd73b67a5af6809d9aabc3c1aacbff385d549e27322176fd480029",
  "source": "pragma solidity ^0.4.24;\n\nimport \"./SafeMath.sol\";\nimport \"./Ownable.sol\";\nimport \"./ERC20.sol\";\nimport './oraclize/EthPriceOraclize.sol';\nimport './interfaces/TokenInterface.sol';\nimport './deployers/OraclizeDeployer.sol';\nimport './deployers/VaultDeployer.sol';\nimport './RefundEscrow.sol';\n\n/**\n * @title Calero project crowdsale smart contract\n */\ncontract CaleroICO is Ownable {\n    using SafeMath for uint256;\n\n    uint256 public pricePerToken = 40; // 1 CLOR - 40 cents or $0.4\n    uint256 public weiRaised;\n    uint256 public usdRaised;\n    uint256 public tokensSold;\n\n    uint256 public softCap = 5000000; // sofcap is $5 mln\n\n    uint256 public stage = 0;\n    uint256 public minContributionAmount = 10 ** 17; // 0.1 ETH\n\n    bool public softCapReached = false;\n    bool public hardCapReached = false;\n    bool public finalizeIsAvailable = true;\n\n    TokenInterface public token;\n    EthPriceOraclize public oraclize;\n    RefundEscrow public vault;\n\n    event TokenPurchase(address purchaser, address beneficiary, uint256 value, uint256 amount);\n    event StageStarted(uint256 tokens, uint256 bonus, uint256 startDate, uint256 finishDate);\n    event StageFinished(uint256 time);\n    event SoftCapReached(uint256 time);\n\n    struct Ico {\n        uint256 tokens;\n        uint256 bonus;\n        uint256 startDate;\n        uint256 finishDate;\n        bool finished;\n    }\n    Ico public ICO;\n\n    modifier duringSale {\n        require(now < ICO.finishDate);\n        require(now > ICO.startDate);\n        require(ICO.finished == false);\n        _;\n    }\n\n    /**\n     * @dev Constructor\n     */\n    constructor(address _tokenAddress) public {\n        token = TokenInterface(_tokenAddress);\n        vault = VaultDeployer.deployVaultContract(msg.sender);\n        oraclize = OraclizeDeployer.deployOraclize();\n    }\n\n    /**\n     * @dev fallback function\n     */\n    function() external payable {\n        buyTokens(msg.sender);\n    }\n\n    /**\n     * @dev token purchase\n     * @param _beneficiary Address performing the token purchase\n     */\n    function buyTokens(address _beneficiary) public payable duringSale {\n        _preValidatePurchase(_beneficiary, msg.value);\n\n        uint256 usdAmount = _getUSDETHPrice(msg.value);\n        uint256 tokens = _getTokenAmount(usdAmount);\n\n        if(ICO.bonus != 0) {\n            uint256 bonus = _getBonus(tokens);\n            tokens = tokens.add(bonus);\n        }\n\n        usdAmount = usdAmount.div(100); // Removing cents after whole calculation\n\n        _deliverTokens(_beneficiary, tokens);\n        _updatePurchasingState(tokens, msg.value, usdAmount);\n\n        _forwardFunds();\n\n        _postValidatePurchase();\n    }\n\n    /**\n     * @dev Validation of an incoming purchase. Use require statements to revert state when conditions are not met. Use super to concatenate validations.\n     * @param _beneficiary Address performing the token purchase\n     * @param _weiAmount Value in wei involved in the purchase\n     */\n    function _preValidatePurchase(address _beneficiary, uint256 _weiAmount) internal view {\n        require(_beneficiary != address(0));\n        require(_weiAmount >= minContributionAmount, \"_preValidatePurchase: ETH amount is smaller than the minimum contribution amount\");\n    }\n\n    /**\n     * @dev Get usd price of ETH which contributor send\n     * @param _weiAmount Value in wei involved in the purchase\n     */\n    function _getUSDETHPrice(uint256 _weiAmount) internal view returns(uint256) {\n        uint256 usdAmountOfETH = _weiAmount.mul(oraclize.getEthPrice()).div(1 ether);\n        return usdAmountOfETH;\n    }\n\n    /**\n     * @dev Override to extend the way in which ether is converted to tokens.\n     * @param _usdPrice Value in wei to be converted into tokens\n     * @return Number of tokens that can be purchased with the specified _usdPrice\n     */\n    function _getTokenAmount(uint256 _usdPrice) internal view returns(uint256) {\n        uint256 tokensAmaunt = _usdPrice.div(pricePerToken).mul(1 ether);\n        return tokensAmaunt;\n    }\n\n    /**\n     * @dev Calulate bonus size for each stage\n     * @param _amount Amount, which we need to calculate\n     */\n    function _getBonus(uint256 _amount) internal view returns(uint256) {\n        return _amount.mul(ICO.bonus).div(100);\n    }\n\n    /**\n     * @dev Source of tokens. Override this method to modify the way in which the crowdsale ultimately gets and sends its tokens.\n     * @param _beneficiary Address performing the token purchase\n     * @param _tokenAmount Number of tokens to be emitted\n     */\n    function _deliverTokens(address _beneficiary, uint256 _tokenAmount) internal {\n        token.transfer(_beneficiary, _tokenAmount);\n    }\n\n    /**\n     * @dev Override for extensions that require an internal state to check for validity (current user contributions, etc.)\n     * @param _tokens Tokens which are purchased\n     */\n    function _updatePurchasingState(uint256 _tokens, uint256 _wei, uint256 _usdAmount) internal {\n        tokensSold = tokensSold.add(_tokens);\n        weiRaised = weiRaised.add(_wei);\n        usdRaised = usdRaised.add(_usdAmount);\n\n        ICO.tokens = ICO.tokens.sub(_tokens);\n\n        if (ICO.tokens == 0) {\n            ICO.finished = true;\n            emit StageFinished(now);\n        }\n    }\n\n    /**\n     * @dev Determines how ETH is stored/forwarded on purchases.\n     */\n    function _forwardFunds() internal {\n        vault.deposit.value(msg.value)(msg.sender);\n    }\n\n    /**\n     * @dev Validation of an executed purchase. Observe state and use revert statements to undo rollback when valid conditions are not met.\n     */\n    function _postValidatePurchase() internal {\n        if (!softCapReached && usdRaised >= softCap) {\n            softCapReached = true;\n\n            emit SoftCapReached(now);\n        }\n    }\n\n    /**\n     * @dev Start crowdsale phase\n     */\n    function startPhase(uint256 _tokens, uint256 _bonus, uint256 _startDate, uint256 _finishDate) public onlyOwner {\n        require(_tokens <= token.balanceOf(this), \"startPhase: amount of tokens is not enough for start\");\n        require(_startDate != 0 && _finishDate != 0, \"startPhase: finishdate/startdate are not correct\");\n        require(_bonus < 100, \"startPhase: the bonus size should be smaller of 100\");\n\n        ICO = Ico(_tokens, _bonus, _startDate, _finishDate, false);\n        stage = stage.add(1);\n\n        emit StageStarted(_tokens, _bonus, _startDate, _finishDate);\n    }\n\n    /**\n     * @dev Finish the crowdsale, enable refund or send all money to owner address\n     */\n    function finalizeCrowdsale() external onlyOwner {\n        require(finalizeIsAvailable, \"finalizeCrowdsale: finalize is not available yet\");\n        require(stage == 3, \"finalizeCrowdsale: finalize is not available yet\");\n\n        finalizeIsAvailable = false;\n\n        if (softCapReached == true) {\n            vault.close();\n        } else {\n            vault.enableRefunds();\n        }\n        stage = stage.add(1);\n        token.burn(token.balanceOf(this));\n    }\n\n    function transferTokensToNonETHBuyers(address _contributor, uint256 _amount) external onlyOwner {\n        require(_contributor != address(0));\n        require(_amount >= 0);\n\n        token.transfer(_contributor, _amount);\n    }\n\n    function transferERC20(address _token, address _contributor, uint256 _amount) external onlyOwner {\n        ERC20(_token).transfer(_contributor, _amount);\n    }\n\n    /**\n     * @dev Get crowdsale current status (string)\n     */\n    function crowdSaleStatus() external constant returns(string) {\n        if (0 == stage) {\n            return \"ICO does not start yet.\";\n        } else if (1 == stage) {\n            return \"Private sale\";\n        } else if (2 == stage) {\n            return \"Pre sale\";\n        } else if (3 == stage) {\n            return \"Main sale\";\n        }\n\n        return \"Crowdsale finished!\";\n    }\n\n    /**\n     * @dev selfDistruct\n     */\n    function killContract() external onlyOwner {\n        require(!finalizeIsAvailable, \"finalizeCrowdsale: finalize is not available yet\");\n\n        selfdestruct(owner);\n    }\n}",
  "sourcePath": "/Users/arikdonovan/Desktop/TokenSmartContract/contracts/CaleroICO.sol",
  "compiler": {
    "name": "solc",
    "version": "0.4.24+commit.e67f0147.Emscripten.clang"
  },
  "schemaVersion": "2.0.0",
  "updatedAt": "2018-08-07T23:52:42.427Z"
}