{
  "contractName": "CrowdsaleDeployer",
  "abi": [
    {
      "constant": false,
      "inputs": [
        {
          "name": "_tokenAddress",
          "type": "address"
        }
      ],
      "name": "deployCrowdsaleContract",
      "outputs": [
        {
          "name": "ico",
          "type": "CaleroICO"
        }
      ],
      "payable": false,
      "stateMutability": "nonpayable",
      "type": "function"
    }
  ],
  "bytecode": "0x612142610030600b82828239805160001a6073146000811461002057610022565bfe5b5030600052607381538281f3007300000000000000000000000000000000000000003014608060405260043610610058576000357c0100000000000000000000000000000000000000000000000000000000900463ffffffff16806328f31b881461005d575b600080fd5b81801561006957600080fd5b5061009e600480360381019080803573ffffffffffffffffffffffffffffffffffffffff1690602001909291905050506100e0565b604051808273ffffffffffffffffffffffffffffffffffffffff1673ffffffffffffffffffffffffffffffffffffffff16815260200191505060405180910390f35b6000816100eb610145565b808273ffffffffffffffffffffffffffffffffffffffff1673ffffffffffffffffffffffffffffffffffffffff168152602001915050604051809103906000f08015801561013d573d6000803e3d6000fd5b509050919050565b604051611fc18061015683390190560060806040526028600155624c4b40600555600060065567016345785d8a00006007556000600860006101000a81548160ff0219169083151502179055506000600860016101000a81548160ff0219169083151502179055506001600860026101000a81548160ff02191690831515021790555034801561007e57600080fd5b5060405160208062001fc183398101806040528101908080519060200190929190505050336000806101000a81548173ffffffffffffffffffffffffffffffffffffffff021916908373ffffffffffffffffffffffffffffffffffffffff16021790555080600860036101000a81548173ffffffffffffffffffffffffffffffffffffffff021916908373ffffffffffffffffffffffffffffffffffffffff16021790555073__VaultDeployer_________________________63150bced033600860039054906101000a900473ffffffffffffffffffffffffffffffffffffffff166040518363ffffffff167c0100000000000000000000000000000000000000000000000000000000028152600401808373ffffffffffffffffffffffffffffffffffffffff1673ffffffffffffffffffffffffffffffffffffffff1681526020018273ffffffffffffffffffffffffffffffffffffffff1673ffffffffffffffffffffffffffffffffffffffff1681526020019250505060206040518083038186803b15801561021057600080fd5b505af4158015610224573d6000803e3d6000fd5b505050506040513d602081101561023a57600080fd5b8101908080519060200190929190505050600a60006101000a81548173ffffffffffffffffffffffffffffffffffffffff021916908373ffffffffffffffffffffffffffffffffffffffff16021790555073__OraclizeDeployer______________________635b0360556040518163ffffffff167c010000000000000000000000000000000000000000000000000000000002815260040160206040518083038186803b1580156102eb57600080fd5b505af41580156102ff573d6000803e3d6000fd5b505050506040513d602081101561031557600080fd5b8101908080519060200190929190505050600960006101000a81548173ffffffffffffffffffffffffffffffffffffffff021916908373ffffffffffffffffffffffffffffffffffffffff16021790555050611c4a80620003776000396000f30060806040526004361061013e576000357c0100000000000000000000000000000000000000000000000000000000900463ffffffff1680630bf318a3146101495780631c02708d14610160578063273ba6bb146101775780632b9edee9146101c2578063301a9b09146101f15780633d9aa9321461023c5780634042b66f1461029357806345d5149f146102be578063518ab2a8146102e9578063715018a61461031457806377216e361461032b5780637b1b1de6146103785780638da5cb5b146103a3578063906a26e0146103fa57806393a3658b146104255780639762f802146104545780639db5dbe414610483578063c040e6b8146104f0578063d12f69381461051b578063eadd94ec146105ab578063ec8ac4d8146105d6578063f2fde38b1461060c578063fbfa77cf1461064f578063fc0c546a146106a6575b610147336106fd565b005b34801561015557600080fd5b5061015e6107de565b005b34801561016c57600080fd5b50610175610b25565b005b34801561018357600080fd5b5061018c610bd6565b60405180868152602001858152602001848152602001838152602001821515151581526020019550505050505060405180910390f35b3480156101ce57600080fd5b506101d7610c07565b604051808215151515815260200191505060405180910390f35b3480156101fd57600080fd5b5061023a60048036038101908080359060200190929190803590602001909291908035906020019092919080359060200190929190505050610c1a565b005b34801561024857600080fd5b50610251610e90565b604051808273ffffffffffffffffffffffffffffffffffffffff1673ffffffffffffffffffffffffffffffffffffffff16815260200191505060405180910390f35b34801561029f57600080fd5b506102a8610eb6565b6040518082815260200191505060405180910390f35b3480156102ca57600080fd5b506102d3610ebc565b6040518082815260200191505060405180910390f35b3480156102f557600080fd5b506102fe610ec2565b6040518082815260200191505060405180910390f35b34801561032057600080fd5b50610329610ec8565b005b34801561033757600080fd5b50610376600480360381019080803573ffffffffffffffffffffffffffffffffffffffff16906020019092919080359060200190929190505050610fca565b005b34801561038457600080fd5b5061038d611176565b6040518082815260200191505060405180910390f35b3480156103af57600080fd5b506103b861117c565b604051808273ffffffffffffffffffffffffffffffffffffffff1673ffffffffffffffffffffffffffffffffffffffff16815260200191505060405180910390f35b34801561040657600080fd5b5061040f6111a1565b6040518082815260200191505060405180910390f35b34801561043157600080fd5b5061043a6111a7565b604051808215151515815260200191505060405180910390f35b34801561046057600080fd5b506104696111ba565b604051808215151515815260200191505060405180910390f35b34801561048f57600080fd5b506104ee600480360381019080803573ffffffffffffffffffffffffffffffffffffffff169060200190929190803573ffffffffffffffffffffffffffffffffffffffff169060200190929190803590602001909291905050506111cd565b005b3480156104fc57600080fd5b50610505611394565b6040518082815260200191505060405180910390f35b34801561052757600080fd5b5061053061139a565b6040518080602001828103825283818151815260200191508051906020019080838360005b83811015610570578082015181840152602081019050610555565b50505050905090810190601f16801561059d5780820380516001836020036101000a031916815260200191505b509250505060405180910390f35b3480156105b757600080fd5b506105c06114f8565b6040518082815260200191505060405180910390f35b61060a600480360381019080803573ffffffffffffffffffffffffffffffffffffffff1690602001909291905050506106fd565b005b34801561061857600080fd5b5061064d600480360381019080803573ffffffffffffffffffffffffffffffffffffffff1690602001909291905050506114fe565b005b34801561065b57600080fd5b50610664611565565b604051808273ffffffffffffffffffffffffffffffffffffffff1673ffffffffffffffffffffffffffffffffffffffff16815260200191505060405180910390f35b3480156106b257600080fd5b506106bb61158b565b604051808273ffffffffffffffffffffffffffffffffffffffff1673ffffffffffffffffffffffffffffffffffffffff16815260200191505060405180910390f35b6000806000600b600301544210151561071557600080fd5b600b600201544211151561072857600080fd5b60001515600b60040160009054906101000a900460ff16151514151561074d57600080fd5b61075784346115b1565b61076034611602565b925061076b836116fd565b91506000600b6001015414151561079d576107858261173a565b905061079a818361176e90919063ffffffff16565b91505b6107b160648461178a90919063ffffffff16565b92506107bd84836117a0565b6107c88234856118a5565b6107d0611980565b6107d8611a58565b50505050565b600860029054906101000a900460ff1615156107f957600080fd5b600360065411151561080a57600080fd5b6000600860026101000a81548160ff02191690831515021790555060011515600860009054906101000a900460ff16151514156108e457600a60009054906101000a900473ffffffffffffffffffffffffffffffffffffffff1673ffffffffffffffffffffffffffffffffffffffff166343d726d66040518163ffffffff167c0100000000000000000000000000000000000000000000000000000000028152600401600060405180830381600087803b1580156108c757600080fd5b505af11580156108db573d6000803e3d6000fd5b50505050610983565b600a60009054906101000a900473ffffffffffffffffffffffffffffffffffffffff1673ffffffffffffffffffffffffffffffffffffffff16638c52dc416040518163ffffffff167c0100000000000000000000000000000000000000000000000000000000028152600401600060405180830381600087803b15801561096a57600080fd5b505af115801561097e573d6000803e3d6000fd5b505050505b600860039054906101000a900473ffffffffffffffffffffffffffffffffffffffff1673ffffffffffffffffffffffffffffffffffffffff166342966c68600860039054906101000a900473ffffffffffffffffffffffffffffffffffffffff1673ffffffffffffffffffffffffffffffffffffffff166370a08231306040518263ffffffff167c0100000000000000000000000000000000000000000000000000000000028152600401808273ffffffffffffffffffffffffffffffffffffffff1673ffffffffffffffffffffffffffffffffffffffff168152602001915050602060405180830381600087803b158015610a7e57600080fd5b505af1158015610a92573d6000803e3d6000fd5b505050506040513d6020811015610aa857600080fd5b81019080805190602001909291905050506040518263ffffffff167c010000000000000000000000000000000000000000000000000000000002815260040180828152602001915050600060405180830381600087803b158015610b0b57600080fd5b505af1158015610b1f573d6000803e3d6000fd5b50505050565b6000809054906101000a900473ffffffffffffffffffffffffffffffffffffffff1673ffffffffffffffffffffffffffffffffffffffff163373ffffffffffffffffffffffffffffffffffffffff16141515610b8057600080fd5b600860029054906101000a900460ff16151515610b9c57600080fd5b6000809054906101000a900473ffffffffffffffffffffffffffffffffffffffff1673ffffffffffffffffffffffffffffffffffffffff16ff5b600b8060000154908060010154908060020154908060030154908060040160009054906101000a900460ff16905085565b600860009054906101000a900460ff1681565b6000809054906101000a900473ffffffffffffffffffffffffffffffffffffffff1673ffffffffffffffffffffffffffffffffffffffff163373ffffffffffffffffffffffffffffffffffffffff16141515610c7557600080fd5b600860039054906101000a900473ffffffffffffffffffffffffffffffffffffffff1673ffffffffffffffffffffffffffffffffffffffff166370a08231306040518263ffffffff167c0100000000000000000000000000000000000000000000000000000000028152600401808273ffffffffffffffffffffffffffffffffffffffff1673ffffffffffffffffffffffffffffffffffffffff168152602001915050602060405180830381600087803b158015610d3257600080fd5b505af1158015610d46573d6000803e3d6000fd5b505050506040513d6020811015610d5c57600080fd5b81019080805190602001909291905050508411151515610d7b57600080fd5b60008214158015610d8d575060008114155b1515610d9857600080fd5b606483101515610da757600080fd5b60a06040519081016040528085815260200184815260200183815260200182815260200160001515815250600b6000820151816000015560208201518160010155604082015181600201556060820151816003015560808201518160040160006101000a81548160ff021916908315150217905550905050610e35600160065461176e90919063ffffffff16565b6006819055507fb66dec5af7ecdc905a873094a7a5e75d87c437ee0aafd10568f0c95095ea83d9848484846040518085815260200184815260200183815260200182815260200194505050505060405180910390a150505050565b600960009054906101000a900473ffffffffffffffffffffffffffffffffffffffff1681565b60025481565b60075481565b60045481565b6000809054906101000a900473ffffffffffffffffffffffffffffffffffffffff1673ffffffffffffffffffffffffffffffffffffffff163373ffffffffffffffffffffffffffffffffffffffff16141515610f2357600080fd5b6000809054906101000a900473ffffffffffffffffffffffffffffffffffffffff1673ffffffffffffffffffffffffffffffffffffffff167ff8df31144d9c2f0f6b59d69b8b98abd5459d07f2742c4df920b25aae33c6482060405160405180910390a260008060006101000a81548173ffffffffffffffffffffffffffffffffffffffff021916908373ffffffffffffffffffffffffffffffffffffffff160217905550565b6000809054906101000a900473ffffffffffffffffffffffffffffffffffffffff1673ffffffffffffffffffffffffffffffffffffffff163373ffffffffffffffffffffffffffffffffffffffff1614151561102557600080fd5b600073ffffffffffffffffffffffffffffffffffffffff168273ffffffffffffffffffffffffffffffffffffffff161415151561106157600080fd5b6000811015151561107157600080fd5b600860039054906101000a900473ffffffffffffffffffffffffffffffffffffffff1673ffffffffffffffffffffffffffffffffffffffff1663a9059cbb83836040518363ffffffff167c0100000000000000000000000000000000000000000000000000000000028152600401808373ffffffffffffffffffffffffffffffffffffffff1673ffffffffffffffffffffffffffffffffffffffff16815260200182815260200192505050602060405180830381600087803b15801561113657600080fd5b505af115801561114a573d6000803e3d6000fd5b505050506040513d602081101561116057600080fd5b8101908080519060200190929190505050505050565b60015481565b6000809054906101000a900473ffffffffffffffffffffffffffffffffffffffff1681565b60055481565b600860029054906101000a900460ff1681565b600860019054906101000a900460ff1681565b6000809054906101000a900473ffffffffffffffffffffffffffffffffffffffff1673ffffffffffffffffffffffffffffffffffffffff163373ffffffffffffffffffffffffffffffffffffffff1614151561122857600080fd5b600073ffffffffffffffffffffffffffffffffffffffff168373ffffffffffffffffffffffffffffffffffffffff161415151561126457600080fd5b600073ffffffffffffffffffffffffffffffffffffffff168273ffffffffffffffffffffffffffffffffffffffff16141515156112a057600080fd5b600081101515156112b057600080fd5b8273ffffffffffffffffffffffffffffffffffffffff1663a9059cbb83836040518363ffffffff167c0100000000000000000000000000000000000000000000000000000000028152600401808373ffffffffffffffffffffffffffffffffffffffff1673ffffffffffffffffffffffffffffffffffffffff16815260200182815260200192505050602060405180830381600087803b15801561135357600080fd5b505af1158015611367573d6000803e3d6000fd5b505050506040513d602081101561137d57600080fd5b810190808051906020019092919050505050505050565b60065481565b6060600654600014156113e4576040805190810160405280601781526020017f49434f20646f6573206e6f74207374617274207965742e00000000000000000081525090506114f5565b6006546001141561142c576040805190810160405280600c81526020017f507269766174652073616c65000000000000000000000000000000000000000081525090506114f5565b60065460021415611474576040805190810160405280600881526020017f5072652073616c6500000000000000000000000000000000000000000000000081525090506114f5565b600654600314156114bc576040805190810160405280600981526020017f4d61696e2073616c65000000000000000000000000000000000000000000000081525090506114f5565b6040805190810160405280601381526020017f43726f776473616c652066696e6973686564210000000000000000000000000081525090505b90565b60035481565b6000809054906101000a900473ffffffffffffffffffffffffffffffffffffffff1673ffffffffffffffffffffffffffffffffffffffff163373ffffffffffffffffffffffffffffffffffffffff1614151561155957600080fd5b61156281611ad3565b50565b600a60009054906101000a900473ffffffffffffffffffffffffffffffffffffffff1681565b600860039054906101000a900473ffffffffffffffffffffffffffffffffffffffff1681565b600073ffffffffffffffffffffffffffffffffffffffff168273ffffffffffffffffffffffffffffffffffffffff16141515156115ed57600080fd5b60075481101515156115fe57600080fd5b5050565b6000806116f2670de0b6b3a76400006116e4600960009054906101000a900473ffffffffffffffffffffffffffffffffffffffff1673ffffffffffffffffffffffffffffffffffffffff166367c9b0176040518163ffffffff167c0100000000000000000000000000000000000000000000000000000000028152600401602060405180830381600087803b15801561169a57600080fd5b505af11580156116ae573d6000803e3d6000fd5b505050506040513d60208110156116c457600080fd5b810190808051906020019092919050505086611bcd90919063ffffffff16565b61178a90919063ffffffff16565b905080915050919050565b60008061172f670de0b6b3a76400006117216001548661178a90919063ffffffff16565b611bcd90919063ffffffff16565b905080915050919050565b60006117676064611759600b6001015485611bcd90919063ffffffff16565b61178a90919063ffffffff16565b9050919050565b6000818301905082811015151561178157fe5b80905092915050565b6000818381151561179757fe5b04905092915050565b600860039054906101000a900473ffffffffffffffffffffffffffffffffffffffff1673ffffffffffffffffffffffffffffffffffffffff1663a9059cbb83836040518363ffffffff167c0100000000000000000000000000000000000000000000000000000000028152600401808373ffffffffffffffffffffffffffffffffffffffff1673ffffffffffffffffffffffffffffffffffffffff16815260200182815260200192505050602060405180830381600087803b15801561186557600080fd5b505af1158015611879573d6000803e3d6000fd5b505050506040513d602081101561188f57600080fd5b8101908080519060200190929190505050505050565b6118ba8360045461176e90919063ffffffff16565b6004819055506118d58260025461176e90919063ffffffff16565b6002819055506118f08160035461176e90919063ffffffff16565b60038190555061190e83600b60000154611c0590919063ffffffff16565b600b600001819055506000600b60000154141561197b576001600b60040160006101000a81548160ff0219169083151502179055507f0ccc5ba6ec689e598296300fe973143074a851339dfe62903b60525adcbaad2a426040518082815260200191505060405180910390a15b505050565b600a60009054906101000a900473ffffffffffffffffffffffffffffffffffffffff1673ffffffffffffffffffffffffffffffffffffffff1663f340fa0134336040518363ffffffff167c0100000000000000000000000000000000000000000000000000000000028152600401808273ffffffffffffffffffffffffffffffffffffffff1673ffffffffffffffffffffffffffffffffffffffff1681526020019150506000604051808303818588803b158015611a3d57600080fd5b505af1158015611a51573d6000803e3d6000fd5b5050505050565b600860009054906101000a900460ff16158015611a79575060055460035410155b15611ad1576001600860006101000a81548160ff0219169083151502179055507f42ef6182c6d744dd081ab962505f40413083376dfcc13e58b60f4f32e9673809426040518082815260200191505060405180910390a15b565b600073ffffffffffffffffffffffffffffffffffffffff168173ffffffffffffffffffffffffffffffffffffffff1614151515611b0f57600080fd5b8073ffffffffffffffffffffffffffffffffffffffff166000809054906101000a900473ffffffffffffffffffffffffffffffffffffffff1673ffffffffffffffffffffffffffffffffffffffff167f8be0079c531659141344cd1fd0a4f28419497f9722a3daafe3b4186f6b6457e060405160405180910390a3806000806101000a81548173ffffffffffffffffffffffffffffffffffffffff021916908373ffffffffffffffffffffffffffffffffffffffff16021790555050565b600080831415611be05760009050611bff565b8183029050818382811515611bf157fe5b04141515611bfb57fe5b8090505b92915050565b6000828211151515611c1357fe5b8183039050929150505600a165627a7a72305820a8da23769d1aeecd2dd20336e3bdc718278bc36a0bc8669d2d2087c07d78d40b0029a165627a7a72305820f3da23bea3d879cfcdb5bd791674821930d9d1d669dbcdef59c76649d86347f60029",
  "source": "pragma solidity ^0.4.24;\n\nimport \"../CaleroICO.sol\";\n\nlibrary CrowdsaleDeployer {\n    function deployCrowdsaleContract(address _tokenAddress) public returns(CaleroICO ico) {\n        ico = new CaleroICO(_tokenAddress);\n    }\n}",
  "sourcePath": "/Users/arikdonovan/Desktop/TokenSmartContract/contracts/deployers/CrowdsaleDeployer.sol",
  "compiler": {
    "name": "solc",
    "version": "0.4.24+commit.e67f0147.Emscripten.clang"
  },
  "schemaVersion": "2.0.0",
  "updatedAt": "2018-07-29T13:00:43.338Z"
}