{
  "contractName": "CrowdsaleDeployer",
  "abi": [
    {
      "constant": false,
      "inputs": [
        {
          "name": "_tokenAddress",
          "type": "address"
        }
      ],
      "name": "deployCrowdsaleContract",
      "outputs": [
        {
          "name": "ico",
          "type": "CaleroICO"
        }
      ],
      "payable": false,
      "stateMutability": "nonpayable",
      "type": "function"
    }
  ],
  "bytecode": "0x612558610030600b82828239805160001a6073146000811461002057610022565bfe5b5030600052607381538281f3007300000000000000000000000000000000000000003014608060405260043610610058576000357c0100000000000000000000000000000000000000000000000000000000900463ffffffff16806328f31b881461005d575b600080fd5b81801561006957600080fd5b5061009e600480360381019080803573ffffffffffffffffffffffffffffffffffffffff1690602001909291905050506100e0565b604051808273ffffffffffffffffffffffffffffffffffffffff1673ffffffffffffffffffffffffffffffffffffffff16815260200191505060405180910390f35b6000816100eb610145565b808273ffffffffffffffffffffffffffffffffffffffff1673ffffffffffffffffffffffffffffffffffffffff168152602001915050604051809103906000f08015801561013d573d6000803e3d6000fd5b509050919050565b6040516123d78061015683390190560060806040526028600155624c4b40600555600060065567016345785d8a00006007556000600860006101000a81548160ff0219169083151502179055506000600860016101000a81548160ff0219169083151502179055506001600860026101000a81548160ff0219169083151502179055503480156200007f57600080fd5b50604051602080620023d783398101806040528101908080519060200190929190505050336000806101000a81548173ffffffffffffffffffffffffffffffffffffffff021916908373ffffffffffffffffffffffffffffffffffffffff16021790555080600860036101000a81548173ffffffffffffffffffffffffffffffffffffffff021916908373ffffffffffffffffffffffffffffffffffffffff16021790555073__VaultDeployer_________________________63150bced033600860039054906101000a900473ffffffffffffffffffffffffffffffffffffffff166040518363ffffffff167c0100000000000000000000000000000000000000000000000000000000028152600401808373ffffffffffffffffffffffffffffffffffffffff1673ffffffffffffffffffffffffffffffffffffffff1681526020018273ffffffffffffffffffffffffffffffffffffffff1673ffffffffffffffffffffffffffffffffffffffff1681526020019250505060206040518083038186803b1580156200021257600080fd5b505af415801562000227573d6000803e3d6000fd5b505050506040513d60208110156200023e57600080fd5b8101908080519060200190929190505050600a60006101000a81548173ffffffffffffffffffffffffffffffffffffffff021916908373ffffffffffffffffffffffffffffffffffffffff16021790555073__OraclizeDeployer______________________635b0360556040518163ffffffff167c010000000000000000000000000000000000000000000000000000000002815260040160206040518083038186803b158015620002f057600080fd5b505af415801562000305573d6000803e3d6000fd5b505050506040513d60208110156200031c57600080fd5b8101908080519060200190929190505050600960006101000a81548173ffffffffffffffffffffffffffffffffffffffff021916908373ffffffffffffffffffffffffffffffffffffffff16021790555050612059806200037e6000396000f30060806040526004361061013e576000357c0100000000000000000000000000000000000000000000000000000000900463ffffffff1680630bf318a3146101495780631c02708d14610160578063273ba6bb146101775780632b9edee9146101c2578063301a9b09146101f15780633d9aa9321461023c5780634042b66f1461029357806345d5149f146102be578063518ab2a8146102e9578063715018a61461031457806377216e361461032b5780637b1b1de6146103785780638da5cb5b146103a3578063906a26e0146103fa57806393a3658b146104255780639762f802146104545780639db5dbe414610483578063c040e6b8146104f0578063d12f69381461051b578063eadd94ec146105ab578063ec8ac4d8146105d6578063f2fde38b1461060c578063fbfa77cf1461064f578063fc0c546a146106a6575b610147336106fd565b005b34801561015557600080fd5b5061015e6107de565b005b34801561016c57600080fd5b50610175610c43565b005b34801561018357600080fd5b5061018c610d83565b60405180868152602001858152602001848152602001838152602001821515151581526020019550505050505060405180910390f35b3480156101ce57600080fd5b506101d7610db4565b604051808215151515815260200191505060405180910390f35b3480156101fd57600080fd5b5061023a60048036038101908080359060200190929190803590602001909291908035906020019092919080359060200190929190505050610dc7565b005b34801561024857600080fd5b506102516111ea565b604051808273ffffffffffffffffffffffffffffffffffffffff1673ffffffffffffffffffffffffffffffffffffffff16815260200191505060405180910390f35b34801561029f57600080fd5b506102a8611210565b6040518082815260200191505060405180910390f35b3480156102ca57600080fd5b506102d3611216565b6040518082815260200191505060405180910390f35b3480156102f557600080fd5b506102fe61121c565b6040518082815260200191505060405180910390f35b34801561032057600080fd5b50610329611222565b005b34801561033757600080fd5b50610376600480360381019080803573ffffffffffffffffffffffffffffffffffffffff16906020019092919080359060200190929190505050611324565b005b34801561038457600080fd5b5061038d6114d0565b6040518082815260200191505060405180910390f35b3480156103af57600080fd5b506103b86114d6565b604051808273ffffffffffffffffffffffffffffffffffffffff1673ffffffffffffffffffffffffffffffffffffffff16815260200191505060405180910390f35b34801561040657600080fd5b5061040f6114fb565b6040518082815260200191505060405180910390f35b34801561043157600080fd5b5061043a611501565b604051808215151515815260200191505060405180910390f35b34801561046057600080fd5b50610469611514565b604051808215151515815260200191505060405180910390f35b34801561048f57600080fd5b506104ee600480360381019080803573ffffffffffffffffffffffffffffffffffffffff169060200190929190803573ffffffffffffffffffffffffffffffffffffffff16906020019092919080359060200190929190505050611527565b005b3480156104fc57600080fd5b506105056116ee565b6040518082815260200191505060405180910390f35b34801561052757600080fd5b506105306116f4565b6040518080602001828103825283818151815260200191508051906020019080838360005b83811015610570578082015181840152602081019050610555565b50505050905090810190601f16801561059d5780820380516001836020036101000a031916815260200191505b509250505060405180910390f35b3480156105b757600080fd5b506105c0611852565b6040518082815260200191505060405180910390f35b61060a600480360381019080803573ffffffffffffffffffffffffffffffffffffffff1690602001909291905050506106fd565b005b34801561061857600080fd5b5061064d600480360381019080803573ffffffffffffffffffffffffffffffffffffffff169060200190929190505050611858565b005b34801561065b57600080fd5b506106646118bf565b604051808273ffffffffffffffffffffffffffffffffffffffff1673ffffffffffffffffffffffffffffffffffffffff16815260200191505060405180910390f35b3480156106b257600080fd5b506106bb6118e5565b604051808273ffffffffffffffffffffffffffffffffffffffff1673ffffffffffffffffffffffffffffffffffffffff16815260200191505060405180910390f35b6000806000600b600301544210151561071557600080fd5b600b600201544211151561072857600080fd5b60001515600b60040160009054906101000a900460ff16151514151561074d57600080fd5b610757843461190b565b61076034611a11565b925061076b83611b0c565b91506000600b6001015414151561079d5761078582611b49565b905061079a8183611b7d90919063ffffffff16565b91505b6107b1606484611b9990919063ffffffff16565b92506107bd8483611baf565b6107c8823485611cb4565b6107d0611d8f565b6107d8611e67565b50505050565b600860029054906101000a900460ff161515610888576040517f08c379a00000000000000000000000000000000000000000000000000000000081526004018080602001828103825260308152602001807f66696e616c697a6543726f776473616c653a2066696e616c697a65206973206e81526020017f6f7420617661696c61626c65207965740000000000000000000000000000000081525060400191505060405180910390fd5b6003600654111515610928576040517f08c379a00000000000000000000000000000000000000000000000000000000081526004018080602001828103825260308152602001807f66696e616c697a6543726f776473616c653a2066696e616c697a65206973206e81526020017f6f7420617661696c61626c65207965740000000000000000000000000000000081525060400191505060405180910390fd5b6000600860026101000a81548160ff02191690831515021790555060011515600860009054906101000a900460ff1615151415610a0257600a60009054906101000a900473ffffffffffffffffffffffffffffffffffffffff1673ffffffffffffffffffffffffffffffffffffffff166343d726d66040518163ffffffff167c0100000000000000000000000000000000000000000000000000000000028152600401600060405180830381600087803b1580156109e557600080fd5b505af11580156109f9573d6000803e3d6000fd5b50505050610aa1565b600a60009054906101000a900473ffffffffffffffffffffffffffffffffffffffff1673ffffffffffffffffffffffffffffffffffffffff16638c52dc416040518163ffffffff167c0100000000000000000000000000000000000000000000000000000000028152600401600060405180830381600087803b158015610a8857600080fd5b505af1158015610a9c573d6000803e3d6000fd5b505050505b600860039054906101000a900473ffffffffffffffffffffffffffffffffffffffff1673ffffffffffffffffffffffffffffffffffffffff166342966c68600860039054906101000a900473ffffffffffffffffffffffffffffffffffffffff1673ffffffffffffffffffffffffffffffffffffffff166370a08231306040518263ffffffff167c0100000000000000000000000000000000000000000000000000000000028152600401808273ffffffffffffffffffffffffffffffffffffffff1673ffffffffffffffffffffffffffffffffffffffff168152602001915050602060405180830381600087803b158015610b9c57600080fd5b505af1158015610bb0573d6000803e3d6000fd5b505050506040513d6020811015610bc657600080fd5b81019080805190602001909291905050506040518263ffffffff167c010000000000000000000000000000000000000000000000000000000002815260040180828152602001915050600060405180830381600087803b158015610c2957600080fd5b505af1158015610c3d573d6000803e3d6000fd5b50505050565b6000809054906101000a900473ffffffffffffffffffffffffffffffffffffffff1673ffffffffffffffffffffffffffffffffffffffff163373ffffffffffffffffffffffffffffffffffffffff16141515610c9e57600080fd5b600860029054906101000a900460ff16151515610d49576040517f08c379a00000000000000000000000000000000000000000000000000000000081526004018080602001828103825260308152602001807f66696e616c697a6543726f776473616c653a2066696e616c697a65206973206e81526020017f6f7420617661696c61626c65207965740000000000000000000000000000000081525060400191505060405180910390fd5b6000809054906101000a900473ffffffffffffffffffffffffffffffffffffffff1673ffffffffffffffffffffffffffffffffffffffff16ff5b600b8060000154908060010154908060020154908060030154908060040160009054906101000a900460ff16905085565b600860009054906101000a900460ff1681565b6000809054906101000a900473ffffffffffffffffffffffffffffffffffffffff1673ffffffffffffffffffffffffffffffffffffffff163373ffffffffffffffffffffffffffffffffffffffff16141515610e2257600080fd5b600860039054906101000a900473ffffffffffffffffffffffffffffffffffffffff1673ffffffffffffffffffffffffffffffffffffffff166370a08231306040518263ffffffff167c0100000000000000000000000000000000000000000000000000000000028152600401808273ffffffffffffffffffffffffffffffffffffffff1673ffffffffffffffffffffffffffffffffffffffff168152602001915050602060405180830381600087803b158015610edf57600080fd5b505af1158015610ef3573d6000803e3d6000fd5b505050506040513d6020811015610f0957600080fd5b81019080805190602001909291905050508411151515610fb7576040517f08c379a00000000000000000000000000000000000000000000000000000000081526004018080602001828103825260348152602001807f737461727450686173653a20616d6f756e74206f6620746f6b656e732069732081526020017f6e6f7420656e6f75676820666f7220737461727400000000000000000000000081525060400191505060405180910390fd5b60008214158015610fc9575060008114155b1515611063576040517f08c379a00000000000000000000000000000000000000000000000000000000081526004018080602001828103825260308152602001807f737461727450686173653a2066696e697368646174652f73746172746461746581526020017f20617265206e6f7420636f72726563740000000000000000000000000000000081525060400191505060405180910390fd5b606483101515611101576040517f08c379a00000000000000000000000000000000000000000000000000000000081526004018080602001828103825260338152602001807f737461727450686173653a2074686520626f6e75732073697a652073686f756c81526020017f6420626520736d616c6c6572206f66203130300000000000000000000000000081525060400191505060405180910390fd5b60a06040519081016040528085815260200184815260200183815260200182815260200160001515815250600b6000820151816000015560208201518160010155604082015181600201556060820151816003015560808201518160040160006101000a81548160ff02191690831515021790555090505061118f6001600654611b7d90919063ffffffff16565b6006819055507fb66dec5af7ecdc905a873094a7a5e75d87c437ee0aafd10568f0c95095ea83d9848484846040518085815260200184815260200183815260200182815260200194505050505060405180910390a150505050565b600960009054906101000a900473ffffffffffffffffffffffffffffffffffffffff1681565b60025481565b60075481565b60045481565b6000809054906101000a900473ffffffffffffffffffffffffffffffffffffffff1673ffffffffffffffffffffffffffffffffffffffff163373ffffffffffffffffffffffffffffffffffffffff1614151561127d57600080fd5b6000809054906101000a900473ffffffffffffffffffffffffffffffffffffffff1673ffffffffffffffffffffffffffffffffffffffff167ff8df31144d9c2f0f6b59d69b8b98abd5459d07f2742c4df920b25aae33c6482060405160405180910390a260008060006101000a81548173ffffffffffffffffffffffffffffffffffffffff021916908373ffffffffffffffffffffffffffffffffffffffff160217905550565b6000809054906101000a900473ffffffffffffffffffffffffffffffffffffffff1673ffffffffffffffffffffffffffffffffffffffff163373ffffffffffffffffffffffffffffffffffffffff1614151561137f57600080fd5b600073ffffffffffffffffffffffffffffffffffffffff168273ffffffffffffffffffffffffffffffffffffffff16141515156113bb57600080fd5b600081101515156113cb57600080fd5b600860039054906101000a900473ffffffffffffffffffffffffffffffffffffffff1673ffffffffffffffffffffffffffffffffffffffff1663a9059cbb83836040518363ffffffff167c0100000000000000000000000000000000000000000000000000000000028152600401808373ffffffffffffffffffffffffffffffffffffffff1673ffffffffffffffffffffffffffffffffffffffff16815260200182815260200192505050602060405180830381600087803b15801561149057600080fd5b505af11580156114a4573d6000803e3d6000fd5b505050506040513d60208110156114ba57600080fd5b8101908080519060200190929190505050505050565b60015481565b6000809054906101000a900473ffffffffffffffffffffffffffffffffffffffff1681565b60055481565b600860029054906101000a900460ff1681565b600860019054906101000a900460ff1681565b6000809054906101000a900473ffffffffffffffffffffffffffffffffffffffff1673ffffffffffffffffffffffffffffffffffffffff163373ffffffffffffffffffffffffffffffffffffffff1614151561158257600080fd5b600073ffffffffffffffffffffffffffffffffffffffff168373ffffffffffffffffffffffffffffffffffffffff16141515156115be57600080fd5b600073ffffffffffffffffffffffffffffffffffffffff168273ffffffffffffffffffffffffffffffffffffffff16141515156115fa57600080fd5b6000811015151561160a57600080fd5b8273ffffffffffffffffffffffffffffffffffffffff1663a9059cbb83836040518363ffffffff167c0100000000000000000000000000000000000000000000000000000000028152600401808373ffffffffffffffffffffffffffffffffffffffff1673ffffffffffffffffffffffffffffffffffffffff16815260200182815260200192505050602060405180830381600087803b1580156116ad57600080fd5b505af11580156116c1573d6000803e3d6000fd5b505050506040513d60208110156116d757600080fd5b810190808051906020019092919050505050505050565b60065481565b60606006546000141561173e576040805190810160405280601781526020017f49434f20646f6573206e6f74207374617274207965742e000000000000000000815250905061184f565b60065460011415611786576040805190810160405280600c81526020017f507269766174652073616c650000000000000000000000000000000000000000815250905061184f565b600654600214156117ce576040805190810160405280600881526020017f5072652073616c65000000000000000000000000000000000000000000000000815250905061184f565b60065460031415611816576040805190810160405280600981526020017f4d61696e2073616c650000000000000000000000000000000000000000000000815250905061184f565b6040805190810160405280601381526020017f43726f776473616c652066696e6973686564210000000000000000000000000081525090505b90565b60035481565b6000809054906101000a900473ffffffffffffffffffffffffffffffffffffffff1673ffffffffffffffffffffffffffffffffffffffff163373ffffffffffffffffffffffffffffffffffffffff161415156118b357600080fd5b6118bc81611ee2565b50565b600a60009054906101000a900473ffffffffffffffffffffffffffffffffffffffff1681565b600860039054906101000a900473ffffffffffffffffffffffffffffffffffffffff1681565b600073ffffffffffffffffffffffffffffffffffffffff168273ffffffffffffffffffffffffffffffffffffffff161415151561194757600080fd5b6007548110151515611a0d576040517f08c379a00000000000000000000000000000000000000000000000000000000081526004018080602001828103825260508152602001807f5f70726556616c696461746550757263686173653a2045544820616d6f756e7481526020017f20697320736d616c6c6572207468616e20746865206d696e696d756d20636f6e81526020017f747269627574696f6e20616d6f756e740000000000000000000000000000000081525060600191505060405180910390fd5b5050565b600080611b01670de0b6b3a7640000611af3600960009054906101000a900473ffffffffffffffffffffffffffffffffffffffff1673ffffffffffffffffffffffffffffffffffffffff166367c9b0176040518163ffffffff167c0100000000000000000000000000000000000000000000000000000000028152600401602060405180830381600087803b158015611aa957600080fd5b505af1158015611abd573d6000803e3d6000fd5b505050506040513d6020811015611ad357600080fd5b810190808051906020019092919050505086611fdc90919063ffffffff16565b611b9990919063ffffffff16565b905080915050919050565b600080611b3e670de0b6b3a7640000611b3060015486611b9990919063ffffffff16565b611fdc90919063ffffffff16565b905080915050919050565b6000611b766064611b68600b6001015485611fdc90919063ffffffff16565b611b9990919063ffffffff16565b9050919050565b60008183019050828110151515611b9057fe5b80905092915050565b60008183811515611ba657fe5b04905092915050565b600860039054906101000a900473ffffffffffffffffffffffffffffffffffffffff1673ffffffffffffffffffffffffffffffffffffffff1663a9059cbb83836040518363ffffffff167c0100000000000000000000000000000000000000000000000000000000028152600401808373ffffffffffffffffffffffffffffffffffffffff1673ffffffffffffffffffffffffffffffffffffffff16815260200182815260200192505050602060405180830381600087803b158015611c7457600080fd5b505af1158015611c88573d6000803e3d6000fd5b505050506040513d6020811015611c9e57600080fd5b8101908080519060200190929190505050505050565b611cc983600454611b7d90919063ffffffff16565b600481905550611ce482600254611b7d90919063ffffffff16565b600281905550611cff81600354611b7d90919063ffffffff16565b600381905550611d1d83600b6000015461201490919063ffffffff16565b600b600001819055506000600b600001541415611d8a576001600b60040160006101000a81548160ff0219169083151502179055507f0ccc5ba6ec689e598296300fe973143074a851339dfe62903b60525adcbaad2a426040518082815260200191505060405180910390a15b505050565b600a60009054906101000a900473ffffffffffffffffffffffffffffffffffffffff1673ffffffffffffffffffffffffffffffffffffffff1663f340fa0134336040518363ffffffff167c0100000000000000000000000000000000000000000000000000000000028152600401808273ffffffffffffffffffffffffffffffffffffffff1673ffffffffffffffffffffffffffffffffffffffff1681526020019150506000604051808303818588803b158015611e4c57600080fd5b505af1158015611e60573d6000803e3d6000fd5b5050505050565b600860009054906101000a900460ff16158015611e88575060055460035410155b15611ee0576001600860006101000a81548160ff0219169083151502179055507f42ef6182c6d744dd081ab962505f40413083376dfcc13e58b60f4f32e9673809426040518082815260200191505060405180910390a15b565b600073ffffffffffffffffffffffffffffffffffffffff168173ffffffffffffffffffffffffffffffffffffffff1614151515611f1e57600080fd5b8073ffffffffffffffffffffffffffffffffffffffff166000809054906101000a900473ffffffffffffffffffffffffffffffffffffffff1673ffffffffffffffffffffffffffffffffffffffff167f8be0079c531659141344cd1fd0a4f28419497f9722a3daafe3b4186f6b6457e060405160405180910390a3806000806101000a81548173ffffffffffffffffffffffffffffffffffffffff021916908373ffffffffffffffffffffffffffffffffffffffff16021790555050565b600080831415611fef576000905061200e565b818302905081838281151561200057fe5b0414151561200a57fe5b8090505b92915050565b600082821115151561202257fe5b8183039050929150505600a165627a7a72305820641dfae7fed69f96f58fb6e1d0eb42e9098982495422ae9deea6a9e3b066f4360029a165627a7a7230582028d25a37b51885ad8fcd37a3d351fd95d03e391d1d9c81c38364849c3c0a75870029",
  "source": "pragma solidity ^0.4.24;\n\nimport \"../CaleroICO.sol\";\n\nlibrary CrowdsaleDeployer {\n    function deployCrowdsaleContract(address _tokenAddress) public returns(CaleroICO ico) {\n        ico = new CaleroICO(_tokenAddress);\n    }\n}",
  "sourcePath": "/Users/arikdonovan/Desktop/TokenSmartContract/contracts/deployers/CrowdsaleDeployer.sol",
  "compiler": {
    "name": "solc",
    "version": "0.4.24+commit.e67f0147.Emscripten.clang"
  },
  "schemaVersion": "2.0.0",
  "updatedAt": "2018-07-30T23:48:12.422Z"
}