{
  "contractName": "DoradoToken",
  "abi": [
    {
      "constant": true,
      "inputs": [],
      "name": "name",
      "outputs": [
        {
          "name": "",
          "type": "string"
        }
      ],
      "payable": false,
      "stateMutability": "view",
      "type": "function"
    },
    {
      "constant": false,
      "inputs": [
        {
          "name": "_spender",
          "type": "address"
        },
        {
          "name": "_value",
          "type": "uint256"
        }
      ],
      "name": "approve",
      "outputs": [
        {
          "name": "",
          "type": "bool"
        }
      ],
      "payable": false,
      "stateMutability": "nonpayable",
      "type": "function"
    },
    {
      "constant": true,
      "inputs": [],
      "name": "totalSupply",
      "outputs": [
        {
          "name": "",
          "type": "uint256"
        }
      ],
      "payable": false,
      "stateMutability": "view",
      "type": "function"
    },
    {
      "constant": true,
      "inputs": [
        {
          "name": "",
          "type": "address"
        }
      ],
      "name": "balances",
      "outputs": [
        {
          "name": "",
          "type": "uint256"
        }
      ],
      "payable": false,
      "stateMutability": "view",
      "type": "function"
    },
    {
      "constant": true,
      "inputs": [],
      "name": "decimals",
      "outputs": [
        {
          "name": "",
          "type": "uint8"
        }
      ],
      "payable": false,
      "stateMutability": "view",
      "type": "function"
    },
    {
      "constant": true,
      "inputs": [],
      "name": "BASE_RATE",
      "outputs": [
        {
          "name": "",
          "type": "uint256"
        }
      ],
      "payable": false,
      "stateMutability": "view",
      "type": "function"
    },
    {
      "constant": false,
      "inputs": [
        {
          "name": "_spender",
          "type": "address"
        },
        {
          "name": "_subtractedValue",
          "type": "uint256"
        }
      ],
      "name": "decreaseApproval",
      "outputs": [
        {
          "name": "success",
          "type": "bool"
        }
      ],
      "payable": false,
      "stateMutability": "nonpayable",
      "type": "function"
    },
    {
      "constant": true,
      "inputs": [
        {
          "name": "_owner",
          "type": "address"
        }
      ],
      "name": "balanceOf",
      "outputs": [
        {
          "name": "balance",
          "type": "uint256"
        }
      ],
      "payable": false,
      "stateMutability": "view",
      "type": "function"
    },
    {
      "constant": true,
      "inputs": [],
      "name": "timelockContractAddress",
      "outputs": [
        {
          "name": "",
          "type": "address"
        }
      ],
      "payable": false,
      "stateMutability": "view",
      "type": "function"
    },
    {
      "constant": true,
      "inputs": [],
      "name": "owner",
      "outputs": [
        {
          "name": "",
          "type": "address"
        }
      ],
      "payable": false,
      "stateMutability": "view",
      "type": "function"
    },
    {
      "constant": true,
      "inputs": [],
      "name": "symbol",
      "outputs": [
        {
          "name": "",
          "type": "string"
        }
      ],
      "payable": false,
      "stateMutability": "view",
      "type": "function"
    },
    {
      "constant": false,
      "inputs": [
        {
          "name": "_spender",
          "type": "address"
        },
        {
          "name": "_addedValue",
          "type": "uint256"
        }
      ],
      "name": "increaseApproval",
      "outputs": [
        {
          "name": "success",
          "type": "bool"
        }
      ],
      "payable": false,
      "stateMutability": "nonpayable",
      "type": "function"
    },
    {
      "constant": true,
      "inputs": [
        {
          "name": "_owner",
          "type": "address"
        },
        {
          "name": "_spender",
          "type": "address"
        }
      ],
      "name": "allowance",
      "outputs": [
        {
          "name": "remaining",
          "type": "uint256"
        }
      ],
      "payable": false,
      "stateMutability": "view",
      "type": "function"
    },
    {
      "constant": true,
      "inputs": [],
      "name": "tokenSaleClosed",
      "outputs": [
        {
          "name": "",
          "type": "bool"
        }
      ],
      "payable": false,
      "stateMutability": "view",
      "type": "function"
    },
    {
      "constant": false,
      "inputs": [
        {
          "name": "newOwner",
          "type": "address"
        }
      ],
      "name": "transferOwnership",
      "outputs": [],
      "payable": false,
      "stateMutability": "nonpayable",
      "type": "function"
    },
    {
      "constant": true,
      "inputs": [],
      "name": "TOKENS_SALE_HARD_CAP",
      "outputs": [
        {
          "name": "",
          "type": "uint256"
        }
      ],
      "payable": false,
      "stateMutability": "view",
      "type": "function"
    },
    {
      "inputs": [],
      "payable": false,
      "stateMutability": "nonpayable",
      "type": "constructor"
    },
    {
      "payable": true,
      "stateMutability": "payable",
      "type": "fallback"
    },
    {
      "anonymous": false,
      "inputs": [
        {
          "indexed": true,
          "name": "previousOwner",
          "type": "address"
        },
        {
          "indexed": true,
          "name": "newOwner",
          "type": "address"
        }
      ],
      "name": "OwnershipTransferred",
      "type": "event"
    },
    {
      "anonymous": false,
      "inputs": [
        {
          "indexed": true,
          "name": "owner",
          "type": "address"
        },
        {
          "indexed": true,
          "name": "spender",
          "type": "address"
        },
        {
          "indexed": false,
          "name": "value",
          "type": "uint256"
        }
      ],
      "name": "Approval",
      "type": "event"
    },
    {
      "anonymous": false,
      "inputs": [
        {
          "indexed": true,
          "name": "from",
          "type": "address"
        },
        {
          "indexed": true,
          "name": "to",
          "type": "address"
        },
        {
          "indexed": false,
          "name": "value",
          "type": "uint256"
        }
      ],
      "name": "Transfer",
      "type": "event"
    },
    {
      "constant": false,
      "inputs": [
        {
          "name": "_beneficiary",
          "type": "address"
        }
      ],
      "name": "purchaseTokens",
      "outputs": [],
      "payable": true,
      "stateMutability": "payable",
      "type": "function"
    },
    {
      "constant": false,
      "inputs": [
        {
          "name": "_addresses",
          "type": "address[]"
        },
        {
          "name": "_tokens",
          "type": "uint256[]"
        }
      ],
      "name": "issueTokensMulti",
      "outputs": [],
      "payable": false,
      "stateMutability": "nonpayable",
      "type": "function"
    },
    {
      "constant": false,
      "inputs": [
        {
          "name": "_beneficiary",
          "type": "address"
        },
        {
          "name": "_tokens",
          "type": "uint256"
        }
      ],
      "name": "issueTokens",
      "outputs": [],
      "payable": false,
      "stateMutability": "nonpayable",
      "type": "function"
    },
    {
      "constant": true,
      "inputs": [],
      "name": "price",
      "outputs": [
        {
          "name": "tokens",
          "type": "uint256"
        }
      ],
      "payable": false,
      "stateMutability": "view",
      "type": "function"
    },
    {
      "constant": false,
      "inputs": [],
      "name": "close",
      "outputs": [],
      "payable": false,
      "stateMutability": "nonpayable",
      "type": "function"
    },
    {
      "constant": false,
      "inputs": [
        {
          "name": "_from",
          "type": "address"
        },
        {
          "name": "_to",
          "type": "address"
        },
        {
          "name": "_value",
          "type": "uint256"
        }
      ],
      "name": "transferFrom",
      "outputs": [
        {
          "name": "",
          "type": "bool"
        }
      ],
      "payable": false,
      "stateMutability": "nonpayable",
      "type": "function"
    },
    {
      "constant": false,
      "inputs": [
        {
          "name": "_to",
          "type": "address"
        },
        {
          "name": "_value",
          "type": "uint256"
        }
      ],
      "name": "transfer",
      "outputs": [
        {
          "name": "",
          "type": "bool"
        }
      ],
      "payable": false,
      "stateMutability": "nonpayable",
      "type": "function"
    }
  ],
  "bytecode": "0x606060405260e060405190810160405280690ed2b525841adfc0000069ffffffffffffffffffff168152602001691da56a4b0835bf80000069ffffffffffffffffffff168152602001692c781f708c509f40000069ffffffffffffffffffff168152602001693c59e1867548d820000069ffffffffffffffffffff168152602001694c3ba39c5e411100000069ffffffffffffffffffff168152602001695c1d65b2473949e0000069ffffffffffffffffffff168152602001696bff27c8303182c0000069ffffffffffffffffffff168152506004906007620000e4929190620001b6565b5060e060405190810160405280602160ff168152602001601e60ff168152602001601b60ff168152602001601660ff168152602001601160ff168152602001600c60ff168152602001600760ff16815250600b9060076200014792919062000209565b506000600c60006101000a81548160ff02191690831515021790555034156200016f57600080fd5b33600360006101000a81548173ffffffffffffffffffffffffffffffffffffffff021916908373ffffffffffffffffffffffffffffffffffffffff16021790555062000305565b8260078101928215620001f6579160200282015b82811115620001f5578251829069ffffffffffffffffffff16905591602001919060010190620001ca565b5b509050620002059190620002aa565b5090565b826007601f01602090048101928215620002975791602002820160005b838211156200026657835183826101000a81548160ff021916908360ff160217905550926020019260010160208160000104928301926001030262000226565b8015620002955782816101000a81549060ff021916905560010160208160000104928301926001030262000266565b505b509050620002a69190620002d2565b5090565b620002cf91905b80821115620002cb576000816000905550600101620002b1565b5090565b90565b6200030291905b80821115620002fe57600081816101000a81549060ff021916905550600101620002d9565b5090565b90565b61289480620003156000396000f300606060405260043610610133576000357c0100000000000000000000000000000000000000000000000000000000900463ffffffff16806306fdde031461013e578063095ea7b3146101cc57806318160ddd1461022657806323b872dd1461024f57806327e235e3146102c8578063313ce5671461031557806341910f901461034457806343d726d61461036d578063475a9fa91461038257806366188463146103c457806370a082311461041e5780637fc88fe21461046b5780638da5cb5b146104c057806392e8438c1461051557806395d89b41146105af578063a035b1fe1461063d578063a9059cbb14610666578063ce557031146106c0578063d73dd623146106ee578063dd62ed3e14610748578063e55a07c2146107b4578063f2fde38b146107e1578063f946372c1461081a575b61013c33610843565b005b341561014957600080fd5b610151610967565b6040518080602001828103825283818151815260200191508051906020019080838360005b83811015610191578082015181840152602081019050610176565b50505050905090810190601f1680156101be5780820380516001836020036101000a031916815260200191505b509250505060405180910390f35b34156101d757600080fd5b61020c600480803573ffffffffffffffffffffffffffffffffffffffff169060200190919080359060200190919050506109a0565b604051808215151515815260200191505060405180910390f35b341561023157600080fd5b610239610a92565b6040518082815260200191505060405180910390f35b341561025a57600080fd5b6102ae600480803573ffffffffffffffffffffffffffffffffffffffff1690602001909190803573ffffffffffffffffffffffffffffffffffffffff16906020019091908035906020019091905050610a98565b604051808215151515815260200191505060405180910390f35b34156102d357600080fd5b6102ff600480803573ffffffffffffffffffffffffffffffffffffffff16906020019091905050610ac9565b6040518082815260200191505060405180910390f35b341561032057600080fd5b610328610ae1565b604051808260ff1660ff16815260200191505060405180910390f35b341561034f57600080fd5b610357610ae6565b6040518082815260200191505060405180910390f35b341561037857600080fd5b610380610aec565b005b341561038d57600080fd5b6103c2600480803573ffffffffffffffffffffffffffffffffffffffff16906020019091908035906020019091905050610c48565b005b34156103cf57600080fd5b610404600480803573ffffffffffffffffffffffffffffffffffffffff16906020019091908035906020019091905050610cce565b604051808215151515815260200191505060405180910390f35b341561042957600080fd5b610455600480803573ffffffffffffffffffffffffffffffffffffffff16906020019091905050610f5f565b6040518082815260200191505060405180910390f35b341561047657600080fd5b61047e610fa8565b604051808273ffffffffffffffffffffffffffffffffffffffff1673ffffffffffffffffffffffffffffffffffffffff16815260200191505060405180910390f35b34156104cb57600080fd5b6104d3610fce565b604051808273ffffffffffffffffffffffffffffffffffffffff1673ffffffffffffffffffffffffffffffffffffffff16815260200191505060405180910390f35b341561052057600080fd5b6105ad60048080359060200190820180359060200190808060200260200160405190810160405280939291908181526020018383602002808284378201915050505050509190803590602001908201803590602001908080602002602001604051908101604052809392919081815260200183836020028082843782019150505050505091905050610ff4565b005b34156105ba57600080fd5b6105c26110f5565b6040518080602001828103825283818151815260200191508051906020019080838360005b838110156106025780820151818401526020810190506105e7565b50505050905090810190601f16801561062f5780820380516001836020036101000a031916815260200191505b509250505060405180910390f35b341561064857600080fd5b61065061112e565b6040518082815260200191505060405180910390f35b341561067157600080fd5b6106a6600480803573ffffffffffffffffffffffffffffffffffffffff16906020019091908035906020019091905050611146565b604051808215151515815260200191505060405180910390f35b6106ec600480803573ffffffffffffffffffffffffffffffffffffffff16906020019091905050610843565b005b34156106f957600080fd5b61072e600480803573ffffffffffffffffffffffffffffffffffffffff16906020019091908035906020019091905050611175565b604051808215151515815260200191505060405180910390f35b341561075357600080fd5b61079e600480803573ffffffffffffffffffffffffffffffffffffffff1690602001909190803573ffffffffffffffffffffffffffffffffffffffff16906020019091905050611371565b6040518082815260200191505060405180910390f35b34156107bf57600080fd5b6107c76113f8565b604051808215151515815260200191505060405180910390f35b34156107ec57600080fd5b610818600480803573ffffffffffffffffffffffffffffffffffffffff1690602001909190505061140b565b005b341561082557600080fd5b61082d611563565b6040518082815260200191505060405180910390f35b6000696bff27c8303182c0000060005410801561086d5750600c60009054906101000a900460ff16155b80156108875750635a7b228067ffffffffffffffff164210155b151561089257600080fd5b662386f26fc1000034101515156108a857600080fd5b6108b134611571565b9050696bff27c8303182c000006108d38260005461169e90919063ffffffff16565b111515156108e057600080fd5b6108ea82826116bf565b600360009054906101000a900473ffffffffffffffffffffffffffffffffffffffff1673ffffffffffffffffffffffffffffffffffffffff166108fc3073ffffffffffffffffffffffffffffffffffffffff16319081150290604051600060405180830381858888f19350505050151561096357600080fd5b5050565b6040805190810160405280600b81526020017f446f7261646f546f6b656e00000000000000000000000000000000000000000081525081565b600081600260003373ffffffffffffffffffffffffffffffffffffffff1673ffffffffffffffffffffffffffffffffffffffff16815260200190815260200160002060008573ffffffffffffffffffffffffffffffffffffffff1673ffffffffffffffffffffffffffffffffffffffff168152602001908152602001600020819055508273ffffffffffffffffffffffffffffffffffffffff163373ffffffffffffffffffffffffffffffffffffffff167f8c5be1e5ebec7d5bd14f71427d1e84f3dd0314c0f7b2291e5b200ac8c7c3b925846040518082815260200191505060405180910390a36001905092915050565b60005481565b6000600c60009054906101000a900460ff161515610ab557600080fd5b610ac0848484611815565b90509392505050565b60016020528060005260406000206000915090505481565b600f81565b611a0b81565b600080600360009054906101000a900473ffffffffffffffffffffffffffffffffffffffff1673ffffffffffffffffffffffffffffffffffffffff163373ffffffffffffffffffffffffffffffffffffffff16141515610b4b57600080fd5b600c60009054906101000a900460ff16151515610b6757600080fd5b6930b453321fc603c00000915069370ea0d47cf61a8000009050610b8a82611bd4565b610b9381611e49565b610baa81830160005461169e90919063ffffffff16565b6000819055506001600c60006101000a81548160ff021916908315150217905550600360009054906101000a900473ffffffffffffffffffffffffffffffffffffffff1673ffffffffffffffffffffffffffffffffffffffff166108fc3073ffffffffffffffffffffffffffffffffffffffff16319081150290604051600060405180830381858888f193505050501515610c4457600080fd5b5050565b600360009054906101000a900473ffffffffffffffffffffffffffffffffffffffff1673ffffffffffffffffffffffffffffffffffffffff163373ffffffffffffffffffffffffffffffffffffffff16141515610ca457600080fd5b600c60009054906101000a900460ff16151515610cc057600080fd5b610cca82826116bf565b5050565b600080600260003373ffffffffffffffffffffffffffffffffffffffff1673ffffffffffffffffffffffffffffffffffffffff16815260200190815260200160002060008573ffffffffffffffffffffffffffffffffffffffff1673ffffffffffffffffffffffffffffffffffffffff16815260200190815260200160002054905080831115610ddf576000600260003373ffffffffffffffffffffffffffffffffffffffff1673ffffffffffffffffffffffffffffffffffffffff16815260200190815260200160002060008673ffffffffffffffffffffffffffffffffffffffff1673ffffffffffffffffffffffffffffffffffffffff16815260200190815260200160002081905550610e73565b610df28382611f3a90919063ffffffff16565b600260003373ffffffffffffffffffffffffffffffffffffffff1673ffffffffffffffffffffffffffffffffffffffff16815260200190815260200160002060008673ffffffffffffffffffffffffffffffffffffffff1673ffffffffffffffffffffffffffffffffffffffff168152602001908152602001600020819055505b8373ffffffffffffffffffffffffffffffffffffffff163373ffffffffffffffffffffffffffffffffffffffff167f8c5be1e5ebec7d5bd14f71427d1e84f3dd0314c0f7b2291e5b200ac8c7c3b925600260003373ffffffffffffffffffffffffffffffffffffffff1673ffffffffffffffffffffffffffffffffffffffff16815260200190815260200160002060008873ffffffffffffffffffffffffffffffffffffffff1673ffffffffffffffffffffffffffffffffffffffff168152602001908152602001600020546040518082815260200191505060405180910390a3600191505092915050565b6000600160008373ffffffffffffffffffffffffffffffffffffffff1673ffffffffffffffffffffffffffffffffffffffff168152602001908152602001600020549050919050565b600c60019054906101000a900473ffffffffffffffffffffffffffffffffffffffff1681565b600360009054906101000a900473ffffffffffffffffffffffffffffffffffffffff1681565b6000600360009054906101000a900473ffffffffffffffffffffffffffffffffffffffff1673ffffffffffffffffffffffffffffffffffffffff163373ffffffffffffffffffffffffffffffffffffffff1614151561105257600080fd5b600c60009054906101000a900460ff1615151561106e57600080fd5b8151835114151561107e57600080fd5b606483511115151561108f57600080fd5b600090505b81518110156110f0576110d583828151811015156110ae57fe5b9060200190602002015183838151811015156110c657fe5b906020019060200201516116bf565b6110e960018261169e90919063ffffffff16565b9050611094565b505050565b6040805190810160405280600381526020017f444f52000000000000000000000000000000000000000000000000000000000081525081565b6000611141670de0b6b3a7640000611571565b905090565b6000600c60009054906101000a900460ff16151561116357600080fd5b61116d8383611f56565b905092915050565b600061120682600260003373ffffffffffffffffffffffffffffffffffffffff1673ffffffffffffffffffffffffffffffffffffffff16815260200190815260200160002060008673ffffffffffffffffffffffffffffffffffffffff1673ffffffffffffffffffffffffffffffffffffffff1681526020019081526020016000205461169e90919063ffffffff16565b600260003373ffffffffffffffffffffffffffffffffffffffff1673ffffffffffffffffffffffffffffffffffffffff16815260200190815260200160002060008573ffffffffffffffffffffffffffffffffffffffff1673ffffffffffffffffffffffffffffffffffffffff168152602001908152602001600020819055508273ffffffffffffffffffffffffffffffffffffffff163373ffffffffffffffffffffffffffffffffffffffff167f8c5be1e5ebec7d5bd14f71427d1e84f3dd0314c0f7b2291e5b200ac8c7c3b925600260003373ffffffffffffffffffffffffffffffffffffffff1673ffffffffffffffffffffffffffffffffffffffff16815260200190815260200160002060008773ffffffffffffffffffffffffffffffffffffffff1673ffffffffffffffffffffffffffffffffffffffff168152602001908152602001600020546040518082815260200191505060405180910390a36001905092915050565b6000600260008473ffffffffffffffffffffffffffffffffffffffff1673ffffffffffffffffffffffffffffffffffffffff16815260200190815260200160002060008373ffffffffffffffffffffffffffffffffffffffff1673ffffffffffffffffffffffffffffffffffffffff16815260200190815260200160002054905092915050565b600c60009054906101000a900460ff1681565b600360009054906101000a900473ffffffffffffffffffffffffffffffffffffffff1673ffffffffffffffffffffffffffffffffffffffff163373ffffffffffffffffffffffffffffffffffffffff1614151561146757600080fd5b600073ffffffffffffffffffffffffffffffffffffffff168173ffffffffffffffffffffffffffffffffffffffff16141515156114a357600080fd5b8073ffffffffffffffffffffffffffffffffffffffff16600360009054906101000a900473ffffffffffffffffffffffffffffffffffffffff1673ffffffffffffffffffffffffffffffffffffffff167f8be0079c531659141344cd1fd0a4f28419497f9722a3daafe3b4186f6b6457e060405160405180910390a380600360006101000a81548173ffffffffffffffffffffffffffffffffffffffff021916908373ffffffffffffffffffffffffffffffffffffffff16021790555050565b696bff27c8303182c0000081565b60008060006402540be4006509184e72a000611598611a0b8761217a90919063ffffffff16565b8115156115a157fe5b040291506115ad6121b0565b9050600b8160ff166007811015156115c157fe5b602091828204019190069054906101000a900460ff1660640360ff166115f160648461217a90919063ffffffff16565b8115156115fa57fe5b0492505b60048160ff1660078110151561161057fe5b01546116276000548561169e90919063ffffffff16565b118015611637575060068160ff16105b15611697578080600101915050600b8160ff1660078110151561165657fe5b602091828204019190069054906101000a900460ff1660640360ff1661168660648461217a90919063ffffffff16565b81151561168f57fe5b0492506115fe565b5050919050565b60008082840190508381101515156116b557600080fd5b8091505092915050565b600073ffffffffffffffffffffffffffffffffffffffff168273ffffffffffffffffffffffffffffffffffffffff16141515156116fb57600080fd5b6117108160005461169e90919063ffffffff16565b60008190555061176881600160008573ffffffffffffffffffffffffffffffffffffffff1673ffffffffffffffffffffffffffffffffffffffff1681526020019081526020016000205461169e90919063ffffffff16565b600160008473ffffffffffffffffffffffffffffffffffffffff1673ffffffffffffffffffffffffffffffffffffffff168152602001908152602001600020819055508173ffffffffffffffffffffffffffffffffffffffff16600073ffffffffffffffffffffffffffffffffffffffff167fddf252ad1be2c89b69c2b068fc378daa952ba7f163c4a11628f55a4df523b3ef836040518082815260200191505060405180910390a35050565b60008073ffffffffffffffffffffffffffffffffffffffff168373ffffffffffffffffffffffffffffffffffffffff161415151561185257600080fd5b600160008573ffffffffffffffffffffffffffffffffffffffff1673ffffffffffffffffffffffffffffffffffffffff1681526020019081526020016000205482111515156118a057600080fd5b600260008573ffffffffffffffffffffffffffffffffffffffff1673ffffffffffffffffffffffffffffffffffffffff16815260200190815260200160002060003373ffffffffffffffffffffffffffffffffffffffff1673ffffffffffffffffffffffffffffffffffffffff16815260200190815260200160002054821115151561192b57600080fd5b61197d82600160008773ffffffffffffffffffffffffffffffffffffffff1673ffffffffffffffffffffffffffffffffffffffff16815260200190815260200160002054611f3a90919063ffffffff16565b600160008673ffffffffffffffffffffffffffffffffffffffff1673ffffffffffffffffffffffffffffffffffffffff16815260200190815260200160002081905550611a1282600160008673ffffffffffffffffffffffffffffffffffffffff1673ffffffffffffffffffffffffffffffffffffffff1681526020019081526020016000205461169e90919063ffffffff16565b600160008573ffffffffffffffffffffffffffffffffffffffff1673ffffffffffffffffffffffffffffffffffffffff16815260200190815260200160002081905550611ae482600260008773ffffffffffffffffffffffffffffffffffffffff1673ffffffffffffffffffffffffffffffffffffffff16815260200190815260200160002060003373ffffffffffffffffffffffffffffffffffffffff1673ffffffffffffffffffffffffffffffffffffffff16815260200190815260200160002054611f3a90919063ffffffff16565b600260008673ffffffffffffffffffffffffffffffffffffffff1673ffffffffffffffffffffffffffffffffffffffff16815260200190815260200160002060003373ffffffffffffffffffffffffffffffffffffffff1673ffffffffffffffffffffffffffffffffffffffff168152602001908152602001600020819055508273ffffffffffffffffffffffffffffffffffffffff168473ffffffffffffffffffffffffffffffffffffffff167fddf252ad1be2c89b69c2b068fc378daa952ba7f163c4a11628f55a4df523b3ef846040518082815260200191505060405180910390a3600190509392505050565b600030600360009054906101000a900473ffffffffffffffffffffffffffffffffffffffff16635fee6600611c076122da565b808473ffffffffffffffffffffffffffffffffffffffff1673ffffffffffffffffffffffffffffffffffffffff1681526020018373ffffffffffffffffffffffffffffffffffffffff1673ffffffffffffffffffffffffffffffffffffffff1681526020018267ffffffffffffffff1667ffffffffffffffff1681526020019350505050604051809103906000f0801515611ca157600080fd5b905080600c60016101000a81548173ffffffffffffffffffffffffffffffffffffffff021916908373ffffffffffffffffffffffffffffffffffffffff160217905550611d588260016000600c60019054906101000a900473ffffffffffffffffffffffffffffffffffffffff1673ffffffffffffffffffffffffffffffffffffffff1673ffffffffffffffffffffffffffffffffffffffff1681526020019081526020016000205461169e90919063ffffffff16565b60016000600c60019054906101000a900473ffffffffffffffffffffffffffffffffffffffff1673ffffffffffffffffffffffffffffffffffffffff1673ffffffffffffffffffffffffffffffffffffffff16815260200190815260200160002081905550600c60019054906101000a900473ffffffffffffffffffffffffffffffffffffffff1673ffffffffffffffffffffffffffffffffffffffff16600073ffffffffffffffffffffffffffffffffffffffff167fddf252ad1be2c89b69c2b068fc378daa952ba7f163c4a11628f55a4df523b3ef846040518082815260200191505060405180910390a35050565b8060016000600360009054906101000a900473ffffffffffffffffffffffffffffffffffffffff1673ffffffffffffffffffffffffffffffffffffffff1673ffffffffffffffffffffffffffffffffffffffff16815260200190815260200160002081905550600360009054906101000a900473ffffffffffffffffffffffffffffffffffffffff1673ffffffffffffffffffffffffffffffffffffffff16600073ffffffffffffffffffffffffffffffffffffffff167fddf252ad1be2c89b69c2b068fc378daa952ba7f163c4a11628f55a4df523b3ef836040518082815260200191505060405180910390a350565b6000828211151515611f4b57600080fd5b818303905092915050565b60008073ffffffffffffffffffffffffffffffffffffffff168373ffffffffffffffffffffffffffffffffffffffff1614151515611f9357600080fd5b600160003373ffffffffffffffffffffffffffffffffffffffff1673ffffffffffffffffffffffffffffffffffffffff168152602001908152602001600020548211151515611fe157600080fd5b61203382600160003373ffffffffffffffffffffffffffffffffffffffff1673ffffffffffffffffffffffffffffffffffffffff16815260200190815260200160002054611f3a90919063ffffffff16565b600160003373ffffffffffffffffffffffffffffffffffffffff1673ffffffffffffffffffffffffffffffffffffffff168152602001908152602001600020819055506120c882600160008673ffffffffffffffffffffffffffffffffffffffff1673ffffffffffffffffffffffffffffffffffffffff1681526020019081526020016000205461169e90919063ffffffff16565b600160008573ffffffffffffffffffffffffffffffffffffffff1673ffffffffffffffffffffffffffffffffffffffff168152602001908152602001600020819055508273ffffffffffffffffffffffffffffffffffffffff163373ffffffffffffffffffffffffffffffffffffffff167fddf252ad1be2c89b69c2b068fc378daa952ba7f163c4a11628f55a4df523b3ef846040518082815260200191505060405180910390a36001905092915050565b6000808284029050600084148061219b575082848281151561219857fe5b04145b15156121a657600080fd5b8091505092915050565b60006121ba6121f9565b90505b60068160ff161080156121e4575060048160ff166007811015156121dd57fe5b0154600054115b156121f65780806001019150506121bd565b90565b6000635afc558067ffffffffffffffff16421115151561221857600080fd5b635ae9e08067ffffffffffffffff1642111561223757600690506122d7565b635ad76b8067ffffffffffffffff1642111561225657600590506122d7565b635ac4f68067ffffffffffffffff1642111561227557600490506122d7565b635ab2818067ffffffffffffffff1642111561229457600390506122d7565b635aa00c8067ffffffffffffffff164211156122b357600290506122d7565b635a8d978067ffffffffffffffff164211156122d257600190506122d7565b600090505b90565b60405161057e806122eb8339019056006060604052341561000f57600080fd5b60405160608061057e833981016040528080519060200190919080519060200190919080519060200190919050504267ffffffffffffffff168167ffffffffffffffff1611151561005f57600080fd5b826000806101000a81548173ffffffffffffffffffffffffffffffffffffffff021916908373ffffffffffffffffffffffffffffffffffffffff16021790555081600160006101000a81548173ffffffffffffffffffffffffffffffffffffffff021916908373ffffffffffffffffffffffffffffffffffffffff16021790555080600160146101000a81548167ffffffffffffffff021916908367ffffffffffffffff1602179055505050506104638061011b6000396000f300606060405260043610610062576000357c0100000000000000000000000000000000000000000000000000000000900463ffffffff16806338af3eed1461006757806386d1a69f146100bc578063b91d4001146100d1578063fc0c546a1461010e575b600080fd5b341561007257600080fd5b61007a610163565b604051808273ffffffffffffffffffffffffffffffffffffffff1673ffffffffffffffffffffffffffffffffffffffff16815260200191505060405180910390f35b34156100c757600080fd5b6100cf610189565b005b34156100dc57600080fd5b6100e4610325565b604051808267ffffffffffffffff1667ffffffffffffffff16815260200191505060405180910390f35b341561011957600080fd5b61012161033f565b604051808273ffffffffffffffffffffffffffffffffffffffff1673ffffffffffffffffffffffffffffffffffffffff16815260200191505060405180910390f35b600160009054906101000a900473ffffffffffffffffffffffffffffffffffffffff1681565b6000600160149054906101000a900467ffffffffffffffff1667ffffffffffffffff164267ffffffffffffffff16101515156101c457600080fd5b6000809054906101000a900473ffffffffffffffffffffffffffffffffffffffff1673ffffffffffffffffffffffffffffffffffffffff166370a08231306000604051602001526040518263ffffffff167c0100000000000000000000000000000000000000000000000000000000028152600401808273ffffffffffffffffffffffffffffffffffffffff1673ffffffffffffffffffffffffffffffffffffffff168152602001915050602060405180830381600087803b151561028857600080fd5b6102c65a03f1151561029957600080fd5b5050506040518051905090506000811115156102b457600080fd5b610322600160009054906101000a900473ffffffffffffffffffffffffffffffffffffffff16826000809054906101000a900473ffffffffffffffffffffffffffffffffffffffff1673ffffffffffffffffffffffffffffffffffffffff166103649092919063ffffffff16565b50565b600160149054906101000a900467ffffffffffffffff1681565b6000809054906101000a900473ffffffffffffffffffffffffffffffffffffffff1681565b8273ffffffffffffffffffffffffffffffffffffffff1663a9059cbb83836000604051602001526040518363ffffffff167c0100000000000000000000000000000000000000000000000000000000028152600401808373ffffffffffffffffffffffffffffffffffffffff1673ffffffffffffffffffffffffffffffffffffffff16815260200182815260200192505050602060405180830381600087803b151561040f57600080fd5b6102c65a03f1151561042057600080fd5b50505060405180519050151561043257fe5b5050505600a165627a7a72305820d98a28b0aea1e2660b836cb43100e64c7cf3810050a2e8335a691df39836c2c70029a165627a7a72305820d8df61073c1d8e02ed54ded4ff20449438c15c57d216f079d90baa64d2d44df30029",
  "source": "/**\r\n * The dorado token contract bases on the ERC20 standard token contracts from\r\n * open-zeppelin and is extended by functions to issue tokens as needed by the \r\n * dorado ICO.\r\n * authors: Julia Altenried, Yuri Kashnikov\r\n * */\r\n\r\npragma solidity 0.4.19;\r\n\r\n/**\r\n * @title SafeMath\r\n * @dev Math operations with safety checks that throw on error\r\n */\r\nlibrary SafeMath {\r\n    function mul(uint256 a, uint256 b) internal pure returns (uint256) {\r\n        uint256 c = a * b;\r\n        require(a == 0 || c / a == b);\r\n        return c;\r\n    }\r\n\r\n    function sub(uint256 a, uint256 b) internal pure returns (uint256) {\r\n        require(b <= a);\r\n        return a - b;\r\n    }\r\n\r\n    function add(uint256 a, uint256 b) internal pure returns (uint256) {\r\n        uint256 c = a + b;\r\n        require(c >= a);\r\n        return c;\r\n    }\r\n}\r\n\r\n/**\r\n * @title ERC20Basic\r\n * @dev Simpler version of ERC20 interface\r\n * @dev see https://github.com/ethereum/EIPs/issues/179\r\n */\r\ncontract ERC20Basic {\r\n    uint256 public totalSupply;\r\n    function balanceOf(address who) public view returns (uint256);\r\n    function transfer(address to, uint256 value) public returns (bool);\r\n    event Transfer(address indexed from, address indexed to, uint256 value);\r\n}\r\n\r\n/**\r\n * @title Basic token\r\n * @dev Basic version of StandardToken, with no allowances.\r\n */\r\ncontract BasicToken is ERC20Basic {\r\n    using SafeMath for uint256;\r\n\r\n    mapping(address => uint256) public balances;\r\n\r\n    /**\r\n    * @dev transfer token for a specified address\r\n    * @param _to The address to transfer to.\r\n    * @param _value The amount to be transferred.\r\n    */\r\n    function transfer(address _to, uint256 _value) public returns (bool) {\r\n        require(_to != address(0));\r\n        require(_value <= balances[msg.sender]);\r\n\r\n        // SafeMath.sub will throw if there is not enough balance.\r\n        balances[msg.sender] = balances[msg.sender].sub(_value);\r\n        balances[_to] = balances[_to].add(_value);\r\n        Transfer(msg.sender, _to, _value);\r\n        return true;\r\n    }\r\n\r\n    /**\r\n    * @dev Gets the balance of the specified address.\r\n    * @param _owner The address to query the the balance of.\r\n    * @return An uint256 representing the amount owned by the passed address.\r\n    */\r\n    function balanceOf(address _owner) public view returns (uint256 balance) {\r\n        return balances[_owner];\r\n    }\r\n\r\n}\r\n\r\n/**\r\n * @title ERC20 interface\r\n * @dev see https://github.com/ethereum/EIPs/issues/20\r\n */\r\ncontract ERC20 is ERC20Basic {\r\n    function allowance(address owner, address spender) public view returns (uint256);\r\n    function transferFrom(address from, address to, uint256 value) public returns (bool);\r\n    function approve(address spender, uint256 value) public returns (bool);\r\n    event Approval(address indexed owner, address indexed spender, uint256 value);\r\n}\r\n\r\n/**\r\n * @title SafeERC20\r\n * @dev Wrappers around ERC20 operations that throw on failure.\r\n * To use this library you can add a `using SafeERC20 for ERC20;` statement to your contract,\r\n * which allows you to call the safe operations as `token.safeTransfer(...)`, etc.\r\n */\r\nlibrary SafeERC20 {\r\n    function safeTransfer(ERC20Basic token, address to, uint256 value) internal {\r\n        assert(token.transfer(to, value));\r\n    }\r\n\r\n    function safeTransferFrom(ERC20 token, address from, address to, uint256 value) internal {\r\n        assert(token.transferFrom(from, to, value));\r\n    }\r\n\r\n    function safeApprove(ERC20 token, address spender, uint256 value) internal {\r\n        assert(token.approve(spender, value));\r\n    }\r\n}\r\n\r\n/**\r\n * @title TokenTimelock\r\n * @dev TokenTimelock is a token holder contract that will allow a\r\n * beneficiary to extract the tokens after a given release time\r\n */\r\ncontract TokenTimelock {\r\n    using SafeERC20 for ERC20Basic;\r\n\r\n    // ERC20 basic token contract being held\r\n    ERC20Basic public token;\r\n\r\n    // beneficiary of tokens after they are released\r\n    address public beneficiary;\r\n\r\n    // timestamp when token release is enabled\r\n    uint64 public releaseTime;\r\n\r\n    function TokenTimelock(ERC20Basic _token, address _beneficiary, uint64 _releaseTime) public {\r\n        require(_releaseTime > uint64(block.timestamp));\r\n        token = _token;\r\n        beneficiary = _beneficiary;\r\n        releaseTime = _releaseTime;\r\n    }\r\n\r\n    /**\r\n     * @notice Transfers tokens held by timelock to beneficiary.\r\n     */\r\n    function release() public {\r\n        require(uint64(block.timestamp) >= releaseTime);\r\n\r\n        uint256 amount = token.balanceOf(this);\r\n        require(amount > 0);\r\n\r\n        token.safeTransfer(beneficiary, amount);\r\n    }\r\n}\r\n\r\n/**\r\n * @title Standard ERC20 token\r\n *\r\n * @dev Implementation of the basic standard token.\r\n * @dev https://github.com/ethereum/EIPs/issues/20\r\n * @dev Based on code by FirstBlood: https://github.com/Firstbloodio/token/blob/master/smart_contract/FirstBloodToken.sol\r\n */\r\ncontract StandardToken is ERC20, BasicToken {\r\n\r\n    mapping (address => mapping (address => uint256)) internal allowed;\r\n\r\n    /**\r\n     * @dev Transfer tokens from one address to another\r\n     * @param _from address The address which you want to send tokens from\r\n     * @param _to address The address which you want to transfer to\r\n     * @param _value uint256 the amount of tokens to be transferred\r\n     */\r\n    function transferFrom(address _from, address _to, uint256 _value) public returns (bool) {\r\n        require(_to != address(0));\r\n        require(_value <= balances[_from]);\r\n        require(_value <= allowed[_from][msg.sender]);\r\n\r\n        balances[_from] = balances[_from].sub(_value);\r\n        balances[_to] = balances[_to].add(_value);\r\n        allowed[_from][msg.sender] = allowed[_from][msg.sender].sub(_value);\r\n        Transfer(_from, _to, _value);\r\n        return true;\r\n    }\r\n\r\n    /**\r\n     * @dev Approve the passed address to spend the specified amount of tokens on behalf of msg.sender.\r\n     *\r\n     * Beware that changing an allowance with this method brings the risk that someone may use both the old\r\n     * and the new allowance by unfortunate transaction ordering. One possible solution to mitigate this\r\n     * race condition is to first reduce the spender's allowance to 0 and set the desired value afterwards:\r\n     * https://github.com/ethereum/EIPs/issues/20#issuecomment-263524729\r\n     * @param _spender The address which will spend the funds.\r\n     * @param _value The amount of tokens to be spent.\r\n     */\r\n    function approve(address _spender, uint256 _value) public returns (bool) {\r\n        allowed[msg.sender][_spender] = _value;\r\n        Approval(msg.sender, _spender, _value);\r\n        return true;\r\n    }\r\n\r\n    /**\r\n     * @dev Function to check the amount of tokens that an owner allowed to a spender.\r\n     * @param _owner address The address which owns the funds.\r\n     * @param _spender address The address which will spend the funds.\r\n     * @return A uint256 specifying the amount of tokens still available for the spender.\r\n     */\r\n    function allowance(address _owner, address _spender) public view returns (uint256 remaining) {\r\n        return allowed[_owner][_spender];\r\n    }\r\n\r\n    /**\r\n     * approve should be called when allowed[_spender] == 0. To increment\r\n     * allowed value is better to use this function to avoid 2 calls (and wait until\r\n     * the first transaction is mined)\r\n     * From MonolithDAO Token.sol\r\n     */\r\n    function increaseApproval (address _spender, uint _addedValue) public returns (bool success) {\r\n        allowed[msg.sender][_spender] = allowed[msg.sender][_spender].add(_addedValue);\r\n        Approval(msg.sender, _spender, allowed[msg.sender][_spender]);\r\n        return true;\r\n    }\r\n\r\n    function decreaseApproval (address _spender, uint _subtractedValue) public returns (bool success) {\r\n        uint oldValue = allowed[msg.sender][_spender];\r\n        if (_subtractedValue > oldValue) {\r\n            allowed[msg.sender][_spender] = 0;\r\n        } else {\r\n            allowed[msg.sender][_spender] = oldValue.sub(_subtractedValue);\r\n        }\r\n        Approval(msg.sender, _spender, allowed[msg.sender][_spender]);\r\n        return true;\r\n    }\r\n\r\n}\r\n\r\ncontract Owned {\r\n    address public owner;\r\n    \r\n    event OwnershipTransferred(address indexed previousOwner, address indexed newOwner);\r\n\r\n    function Owned() public {\r\n        owner = msg.sender;\r\n    }\r\n    \r\n    /**\r\n    * @dev Allows the current owner to transfer control of the contract to a newOwner.\r\n    * @param newOwner The address to transfer ownership to.\r\n    */\r\n    function transferOwnership(address newOwner) public onlyOwner {\r\n        require(newOwner != address(0));\r\n        OwnershipTransferred(owner, newOwner);\r\n        owner = newOwner;\r\n    }\r\n\r\n    modifier onlyOwner {\r\n        require(msg.sender == owner);\r\n        _;\r\n    }\r\n}\r\n\r\ncontract DoradoToken is StandardToken, Owned {\r\n    string public constant name = \"DoradoToken\";\r\n    string public constant symbol = \"DOR\";\r\n    uint8 public constant decimals = 15;\r\n\r\n    /// Maximum tokens to be allocated on the sale (51% of the hard cap)\r\n    uint256 public constant TOKENS_SALE_HARD_CAP = 510000000000000000000000; // 510000000 * 10**15\r\n\r\n    /// Base exchange rate is set to 1 ETH = 6667 DOR.\r\n    uint256 public constant BASE_RATE = 6667;\r\n\r\n    /// seconds since 01.01.1970 to 07.02.2018 (16:00:00 o'clock UTC)\r\n    /// HOT sale start time\r\n    uint64 private constant dateHOTSale = 1517961600 + 16 hours;\r\n\r\n    /// HOT sale end time; Sale A start time 21.02.2018\r\n    uint64 private constant dateSaleA = 1519171200 + 16 hours;\r\n\r\n    /// Sale A end time; Sale B start time 07.03.2018\r\n    uint64 private constant dateSaleB = 1520380800 + 16 hours;\r\n\r\n    /// Sale B end time; Sale C start time 21.03.2018\r\n    uint64 private constant dateSaleC = 1521590400 + 16 hours;\r\n\r\n    /// Sale C end time; Sale D start time 04.04.2018\r\n    uint64 private constant dateSaleD = 1522800000 + 16 hours;\r\n\r\n    /// Sale D end time; Sale E start time 18.04.2018\r\n    uint64 private constant dateSaleE = 1524009600 + 16 hours;\r\n\r\n    /// Sale E end time;  Sale F start time 02.05.2018\r\n    uint64 private constant dateSaleF = 1525219200 + 16 hours;\r\n\r\n    /// Sale F end time; 16.05.2018 \r\n    uint64 private constant date16May2018 = 1526428800 + 16 hours;\r\n    \r\n    /// token caps for each round\r\n    uint256[7] private roundCaps = [\r\n        70000000000000000000000, // HOT sale  70000000 * 10**15 \r\n        140000000000000000000000, // Sale A   140000000 * 10**15\r\n        210000000000000000000000, // Sale B   210000000 * 10**15\r\n        285000000000000000000000, // Sale C   285000000 * 10**15\r\n        360000000000000000000000, // Sale D   360000000 * 10**15\r\n        435000000000000000000000, // Sale E   435000000 * 10**15\r\n        510000000000000000000000  // Sale F   510000000 * 10**15\r\n    ];\r\n    uint8[7] private roundDiscountPercentages = [33, 30, 27, 22, 17, 12, 7];\r\n\r\n    \r\n    /// team tokens are locked until this date (01.01.2021) 00:00:00\r\n    uint64 private constant dateTeamTokensLockedTill = 1609459200;\r\n   \r\n\r\n    /// no tokens can be ever issued when this is set to \"true\"\r\n    bool public tokenSaleClosed = false;\r\n\r\n    /// contract to be called to release the Dorado team tokens\r\n    address public timelockContractAddress;\r\n\r\n    modifier inProgress {\r\n        require(totalSupply < TOKENS_SALE_HARD_CAP\r\n            && !tokenSaleClosed && now >= dateHOTSale);\r\n        _;\r\n    }\r\n\r\n    /// Allow the closing to happen only once\r\n    modifier beforeEnd {\r\n        require(!tokenSaleClosed);\r\n        _;\r\n    }\r\n\r\n    /// Require that the token sale has been closed\r\n    modifier tradingOpen {\r\n        require(tokenSaleClosed);\r\n        _;\r\n    }\r\n\r\n    function DoradoToken() public {\r\n    }\r\n\r\n    /// @dev This default function allows token to be purchased by directly\r\n    /// sending ether to this smart contract.\r\n    function () public payable {\r\n        purchaseTokens(msg.sender);\r\n    }\r\n\r\n    /// @dev Issue token based on Ether received.\r\n    /// @param _beneficiary Address that newly issued token will be sent to.\r\n    function purchaseTokens(address _beneficiary) public payable inProgress {\r\n        // only accept a minimum amount of ETH?\r\n        require(msg.value >= 0.01 ether);\r\n\r\n        uint256 tokens = computeTokenAmount(msg.value);\r\n        \r\n        // roll back if hard cap reached\r\n        require(totalSupply.add(tokens) <= TOKENS_SALE_HARD_CAP);\r\n        \r\n        doIssueTokens(_beneficiary, tokens);\r\n\r\n        /// forward the raised funds to the contract creator\r\n        owner.transfer(this.balance);\r\n    }\r\n\r\n    /// @dev Batch issue tokens on the presale\r\n    /// @param _addresses addresses that the presale tokens will be sent to.\r\n    /// @param _addresses the amounts of tokens, with decimals expanded (full).\r\n    function issueTokensMulti(address[] _addresses, uint256[] _tokens) public onlyOwner beforeEnd {\r\n        require(_addresses.length == _tokens.length);\r\n        require(_addresses.length <= 100);\r\n\r\n        for (uint256 i = 0; i < _tokens.length; i = i.add(1)) {\r\n            doIssueTokens(_addresses[i], _tokens[i]);\r\n        }\r\n    }\r\n\r\n    /// @dev Issue tokens for a single buyer on the presale\r\n    /// @param _beneficiary addresses that the presale tokens will be sent to.\r\n    /// @param _tokens the amount of tokens, with decimals expanded (full).\r\n    function issueTokens(address _beneficiary, uint256 _tokens) public onlyOwner beforeEnd {\r\n        doIssueTokens(_beneficiary, _tokens);\r\n    }\r\n\r\n    /// @dev issue tokens for a single buyer\r\n    /// @param _beneficiary addresses that the tokens will be sent to.\r\n    /// @param _tokens the amount of tokens, with decimals expanded (full).\r\n    function doIssueTokens(address _beneficiary, uint256 _tokens) internal {\r\n        require(_beneficiary != address(0));\r\n\r\n        // increase token total supply\r\n        totalSupply = totalSupply.add(_tokens);\r\n        // update the beneficiary balance to number of tokens sent\r\n        balances[_beneficiary] = balances[_beneficiary].add(_tokens);\r\n\r\n        // event is fired when tokens issued\r\n        Transfer(address(0), _beneficiary, _tokens);\r\n    }\r\n\r\n    /// @dev Returns the current price.\r\n    function price() public view returns (uint256 tokens) {\r\n        return computeTokenAmount(1 ether);\r\n    }\r\n\r\n    /// @dev Compute the amount of DOR token that can be purchased.\r\n    /// @param ethAmount Amount of Ether in WEI to purchase DOR.\r\n    /// @return Amount of DOR token to purchase\r\n    function computeTokenAmount(uint256 ethAmount) internal view returns (uint256 tokens) {\r\n        uint256 tokenBase = (ethAmount.mul(BASE_RATE)/10000000000000)*10000000000;//18 decimals to 15 decimals, set precision to 5 decimals\r\n        uint8 roundNum = currentRoundIndex();\r\n        tokens = tokenBase.mul(100)/(100 - (roundDiscountPercentages[roundNum]));\r\n        while(tokens.add(totalSupply) > roundCaps[roundNum] && roundNum < 6){\r\n           roundNum++;\r\n           tokens = tokenBase.mul(100)/(100 - (roundDiscountPercentages[roundNum])); \r\n        }\r\n    }\r\n\r\n    /// @dev Determine the current sale round\r\n    /// @return integer representing the index of the current sale round\r\n    function currentRoundIndex() internal view returns (uint8 roundNum) {\r\n        roundNum = currentRoundIndexByDate();\r\n\r\n        /// round determined by conjunction of both time and total sold tokens\r\n        while(roundNum < 6 && totalSupply > roundCaps[roundNum]) {\r\n            roundNum++;\r\n        }\r\n    }\r\n\r\n    /// @dev Determine the current sale tier.\r\n    /// @return the index of the current sale tier by date.\r\n    function currentRoundIndexByDate() internal view returns (uint8 roundNum) {\r\n        require(now <= date16May2018); \r\n        if(now > dateSaleF) return 6;\r\n        if(now > dateSaleE) return 5;\r\n        if(now > dateSaleD) return 4;\r\n        if(now > dateSaleC) return 3;\r\n        if(now > dateSaleB) return 2;\r\n        if(now > dateSaleA) return 1;\r\n        else return 0;\r\n    }\r\n\r\n    /// @dev Closes the sale, issues the team tokens and burns the unsold\r\n    function close() public onlyOwner beforeEnd {\r\n        /// team tokens are equal to 15% of the sold tokens\r\n        /// 8% foodout group tokens are added to the locked tokens\r\n        uint256 lockedTokens = 230000000000000000000000;\r\n        //partner tokens are available from the beginning\r\n        uint256 partnerTokens = 260000000000000000000000;\r\n        \r\n        issueLockedTokens(lockedTokens);\r\n        issuePartnerTokens(partnerTokens);\r\n        \r\n        /// increase token total supply\r\n        totalSupply = totalSupply.add(lockedTokens+partnerTokens);\r\n        \r\n        /// burn the unallocated tokens - no more tokens can be issued after this line\r\n        tokenSaleClosed = true;\r\n\r\n        /// forward the raised funds to the contract creator\r\n        owner.transfer(this.balance);\r\n    }\r\n    \r\n    /**\r\n     * issue the tokens for the team and the foodout group.\r\n     * tokens are locked for 3 years.\r\n     * @param lockedTokens the amount of tokens to the issued and locked\r\n     * */\r\n    function issueLockedTokens( uint lockedTokens) internal{\r\n        /// team tokens are locked until this date (01.01.2021)\r\n        TokenTimelock lockedTeamTokens = new TokenTimelock(this, owner, dateTeamTokensLockedTill);\r\n        timelockContractAddress = address(lockedTeamTokens);\r\n        balances[timelockContractAddress] = balances[timelockContractAddress].add(lockedTokens);\r\n        /// fire event when tokens issued\r\n        Transfer(address(0), timelockContractAddress, lockedTokens);\r\n        \r\n    }\r\n    \r\n    /**\r\n     * issue the tokens for partners and advisors\r\n     * @param partnerTokens the amount of tokens to be issued\r\n     * */\r\n    function issuePartnerTokens(uint partnerTokens) internal{\r\n        balances[owner] = partnerTokens;\r\n        Transfer(address(0), owner, partnerTokens);\r\n    }\r\n\r\n    /// Transfer limited by the tradingOpen modifier\r\n    function transferFrom(address _from, address _to, uint256 _value) public tradingOpen returns (bool) {\r\n        return super.transferFrom(_from, _to, _value);\r\n    }\r\n\r\n    /// Transfer limited by the tradingOpen modifier\r\n    function transfer(address _to, uint256 _value) public tradingOpen returns (bool) {\r\n        return super.transfer(_to, _value);\r\n    }\r\n}",
  "sourcePath": "C:\\Users\\home\\Desktop\\TokenSmartContract\\contracts\\Dora.sol",
  "compiler": {
    "name": "solc",
    "version": "0.4.19+commit.c4cbbb05.Emscripten.clang"
  },
  "schemaVersion": "2.0.0",
  "updatedAt": "2018-04-06T00:17:07.381Z"
}