{
  "contractName": "EthPriceOraclize",
  "abi": [
    {
      "constant": true,
      "inputs": [],
      "name": "delay",
      "outputs": [
        {
          "name": "",
          "type": "uint256"
        }
      ],
      "payable": false,
      "stateMutability": "view",
      "type": "function"
    },
    {
      "constant": true,
      "inputs": [],
      "name": "ETHUSD",
      "outputs": [
        {
          "name": "",
          "type": "uint256"
        }
      ],
      "payable": false,
      "stateMutability": "view",
      "type": "function"
    },
    {
      "inputs": [],
      "payable": false,
      "stateMutability": "nonpayable",
      "type": "constructor"
    },
    {
      "payable": true,
      "stateMutability": "payable",
      "type": "fallback"
    },
    {
      "anonymous": false,
      "inputs": [
        {
          "indexed": false,
          "name": "_oraclize",
          "type": "address"
        }
      ],
      "name": "OraclizeCreated",
      "type": "event"
    },
    {
      "anonymous": false,
      "inputs": [
        {
          "indexed": false,
          "name": "description",
          "type": "string"
        }
      ],
      "name": "LogInfo",
      "type": "event"
    },
    {
      "anonymous": false,
      "inputs": [
        {
          "indexed": false,
          "name": "price",
          "type": "uint256"
        }
      ],
      "name": "LogPriceUpdate",
      "type": "event"
    },
    {
      "constant": false,
      "inputs": [
        {
          "name": "myid",
          "type": "bytes32"
        },
        {
          "name": "result",
          "type": "string"
        }
      ],
      "name": "__callback",
      "outputs": [],
      "payable": false,
      "stateMutability": "nonpayable",
      "type": "function"
    },
    {
      "constant": false,
      "inputs": [
        {
          "name": "id",
          "type": "bytes32"
        },
        {
          "name": "result",
          "type": "string"
        },
        {
          "name": "proof",
          "type": "bytes"
        }
      ],
      "name": "__callback",
      "outputs": [],
      "payable": false,
      "stateMutability": "nonpayable",
      "type": "function"
    },
    {
      "constant": false,
      "inputs": [
        {
          "name": "_delay",
          "type": "uint256"
        }
      ],
      "name": "update",
      "outputs": [],
      "payable": true,
      "stateMutability": "payable",
      "type": "function"
    },
    {
      "constant": true,
      "inputs": [],
      "name": "getEthPrice",
      "outputs": [
        {
          "name": "",
          "type": "uint256"
        }
      ],
      "payable": false,
      "stateMutability": "view",
      "type": "function"
    }
  ],
  "bytecode": "0x608060405261a8c06005553480156200001757600080fd5b506200007a60017f01000000000000000000000000000000000000000000000000000000000000000260107f01000000000000000000000000000000000000000000000000000000000000000217620000fe640100000000026401000000009004565b7fb472abdb812ae297dc9362ffa05f608532a9f1f1a58f846cad843fe2f00737f530604051808273ffffffffffffffffffffffffffffffffffffffff1673ffffffffffffffffffffffffffffffffffffffff16815260200191505060405180910390a1620000f86001620004b2640100000000026401000000009004565b6200176f565b60008060009054906101000a900473ffffffffffffffffffffffffffffffffffffffff1673ffffffffffffffffffffffffffffffffffffffff1614806200017f575060006200017d6000809054906101000a900473ffffffffffffffffffffffffffffffffffffffff1662000740640100000000026401000000009004565b145b15620001a257620001a060006200074b640100000000026401000000009004565b505b6000809054906101000a900473ffffffffffffffffffffffffffffffffffffffff1673ffffffffffffffffffffffffffffffffffffffff166338cc48316040518163ffffffff167c0100000000000000000000000000000000000000000000000000000000028152600401602060405180830381600087803b1580156200022857600080fd5b505af11580156200023d573d6000803e3d6000fd5b505050506040513d60208110156200025457600080fd5b810190808051906020019092919050505073ffffffffffffffffffffffffffffffffffffffff16600160009054906101000a900473ffffffffffffffffffffffffffffffffffffffff1673ffffffffffffffffffffffffffffffffffffffff16141515620003c0576000809054906101000a900473ffffffffffffffffffffffffffffffffffffffff1673ffffffffffffffffffffffffffffffffffffffff166338cc48316040518163ffffffff167c0100000000000000000000000000000000000000000000000000000000028152600401602060405180830381600087803b1580156200034257600080fd5b505af115801562000357573d6000803e3d6000fd5b505050506040513d60208110156200036e57600080fd5b8101908080519060200190929190505050600160006101000a81548173ffffffffffffffffffffffffffffffffffffffff021916908373ffffffffffffffffffffffffffffffffffffffff1602179055505b600160009054906101000a900473ffffffffffffffffffffffffffffffffffffffff1673ffffffffffffffffffffffffffffffffffffffff1663688dcfd7826040518263ffffffff167c010000000000000000000000000000000000000000000000000000000002815260040180827effffffffffffffffffffffffffffffffffffffffffffffffffffffffffffff19167effffffffffffffffffffffffffffffffffffffffffffffffffffffffffffff19168152602001915050600060405180830381600087803b1580156200049657600080fd5b505af1158015620004ab573d6000803e3d6000fd5b5050505050565b3073ffffffffffffffffffffffffffffffffffffffff1631620005196040805190810160405280600381526020017f55524c00000000000000000000000000000000000000000000000000000000008152506200076d640100000000026401000000009004565b1115620005da577ffee95ecae0c8f7f0743ec0ad254c78ab75e5ecca9f1ddcd9f11f9a98124b96bc60405180806020018281038252604c8152602001807f4f7261636c697a6520717565727920776173204e4f542073656e742c20706c6581526020017f6173652061646420736f6d652045544820746f20636f76657220666f7220746881526020017f652071756572792066656521000000000000000000000000000000000000000081525060600191505060405180910390a16200073d565b7ffee95ecae0c8f7f0743ec0ad254c78ab75e5ecca9f1ddcd9f11f9a98124b96bc6040518080602001828103825260378152602001807f4f7261636c697a65207175657279207761732073656e742c207374616e64696e81526020017f6720627920666f722074686520616e73776572202e2e2e00000000000000000081525060400191505060405180910390a16200073b816040805190810160405280600381526020017f55524c0000000000000000000000000000000000000000000000000000000000815250608060405190810160405280604381526020017f6a736f6e2868747470733a2f2f6170692e636f696e6d61726b65746361702e6381526020017f6f6d2f76312f7469636b65722f657468657265756d2f292e302e70726963655f81526020017f757364000000000000000000000000000000000000000000000000000000000081525062000b6e640100000000026401000000009004565b505b50565b6000813b9050919050565b6000620007666200114c640100000000026401000000009004565b9050919050565b6000806000809054906101000a900473ffffffffffffffffffffffffffffffffffffffff1673ffffffffffffffffffffffffffffffffffffffff161480620007ef57506000620007ed6000809054906101000a900473ffffffffffffffffffffffffffffffffffffffff1662000740640100000000026401000000009004565b145b1562000812576200081060006200074b640100000000026401000000009004565b505b6000809054906101000a900473ffffffffffffffffffffffffffffffffffffffff1673ffffffffffffffffffffffffffffffffffffffff166338cc48316040518163ffffffff167c0100000000000000000000000000000000000000000000000000000000028152600401602060405180830381600087803b1580156200089857600080fd5b505af1158015620008ad573d6000803e3d6000fd5b505050506040513d6020811015620008c457600080fd5b810190808051906020019092919050505073ffffffffffffffffffffffffffffffffffffffff16600160009054906101000a900473ffffffffffffffffffffffffffffffffffffffff1673ffffffffffffffffffffffffffffffffffffffff1614151562000a30576000809054906101000a900473ffffffffffffffffffffffffffffffffffffffff1673ffffffffffffffffffffffffffffffffffffffff166338cc48316040518163ffffffff167c0100000000000000000000000000000000000000000000000000000000028152600401602060405180830381600087803b158015620009b257600080fd5b505af1158015620009c7573d6000803e3d6000fd5b505050506040513d6020811015620009de57600080fd5b8101908080519060200190929190505050600160006101000a81548173ffffffffffffffffffffffffffffffffffffffff021916908373ffffffffffffffffffffffffffffffffffffffff1602179055505b600160009054906101000a900473ffffffffffffffffffffffffffffffffffffffff1673ffffffffffffffffffffffffffffffffffffffff1663524f3889836040518263ffffffff167c01000000000000000000000000000000000000000000000000000000000281526004018080602001828103825283818151815260200191508051906020019080838360005b8381101562000adc57808201518184015260208101905062000abf565b50505050905090810190601f16801562000b0a5780820380516001836020036101000a031916815260200191505b5092505050602060405180830381600087803b15801562000b2a57600080fd5b505af115801562000b3f573d6000803e3d6000fd5b505050506040513d602081101562000b5657600080fd5b81019080805190602001909291905050509050919050565b60008060008060009054906101000a900473ffffffffffffffffffffffffffffffffffffffff1673ffffffffffffffffffffffffffffffffffffffff16148062000bf25750600062000bf06000809054906101000a900473ffffffffffffffffffffffffffffffffffffffff1662000740640100000000026401000000009004565b145b1562000c155762000c1360006200074b640100000000026401000000009004565b505b6000809054906101000a900473ffffffffffffffffffffffffffffffffffffffff1673ffffffffffffffffffffffffffffffffffffffff166338cc48316040518163ffffffff167c0100000000000000000000000000000000000000000000000000000000028152600401602060405180830381600087803b15801562000c9b57600080fd5b505af115801562000cb0573d6000803e3d6000fd5b505050506040513d602081101562000cc757600080fd5b810190808051906020019092919050505073ffffffffffffffffffffffffffffffffffffffff16600160009054906101000a900473ffffffffffffffffffffffffffffffffffffffff1673ffffffffffffffffffffffffffffffffffffffff1614151562000e33576000809054906101000a900473ffffffffffffffffffffffffffffffffffffffff1673ffffffffffffffffffffffffffffffffffffffff166338cc48316040518163ffffffff167c0100000000000000000000000000000000000000000000000000000000028152600401602060405180830381600087803b15801562000db557600080fd5b505af115801562000dca573d6000803e3d6000fd5b505050506040513d602081101562000de157600080fd5b8101908080519060200190929190505050600160006101000a81548173ffffffffffffffffffffffffffffffffffffffff021916908373ffffffffffffffffffffffffffffffffffffffff1602179055505b600160009054906101000a900473ffffffffffffffffffffffffffffffffffffffff1673ffffffffffffffffffffffffffffffffffffffff1663524f3889856040518263ffffffff167c01000000000000000000000000000000000000000000000000000000000281526004018080602001828103825283818151815260200191508051906020019080838360005b8381101562000edf57808201518184015260208101905062000ec2565b50505050905090810190601f16801562000f0d5780820380516001836020036101000a031916815260200191505b5092505050602060405180830381600087803b15801562000f2d57600080fd5b505af115801562000f42573d6000803e3d6000fd5b505050506040513d602081101562000f5957600080fd5b8101908080519060200190929190505050905062030d403a02670de0b6b3a76400000181111562000f91576000600102915062001144565b600160009054906101000a900473ffffffffffffffffffffffffffffffffffffffff1673ffffffffffffffffffffffffffffffffffffffff1663adf59f99828787876040518563ffffffff167c0100000000000000000000000000000000000000000000000000000000028152600401808481526020018060200180602001838103835285818151815260200191508051906020019080838360005b838110156200104a5780820151818401526020810190506200102d565b50505050905090810190601f168015620010785780820380516001836020036101000a031916815260200191505b50838103825284818151815260200191508051906020019080838360005b83811015620010b357808201518184015260208101905062001096565b50505050905090810190601f168015620010e15780820380516001836020036101000a031916815260200191505b50955050505050506020604051808303818588803b1580156200110357600080fd5b505af115801562001118573d6000803e3d6000fd5b50505050506040513d60208110156200113057600080fd5b810190808051906020019092919050505091505b509392505050565b6000806200117d731d3b2638a7cc9f2cb3d298a3da7a90b67e5506ed62000740640100000000026401000000009004565b11156200123157731d3b2638a7cc9f2cb3d298a3da7a90b67e5506ed6000806101000a81548173ffffffffffffffffffffffffffffffffffffffff021916908373ffffffffffffffffffffffffffffffffffffffff160217905550620012276040805190810160405280600b81526020017f6574685f6d61696e6e6574000000000000000000000000000000000000000000815250620016a4640100000000026401000000009004565b60019050620016a1565b60006200126173c03a2615d5efaf5f49f60b7bb6583eaec212fdf162000740640100000000026401000000009004565b1115620013155773c03a2615d5efaf5f49f60b7bb6583eaec212fdf16000806101000a81548173ffffffffffffffffffffffffffffffffffffffff021916908373ffffffffffffffffffffffffffffffffffffffff1602179055506200130b6040805190810160405280600c81526020017f6574685f726f707374656e330000000000000000000000000000000000000000815250620016a4640100000000026401000000009004565b60019050620016a1565b60006200134573b7a07bcf2ba2f2703b24c0691b5278999c59ac7e62000740640100000000026401000000009004565b1115620013f95773b7a07bcf2ba2f2703b24c0691b5278999c59ac7e6000806101000a81548173ffffffffffffffffffffffffffffffffffffffff021916908373ffffffffffffffffffffffffffffffffffffffff160217905550620013ef6040805190810160405280600981526020017f6574685f6b6f76616e0000000000000000000000000000000000000000000000815250620016a4640100000000026401000000009004565b60019050620016a1565b60006200142973146500cfd35b22e4a392fe0adc06de1a1368ed4862000740640100000000026401000000009004565b1115620014dd5773146500cfd35b22e4a392fe0adc06de1a1368ed486000806101000a81548173ffffffffffffffffffffffffffffffffffffffff021916908373ffffffffffffffffffffffffffffffffffffffff160217905550620014d36040805190810160405280600b81526020017f6574685f72696e6b656279000000000000000000000000000000000000000000815250620016a4640100000000026401000000009004565b60019050620016a1565b60006200150d736f485c8bf6fc43ea212e93bbf8ce046c7f1cb47562000740640100000000026401000000009004565b11156200157257736f485c8bf6fc43ea212e93bbf8ce046c7f1cb4756000806101000a81548173ffffffffffffffffffffffffffffffffffffffff021916908373ffffffffffffffffffffffffffffffffffffffff16021790555060019050620016a1565b6000620015a27320e12a1f859b3feae5fb2a0a32c18f5a65555bbf62000740640100000000026401000000009004565b111562001607577320e12a1f859b3feae5fb2a0a32c18f5a65555bbf6000806101000a81548173ffffffffffffffffffffffffffffffffffffffff021916908373ffffffffffffffffffffffffffffffffffffffff16021790555060019050620016a1565b6000620016377351efaf4c8b3c9afbd5ab9f4bbc82784ab6ef8faa62000740640100000000026401000000009004565b11156200169c577351efaf4c8b3c9afbd5ab9f4bbc82784ab6ef8faa6000806101000a81548173ffffffffffffffffffffffffffffffffffffffff021916908373ffffffffffffffffffffffffffffffffffffffff16021790555060019050620016a1565b600090505b90565b8060029080519060200190620016bc929190620016c0565b5050565b828054600181600116156101000203166002900490600052602060002090601f016020900481019282601f106200170357805160ff191683800117855562001734565b8280016001018555821562001734579182015b828111156200173357825182559160200191906001019062001716565b5b50905062001743919062001747565b5090565b6200176c91905b80821115620017685760008160009055506001016200174e565b5090565b90565b611b11806200177f6000396000f300608060405260043610610078576000357c0100000000000000000000000000000000000000000000000000000000900463ffffffff16806327dc297e1461008457806338bbfa50146100fb57806367c9b017146101b85780636a42b8f8146101e357806373db08441461020e57806382ab890a14610239575b6100826001610259565b005b34801561009057600080fd5b506100f96004803603810190808035600019169060200190929190803590602001908201803590602001908080601f01602080910402602001604051908101604052809392919081815260200183838082843782019150505050505091929192905050506104c3565b005b34801561010757600080fd5b506101b66004803603810190808035600019169060200190929190803590602001908201803590602001908080601f0160208091040260200160405190810160405280939291908181526020018383808284378201915050505050509192919290803590602001908201803590602001908080601f0160208091040260200160405190810160405280939291908181526020018383808284378201915050505050509192919290505050610506565b005b3480156101c457600080fd5b506101cd6105a1565b6040518082815260200191505060405180910390f35b3480156101ef57600080fd5b506101f86105ab565b6040518082815260200191505060405180910390f35b34801561021a57600080fd5b506102236105b1565b6040518082815260200191505060405180910390f35b61025760048036038101908080359060200190929190505050610259565b005b3073ffffffffffffffffffffffffffffffffffffffff16316102af6040805190810160405280600381526020017f55524c00000000000000000000000000000000000000000000000000000000008152506105b7565b111561036e577ffee95ecae0c8f7f0743ec0ad254c78ab75e5ecca9f1ddcd9f11f9a98124b96bc60405180806020018281038252604c8152602001807f4f7261636c697a6520717565727920776173204e4f542073656e742c20706c6581526020017f6173652061646420736f6d652045544820746f20636f76657220666f7220746881526020017f652071756572792066656521000000000000000000000000000000000000000081525060600191505060405180910390a16104c0565b7ffee95ecae0c8f7f0743ec0ad254c78ab75e5ecca9f1ddcd9f11f9a98124b96bc6040518080602001828103825260378152602001807f4f7261636c697a65207175657279207761732073656e742c207374616e64696e81526020017f6720627920666f722074686520616e73776572202e2e2e00000000000000000081525060400191505060405180910390a16104be816040805190810160405280600381526020017f55524c0000000000000000000000000000000000000000000000000000000000815250608060405190810160405280604381526020017f6a736f6e2868747470733a2f2f6170692e636f696e6d61726b65746361702e6381526020017f6f6d2f76312f7469636b65722f657468657265756d2f292e302e70726963655f81526020017f7573640000000000000000000000000000000000000000000000000000000000815250610987565b505b50565b610502828260006040519080825280601f01601f1916602001820160405280156104fc5781602001602082028038833980820191505090505b50610506565b5050565b61050e610f29565b73ffffffffffffffffffffffffffffffffffffffff163373ffffffffffffffffffffffffffffffffffffffff1614151561054757600080fd5b610552826002611287565b6006819055507f347ecf8e277d32d09f7d545d147316524769a54a721bbf706d24fcdccc10f81a6006546040518082815260200191505060405180910390a161059c600554610259565b505050565b6000600654905090565b60055481565b60065481565b6000806000809054906101000a900473ffffffffffffffffffffffffffffffffffffffff1673ffffffffffffffffffffffffffffffffffffffff161480610627575060006106256000809054906101000a900473ffffffffffffffffffffffffffffffffffffffff1661157b565b145b15610638576106366000611586565b505b6000809054906101000a900473ffffffffffffffffffffffffffffffffffffffff1673ffffffffffffffffffffffffffffffffffffffff166338cc48316040518163ffffffff167c0100000000000000000000000000000000000000000000000000000000028152600401602060405180830381600087803b1580156106bd57600080fd5b505af11580156106d1573d6000803e3d6000fd5b505050506040513d60208110156106e757600080fd5b810190808051906020019092919050505073ffffffffffffffffffffffffffffffffffffffff16600160009054906101000a900473ffffffffffffffffffffffffffffffffffffffff1673ffffffffffffffffffffffffffffffffffffffff1614151561084f576000809054906101000a900473ffffffffffffffffffffffffffffffffffffffff1673ffffffffffffffffffffffffffffffffffffffff166338cc48316040518163ffffffff167c0100000000000000000000000000000000000000000000000000000000028152600401602060405180830381600087803b1580156107d357600080fd5b505af11580156107e7573d6000803e3d6000fd5b505050506040513d60208110156107fd57600080fd5b8101908080519060200190929190505050600160006101000a81548173ffffffffffffffffffffffffffffffffffffffff021916908373ffffffffffffffffffffffffffffffffffffffff1602179055505b600160009054906101000a900473ffffffffffffffffffffffffffffffffffffffff1673ffffffffffffffffffffffffffffffffffffffff1663524f3889836040518263ffffffff167c01000000000000000000000000000000000000000000000000000000000281526004018080602001828103825283818151815260200191508051906020019080838360005b838110156108f95780820151818401526020810190506108de565b50505050905090810190601f1680156109265780820380516001836020036101000a031916815260200191505b5092505050602060405180830381600087803b15801561094557600080fd5b505af1158015610959573d6000803e3d6000fd5b505050506040513d602081101561096f57600080fd5b81019080805190602001909291905050509050919050565b60008060008060009054906101000a900473ffffffffffffffffffffffffffffffffffffffff1673ffffffffffffffffffffffffffffffffffffffff1614806109f9575060006109f76000809054906101000a900473ffffffffffffffffffffffffffffffffffffffff1661157b565b145b15610a0a57610a086000611586565b505b6000809054906101000a900473ffffffffffffffffffffffffffffffffffffffff1673ffffffffffffffffffffffffffffffffffffffff166338cc48316040518163ffffffff167c0100000000000000000000000000000000000000000000000000000000028152600401602060405180830381600087803b158015610a8f57600080fd5b505af1158015610aa3573d6000803e3d6000fd5b505050506040513d6020811015610ab957600080fd5b810190808051906020019092919050505073ffffffffffffffffffffffffffffffffffffffff16600160009054906101000a900473ffffffffffffffffffffffffffffffffffffffff1673ffffffffffffffffffffffffffffffffffffffff16141515610c21576000809054906101000a900473ffffffffffffffffffffffffffffffffffffffff1673ffffffffffffffffffffffffffffffffffffffff166338cc48316040518163ffffffff167c0100000000000000000000000000000000000000000000000000000000028152600401602060405180830381600087803b158015610ba557600080fd5b505af1158015610bb9573d6000803e3d6000fd5b505050506040513d6020811015610bcf57600080fd5b8101908080519060200190929190505050600160006101000a81548173ffffffffffffffffffffffffffffffffffffffff021916908373ffffffffffffffffffffffffffffffffffffffff1602179055505b600160009054906101000a900473ffffffffffffffffffffffffffffffffffffffff1673ffffffffffffffffffffffffffffffffffffffff1663524f3889856040518263ffffffff167c01000000000000000000000000000000000000000000000000000000000281526004018080602001828103825283818151815260200191508051906020019080838360005b83811015610ccb578082015181840152602081019050610cb0565b50505050905090810190601f168015610cf85780820380516001836020036101000a031916815260200191505b5092505050602060405180830381600087803b158015610d1757600080fd5b505af1158015610d2b573d6000803e3d6000fd5b505050506040513d6020811015610d4157600080fd5b8101908080519060200190929190505050905062030d403a02670de0b6b3a764000001811115610d775760006001029150610f21565b600160009054906101000a900473ffffffffffffffffffffffffffffffffffffffff1673ffffffffffffffffffffffffffffffffffffffff1663adf59f99828787876040518563ffffffff167c0100000000000000000000000000000000000000000000000000000000028152600401808481526020018060200180602001838103835285818151815260200191508051906020019080838360005b83811015610e2e578082015181840152602081019050610e13565b50505050905090810190601f168015610e5b5780820380516001836020036101000a031916815260200191505b50838103825284818151815260200191508051906020019080838360005b83811015610e94578082015181840152602081019050610e79565b50505050905090810190601f168015610ec15780820380516001836020036101000a031916815260200191505b50955050505050506020604051808303818588803b158015610ee257600080fd5b505af1158015610ef6573d6000803e3d6000fd5b50505050506040513d6020811015610f0d57600080fd5b810190808051906020019092919050505091505b509392505050565b6000806000809054906101000a900473ffffffffffffffffffffffffffffffffffffffff1673ffffffffffffffffffffffffffffffffffffffff161480610f9957506000610f976000809054906101000a900473ffffffffffffffffffffffffffffffffffffffff1661157b565b145b15610faa57610fa86000611586565b505b6000809054906101000a900473ffffffffffffffffffffffffffffffffffffffff1673ffffffffffffffffffffffffffffffffffffffff166338cc48316040518163ffffffff167c0100000000000000000000000000000000000000000000000000000000028152600401602060405180830381600087803b15801561102f57600080fd5b505af1158015611043573d6000803e3d6000fd5b505050506040513d602081101561105957600080fd5b810190808051906020019092919050505073ffffffffffffffffffffffffffffffffffffffff16600160009054906101000a900473ffffffffffffffffffffffffffffffffffffffff1673ffffffffffffffffffffffffffffffffffffffff161415156111c1576000809054906101000a900473ffffffffffffffffffffffffffffffffffffffff1673ffffffffffffffffffffffffffffffffffffffff166338cc48316040518163ffffffff167c0100000000000000000000000000000000000000000000000000000000028152600401602060405180830381600087803b15801561114557600080fd5b505af1158015611159573d6000803e3d6000fd5b505050506040513d602081101561116f57600080fd5b8101908080519060200190929190505050600160006101000a81548173ffffffffffffffffffffffffffffffffffffffff021916908373ffffffffffffffffffffffffffffffffffffffff1602179055505b600160009054906101000a900473ffffffffffffffffffffffffffffffffffffffff1673ffffffffffffffffffffffffffffffffffffffff1663c281d19e6040518163ffffffff167c0100000000000000000000000000000000000000000000000000000000028152600401602060405180830381600087803b15801561124757600080fd5b505af115801561125b573d6000803e3d6000fd5b505050506040513d602081101561127157600080fd5b8101908080519060200190929190505050905090565b6000606060008060008693506000925060009150600090505b835181101561155c5760307f01000000000000000000000000000000000000000000000000000000000000000284828151811015156112db57fe5b9060200101517f010000000000000000000000000000000000000000000000000000000000000090047f0100000000000000000000000000000000000000000000000000000000000000027effffffffffffffffffffffffffffffffffffffffffffffffffffffffffffff1916101580156113f3575060397f010000000000000000000000000000000000000000000000000000000000000002848281518110151561138357fe5b9060200101517f010000000000000000000000000000000000000000000000000000000000000090047f0100000000000000000000000000000000000000000000000000000000000000027effffffffffffffffffffffffffffffffffffffffffffffffffffffffffffff191611155b156114a457811561141657600086141561140c5761155c565b8580600190039650505b600a830292506030848281518110151561142c57fe5b9060200101517f010000000000000000000000000000000000000000000000000000000000000090047f0100000000000000000000000000000000000000000000000000000000000000027f01000000000000000000000000000000000000000000000000000000000000009004038301925061154f565b602e7f01000000000000000000000000000000000000000000000000000000000000000284828151811015156114d657fe5b9060200101517f010000000000000000000000000000000000000000000000000000000000000090047f0100000000000000000000000000000000000000000000000000000000000000027effffffffffffffffffffffffffffffffffffffffffffffffffffffffffffff1916141561154e57600191505b5b80806001019150506112a0565b600086111561156e5785600a0a830292505b8294505050505092915050565b6000813b9050919050565b6000611590611597565b9050919050565b6000806115b7731d3b2638a7cc9f2cb3d298a3da7a90b67e5506ed61157b565b111561165857731d3b2638a7cc9f2cb3d298a3da7a90b67e5506ed6000806101000a81548173ffffffffffffffffffffffffffffffffffffffff021916908373ffffffffffffffffffffffffffffffffffffffff16021790555061164f6040805190810160405280600b81526020017f6574685f6d61696e6e6574000000000000000000000000000000000000000000815250611a26565b60019050611a23565b600061167773c03a2615d5efaf5f49f60b7bb6583eaec212fdf161157b565b11156117185773c03a2615d5efaf5f49f60b7bb6583eaec212fdf16000806101000a81548173ffffffffffffffffffffffffffffffffffffffff021916908373ffffffffffffffffffffffffffffffffffffffff16021790555061170f6040805190810160405280600c81526020017f6574685f726f707374656e330000000000000000000000000000000000000000815250611a26565b60019050611a23565b600061173773b7a07bcf2ba2f2703b24c0691b5278999c59ac7e61157b565b11156117d85773b7a07bcf2ba2f2703b24c0691b5278999c59ac7e6000806101000a81548173ffffffffffffffffffffffffffffffffffffffff021916908373ffffffffffffffffffffffffffffffffffffffff1602179055506117cf6040805190810160405280600981526020017f6574685f6b6f76616e0000000000000000000000000000000000000000000000815250611a26565b60019050611a23565b60006117f773146500cfd35b22e4a392fe0adc06de1a1368ed4861157b565b11156118985773146500cfd35b22e4a392fe0adc06de1a1368ed486000806101000a81548173ffffffffffffffffffffffffffffffffffffffff021916908373ffffffffffffffffffffffffffffffffffffffff16021790555061188f6040805190810160405280600b81526020017f6574685f72696e6b656279000000000000000000000000000000000000000000815250611a26565b60019050611a23565b60006118b7736f485c8bf6fc43ea212e93bbf8ce046c7f1cb47561157b565b111561191a57736f485c8bf6fc43ea212e93bbf8ce046c7f1cb4756000806101000a81548173ffffffffffffffffffffffffffffffffffffffff021916908373ffffffffffffffffffffffffffffffffffffffff16021790555060019050611a23565b60006119397320e12a1f859b3feae5fb2a0a32c18f5a65555bbf61157b565b111561199c577320e12a1f859b3feae5fb2a0a32c18f5a65555bbf6000806101000a81548173ffffffffffffffffffffffffffffffffffffffff021916908373ffffffffffffffffffffffffffffffffffffffff16021790555060019050611a23565b60006119bb7351efaf4c8b3c9afbd5ab9f4bbc82784ab6ef8faa61157b565b1115611a1e577351efaf4c8b3c9afbd5ab9f4bbc82784ab6ef8faa6000806101000a81548173ffffffffffffffffffffffffffffffffffffffff021916908373ffffffffffffffffffffffffffffffffffffffff16021790555060019050611a23565b600090505b90565b8060029080519060200190611a3c929190611a40565b5050565b828054600181600116156101000203166002900490600052602060002090601f016020900481019282601f10611a8157805160ff1916838001178555611aaf565b82800160010185558215611aaf579182015b82811115611aae578251825591602001919060010190611a93565b5b509050611abc9190611ac0565b5090565b611ae291905b80821115611ade576000816000905550600101611ac6565b5090565b905600a165627a7a72305820a53b534820aafc1745ccfb8e855a5e8d2b79f30fabeff462bad1796ac0205cb30029",
  "source": "pragma solidity ^0.4.18;\n\nimport \"./usingOraclize.sol\";\n\n/**\n * @title EthPriceOraclize\n * @dev Using oraclize for getting ETH price from coinmarketcap\n */\ncontract EthPriceOraclize is usingOraclize {\n    uint256 public delay = 43200; // 12 hours\n    uint256 public ETHUSD;\n\n    event OraclizeCreated(address _oraclize);\n    event LogInfo(string description);\n    event LogPriceUpdate(uint256 price);\n\n    function() external payable {\n        update(1);\n    }\n\n    function EthPriceOraclize() public {\n        oraclize_setProof(proofType_TLSNotary | proofStorage_IPFS);\n\n        OraclizeCreated(this);\n        update(1);\n    }\n\n    function __callback(bytes32 id, string result, bytes proof) public {\n        require(msg.sender == oraclize_cbAddress());\n\n        ETHUSD = parseInt(result,2);\n        LogPriceUpdate(ETHUSD);\n\n        update(delay);\n    }\n\n    function update(uint256 _delay) payable public {\n        if (oraclize_getPrice(\"URL\") > address(this).balance) {\n            LogInfo(\"Oraclize query was NOT sent, please add some ETH to cover for the query fee!\");\n        } else {\n            LogInfo(\"Oraclize query was sent, standing by for the answer ...\");\n            oraclize_query(_delay, \"URL\", \"json(https://api.coinmarketcap.com/v1/ticker/ethereum/).0.price_usd\");\n        }\n    }\n\n    function getEthPrice() external view returns(uint256) {\n        return ETHUSD;\n    }\n}",
  "sourcePath": "/Users/arikdonovan/Desktop/TokenSmartContract/contracts/oraclize/EthPriceOraclize.sol",
  "compiler": {
    "name": "solc",
    "version": "0.4.24+commit.e67f0147.Emscripten.clang"
  },
  "schemaVersion": "2.0.0",
  "updatedAt": "2018-08-07T23:52:42.439Z"
}