{
  "contractName": "Multiownable",
  "abi": [
    {
      "constant": true,
      "inputs": [
        {
          "name": "",
          "type": "uint256"
        }
      ],
      "name": "owners",
      "outputs": [
        {
          "name": "",
          "type": "address"
        }
      ],
      "payable": false,
      "stateMutability": "view",
      "type": "function"
    },
    {
      "constant": true,
      "inputs": [],
      "name": "howManyOwnersDecide",
      "outputs": [
        {
          "name": "",
          "type": "uint256"
        }
      ],
      "payable": false,
      "stateMutability": "view",
      "type": "function"
    },
    {
      "constant": true,
      "inputs": [
        {
          "name": "",
          "type": "uint256"
        }
      ],
      "name": "allOperations",
      "outputs": [
        {
          "name": "",
          "type": "bytes32"
        }
      ],
      "payable": false,
      "stateMutability": "view",
      "type": "function"
    },
    {
      "constant": true,
      "inputs": [
        {
          "name": "",
          "type": "bytes32"
        }
      ],
      "name": "votesMaskByOperation",
      "outputs": [
        {
          "name": "",
          "type": "uint256"
        }
      ],
      "payable": false,
      "stateMutability": "view",
      "type": "function"
    },
    {
      "constant": true,
      "inputs": [
        {
          "name": "",
          "type": "bytes32"
        }
      ],
      "name": "votesCountByOperation",
      "outputs": [
        {
          "name": "",
          "type": "uint256"
        }
      ],
      "payable": false,
      "stateMutability": "view",
      "type": "function"
    },
    {
      "constant": true,
      "inputs": [],
      "name": "ownersGeneration",
      "outputs": [
        {
          "name": "",
          "type": "uint256"
        }
      ],
      "payable": false,
      "stateMutability": "view",
      "type": "function"
    },
    {
      "constant": true,
      "inputs": [
        {
          "name": "",
          "type": "address"
        }
      ],
      "name": "ownersIndices",
      "outputs": [
        {
          "name": "",
          "type": "uint256"
        }
      ],
      "payable": false,
      "stateMutability": "view",
      "type": "function"
    },
    {
      "constant": true,
      "inputs": [
        {
          "name": "",
          "type": "bytes32"
        }
      ],
      "name": "allOperationsIndicies",
      "outputs": [
        {
          "name": "",
          "type": "uint256"
        }
      ],
      "payable": false,
      "stateMutability": "view",
      "type": "function"
    },
    {
      "inputs": [],
      "payable": false,
      "stateMutability": "nonpayable",
      "type": "constructor"
    },
    {
      "anonymous": false,
      "inputs": [
        {
          "indexed": false,
          "name": "previousOwners",
          "type": "address[]"
        },
        {
          "indexed": false,
          "name": "howManyOwnersDecide",
          "type": "uint256"
        },
        {
          "indexed": false,
          "name": "newOwners",
          "type": "address[]"
        },
        {
          "indexed": false,
          "name": "newHowManyOwnersDecide",
          "type": "uint256"
        }
      ],
      "name": "OwnershipTransferred",
      "type": "event"
    },
    {
      "anonymous": false,
      "inputs": [
        {
          "indexed": false,
          "name": "operation",
          "type": "bytes32"
        },
        {
          "indexed": false,
          "name": "howMany",
          "type": "uint256"
        },
        {
          "indexed": false,
          "name": "ownersCount",
          "type": "uint256"
        },
        {
          "indexed": false,
          "name": "proposer",
          "type": "address"
        }
      ],
      "name": "OperationCreated",
      "type": "event"
    },
    {
      "anonymous": false,
      "inputs": [
        {
          "indexed": false,
          "name": "operation",
          "type": "bytes32"
        },
        {
          "indexed": false,
          "name": "votes",
          "type": "uint256"
        },
        {
          "indexed": false,
          "name": "howMany",
          "type": "uint256"
        },
        {
          "indexed": false,
          "name": "ownersCount",
          "type": "uint256"
        },
        {
          "indexed": false,
          "name": "upvoter",
          "type": "address"
        }
      ],
      "name": "OperationUpvoted",
      "type": "event"
    },
    {
      "anonymous": false,
      "inputs": [
        {
          "indexed": false,
          "name": "operation",
          "type": "bytes32"
        },
        {
          "indexed": false,
          "name": "howMany",
          "type": "uint256"
        },
        {
          "indexed": false,
          "name": "ownersCount",
          "type": "uint256"
        },
        {
          "indexed": false,
          "name": "performer",
          "type": "address"
        }
      ],
      "name": "OperationPerformed",
      "type": "event"
    },
    {
      "anonymous": false,
      "inputs": [
        {
          "indexed": false,
          "name": "operation",
          "type": "bytes32"
        },
        {
          "indexed": false,
          "name": "votes",
          "type": "uint256"
        },
        {
          "indexed": false,
          "name": "ownersCount",
          "type": "uint256"
        },
        {
          "indexed": false,
          "name": "downvoter",
          "type": "address"
        }
      ],
      "name": "OperationDownvoted",
      "type": "event"
    },
    {
      "anonymous": false,
      "inputs": [
        {
          "indexed": false,
          "name": "operation",
          "type": "bytes32"
        },
        {
          "indexed": false,
          "name": "lastCanceller",
          "type": "address"
        }
      ],
      "name": "OperationCancelled",
      "type": "event"
    },
    {
      "constant": true,
      "inputs": [
        {
          "name": "wallet",
          "type": "address"
        }
      ],
      "name": "isOwner",
      "outputs": [
        {
          "name": "",
          "type": "bool"
        }
      ],
      "payable": false,
      "stateMutability": "view",
      "type": "function"
    },
    {
      "constant": true,
      "inputs": [],
      "name": "ownersCount",
      "outputs": [
        {
          "name": "",
          "type": "uint256"
        }
      ],
      "payable": false,
      "stateMutability": "view",
      "type": "function"
    },
    {
      "constant": true,
      "inputs": [],
      "name": "allOperationsCount",
      "outputs": [
        {
          "name": "",
          "type": "uint256"
        }
      ],
      "payable": false,
      "stateMutability": "view",
      "type": "function"
    },
    {
      "constant": false,
      "inputs": [
        {
          "name": "operation",
          "type": "bytes32"
        }
      ],
      "name": "cancelPending",
      "outputs": [],
      "payable": false,
      "stateMutability": "nonpayable",
      "type": "function"
    },
    {
      "constant": false,
      "inputs": [
        {
          "name": "newOwners",
          "type": "address[]"
        },
        {
          "name": "newHowManyOwnersDecide",
          "type": "uint256"
        }
      ],
      "name": "transferOwnershipWithHowMany",
      "outputs": [],
      "payable": false,
      "stateMutability": "nonpayable",
      "type": "function"
    }
  ],
  "bytecode": "0x608060405234801561001057600080fd5b5060023390806001815401808255809150509060018203906000526020600020016000909192909190916101000a81548173ffffffffffffffffffffffffffffffffffffffff021916908373ffffffffffffffffffffffffffffffffffffffff160217905550506001600660003373ffffffffffffffffffffffffffffffffffffffff1673ffffffffffffffffffffffffffffffffffffffff168152602001908152602001600020819055506001808190555061190e806100d26000396000f3006080604052600436106100c5576000357c0100000000000000000000000000000000000000000000000000000000900463ffffffff168063025e7c27146100ca57806322f2f89a146101375780632f4a81df146101625780632f54bf6e1461018d578063431ab233146101e8578063568b591514610231578063893372ca1461027657806390a53085146102a7578063b25bb3a7146102ec578063b948854614610317578063cc047a0414610342578063e851834114610399578063ea1a264414610409575b600080fd5b3480156100d657600080fd5b506100f56004803603810190808035906020019092919050505061044e565b604051808273ffffffffffffffffffffffffffffffffffffffff1673ffffffffffffffffffffffffffffffffffffffff16815260200191505060405180910390f35b34801561014357600080fd5b5061014c61048c565b6040518082815260200191505060405180910390f35b34801561016e57600080fd5b50610177610499565b6040518082815260200191505060405180910390f35b34801561019957600080fd5b506101ce600480360381019080803573ffffffffffffffffffffffffffffffffffffffff16906020019092919050505061049f565b604051808215151515815260200191505060405180910390f35b3480156101f457600080fd5b50610213600480360381019080803590602001909291905050506104ea565b60405180826000191660001916815260200191505060405180910390f35b34801561023d57600080fd5b50610260600480360381019080803560001916906020019092919050505061050d565b6040518082815260200191505060405180910390f35b34801561028257600080fd5b506102a56004803603810190808035600019169060200190929190505050610525565b005b3480156102b357600080fd5b506102d660048036038101908080356000191690602001909291905050506108b5565b6040518082815260200191505060405180910390f35b3480156102f857600080fd5b506103016108cd565b6040518082815260200191505060405180910390f35b34801561032357600080fd5b5061032c6108d3565b6040518082815260200191505060405180910390f35b34801561034e57600080fd5b50610383600480360381019080803573ffffffffffffffffffffffffffffffffffffffff1690602001909291905050506108e0565b6040518082815260200191505060405180910390f35b3480156103a557600080fd5b5061040760048036038101908080359060200190820180359060200190808060200260200160405190810160405280939291908181526020018383602002808284378201915050505050509192919290803590602001909291905050506108f8565b005b34801561041557600080fd5b5061043860048036038101908080356000191690602001909291905050506110de565b6040518082815260200191505060405180910390f35b60028181548110151561045d57fe5b906000526020600020016000915054906101000a900473ffffffffffffffffffffffffffffffffffffffff1681565b6000600380549050905090565b60015481565b600080600660008473ffffffffffffffffffffffffffffffffffffffff1673ffffffffffffffffffffffffffffffffffffffff16815260200190815260200160002054119050919050565b6003818154811015156104f957fe5b906000526020600020016000915090505481565b60086020528060005260406000206000915090505481565b600080600061053460016110f6565b156108af57600073ffffffffffffffffffffffffffffffffffffffff16600460009054906101000a900473ffffffffffffffffffffffffffffffffffffffff1673ffffffffffffffffffffffffffffffffffffffff1614905080156105dd5733600460006101000a81548173ffffffffffffffffffffffffffffffffffffffff021916908373ffffffffffffffffffffffffffffffffffffffff16021790555060016005819055505b6001600660003373ffffffffffffffffffffffffffffffffffffffff1673ffffffffffffffffffffffffffffffffffffffff1681526020019081526020016000205403925060008360020a6008600087600019166000191681526020019081526020016000205416141515156106e1576040517f08c379a00000000000000000000000000000000000000000000000000000000081526004018080602001828103825260308152602001807f63616e63656c50656e64696e673a206f7065726174696f6e206e6f7420666f7581526020017f6e6420666f72207468697320757365720000000000000000000000000000000081525060400191505060405180910390fd5b8260020a196008600086600019166000191681526020019081526020016000206000828254169250508190555060016009600086600019166000191681526020019081526020016000205403915081600960008660001916600019168152602001908152602001600020819055507f3e0a7036018b5a2a3c5d0afa14e51998ef3cf98c38e4289a8897222b3acf75a78483600280549050336040518085600019166000191681526020018481526020018381526020018273ffffffffffffffffffffffffffffffffffffffff1673ffffffffffffffffffffffffffffffffffffffff16815260200194505050505060405180910390a1600082141561085d576107e9846116a0565b7f55e0dd61c29aac6fc36807628300ad3e3ec68655ae76ae4002f7fb101496fa9f84336040518083600019166000191681526020018273ffffffffffffffffffffffffffffffffffffffff1673ffffffffffffffffffffffffffffffffffffffff1681526020019250505060405180910390a15b80156108ae576000600460006101000a81548173ffffffffffffffffffffffffffffffffffffffff021916908373ffffffffffffffffffffffffffffffffffffffff16021790555060006005819055505b5b50505050565b60096020528060005260406000206000915090505481565b60005481565b6000600280549050905090565b60066020528060005260406000206000915090505481565b60008060006109086001546110f6565b156110d757600073ffffffffffffffffffffffffffffffffffffffff16600460009054906101000a900473ffffffffffffffffffffffffffffffffffffffff1673ffffffffffffffffffffffffffffffffffffffff1614905080156109b25733600460006101000a81548173ffffffffffffffffffffffffffffffffffffffff021916908373ffffffffffffffffffffffffffffffffffffffff1602179055506001546005819055505b60008551111515610a51576040517f08c379a00000000000000000000000000000000000000000000000000000000081526004018080602001828103825260338152602001807f7472616e736665724f776e65727368697057697468486f774d616e793a206f7781526020017f6e65727320617272617920697320656d7074790000000000000000000000000081525060400191505060405180910390fd5b610100855111151515610af2576040517f08c379a000000000000000000000000000000000000000000000000000000000815260040180806020018281038252603e8152602001807f7472616e736665724f776e65727368697057697468486f774d616e793a206f7781526020017f6e65727320636f756e742069732067726561746572207468656e20323536000081525060400191505060405180910390fd5b600084111515610b90576040517f08c379a000000000000000000000000000000000000000000000000000000000815260040180806020018281038252603f8152602001807f7472616e736665724f776e65727368697057697468486f774d616e793a206e6581526020017f77486f774d616e794f776e65727344656369646520657175616c20746f20300081525060400191505060405180910390fd5b84518411151515610c55576040517f08c379a00000000000000000000000000000000000000000000000000000000081526004018080602001828103825260518152602001807f7472616e736665724f776e65727368697057697468486f774d616e793a206e6581526020017f77486f774d616e794f776e65727344656369646520657863656564732074686581526020017f206e756d626572206f66206f776e65727300000000000000000000000000000081525060600191505060405180910390fd5b600092505b600280549050831015610cf05760066000600285815481101515610c7a57fe5b9060005260206000200160009054906101000a900473ffffffffffffffffffffffffffffffffffffffff1673ffffffffffffffffffffffffffffffffffffffff1673ffffffffffffffffffffffffffffffffffffffff168152602001908152602001600020600090558280600101935050610c5a565b600091505b8451821015610f3f57600073ffffffffffffffffffffffffffffffffffffffff168583815181101515610d2457fe5b9060200190602002015173ffffffffffffffffffffffffffffffffffffffff1614151515610de0576040517f08c379a00000000000000000000000000000000000000000000000000000000081526004018080602001828103825260388152602001807f7472616e736665724f776e65727368697057697468486f774d616e793a206f7781526020017f6e65727320617272617920636f6e7461696e73207a65726f000000000000000081525060400191505060405180910390fd5b6000600660008785815181101515610df457fe5b9060200190602002015173ffffffffffffffffffffffffffffffffffffffff1673ffffffffffffffffffffffffffffffffffffffff16815260200190815260200160002054141515610ed4576040517f08c379a000000000000000000000000000000000000000000000000000000000815260040180806020018281038252603e8152602001807f7472616e736665724f776e65727368697057697468486f774d616e793a206f7781526020017f6e65727320617272617920636f6e7461696e73206475706c696361746573000081525060400191505060405180910390fd5b60018201600660008785815181101515610eea57fe5b9060200190602002015173ffffffffffffffffffffffffffffffffffffffff1673ffffffffffffffffffffffffffffffffffffffff168152602001908152602001600020819055508180600101925050610cf5565b7fd167b96814cd24898418cc293e8d47d54afe6dcf0631283f0830e1eae621f6bd600260015487876040518080602001858152602001806020018481526020018381038352878181548152602001915080548015610ff257602002820191906000526020600020905b8160009054906101000a900473ffffffffffffffffffffffffffffffffffffffff1673ffffffffffffffffffffffffffffffffffffffff1681526020019060010190808311610fa8575b5050838103825285818151815260200191508051906020019060200280838360005b8381101561102f578082015181840152602081019050611014565b50505050905001965050505050505060405180910390a1846002908051906020019061105c9291906117c4565b50836001819055506000600381611073919061184e565b50600080815480929190600101919050555080156110d6576000600460006101000a81548173ffffffffffffffffffffffffffffffffffffffff021916908373ffffffffffffffffffffffffffffffffffffffff16021790555060006005819055505b5b5050505050565b60076020528060005260406000206000915090505481565b6000806000803373ffffffffffffffffffffffffffffffffffffffff16600460009054906101000a900473ffffffffffffffffffffffffffffffffffffffff1673ffffffffffffffffffffffffffffffffffffffff161415611221576005548511151515611218576040517f08c379a00000000000000000000000000000000000000000000000000000000081526004018080602001828103825260448152602001807f636865636b486f774d616e794f776e6572733a206e6573746564206f776e657281526020017f73206d6f64696669657220636865636b2072657175697265206d6f7265206f7781526020017f6e6572730000000000000000000000000000000000000000000000000000000081525060600191505060405180910390fd5b60019350611698565b6001600660003373ffffffffffffffffffffffffffffffffffffffff1673ffffffffffffffffffffffffffffffffffffffff1681526020019081526020016000205403925060028054905083101515611308576040517f08c379a000000000000000000000000000000000000000000000000000000000815260040180806020018281038252602e8152602001807f636865636b486f774d616e794f776e6572733a206d73672e73656e646572206981526020017f73206e6f7420616e206f776e657200000000000000000000000000000000000081525060400191505060405180910390fd5b60003660005460405180848480828437820191505082815260200193505050506040518091039020915060008360020a60086000856000191660001916815260200190815260200160002054161415156113f0576040517f08c379a00000000000000000000000000000000000000000000000000000000081526004018080602001828103825260398152602001807f636865636b486f774d616e794f776e6572733a206f776e657220616c7265616481526020017f7920766f74656420666f7220746865206f7065726174696f6e0000000000000081525060400191505060405180910390fd5b8260020a6008600084600019166000191681526020019081526020016000206000828254179250508190555060016009600084600019166000191681526020019081526020016000205401905080600960008460001916600019168152602001908152602001600020819055506001811415611546576003805490506007600084600019166000191681526020019081526020016000208190555060038290806001815401808255809150509060018203906000526020600020016000909192909190915090600019169055507f6bab0114f9524353d2d33e64edd3ebbd16e21edd57de2226ba76c310a7ce22658286600280549050336040518085600019166000191681526020018481526020018381526020018273ffffffffffffffffffffffffffffffffffffffff1673ffffffffffffffffffffffffffffffffffffffff16815260200194505050505060405180910390a15b7f8dd9582c6577aea81973b5adeb6c135f6e18565d99578b7ba0c9377437ec0221828287600280549050336040518086600019166000191681526020018581526020018481526020018381526020018273ffffffffffffffffffffffffffffffffffffffff1673ffffffffffffffffffffffffffffffffffffffff1681526020019550505050505060405180910390a18460096000846000191660001916815260200190815260200160002054141561169357611602826116a0565b7f8a11c8ca99994c292318ce367f65bf6ff61d390bc814b3588496f6fbcc32807a8286600280549050336040518085600019166000191681526020018481526020018381526020018273ffffffffffffffffffffffffffffffffffffffff1673ffffffffffffffffffffffffffffffffffffffff16815260200194505050505060405180910390a160019350611698565b600093505b505050919050565b600060076000836000191660001916815260200190815260200160002054905060016003805490500381101561174d5760036001600380549050038154811015156116e757fe5b906000526020600020015460038281548110151561170157fe5b906000526020600020018160001916905550806007600060038481548110151561172757fe5b906000526020600020015460001916600019168152602001908152602001600020819055505b6003805480919060019003611762919061184e565b506008600083600019166000191681526020019081526020016000206000905560096000836000191660001916815260200190815260200160002060009055600760008360001916600019168152602001908152602001600020600090555050565b82805482825590600052602060002090810192821561183d579160200282015b8281111561183c5782518260006101000a81548173ffffffffffffffffffffffffffffffffffffffff021916908373ffffffffffffffffffffffffffffffffffffffff160217905550916020019190600101906117e4565b5b50905061184a919061187a565b5090565b8154818355818111156118755781836000526020600020918201910161187491906118bd565b5b505050565b6118ba91905b808211156118b657600081816101000a81549073ffffffffffffffffffffffffffffffffffffffff021916905550600101611880565b5090565b90565b6118df91905b808211156118db5760008160009055506001016118c3565b5090565b905600a165627a7a72305820f65a1389d1ba2a07a37c5e02061e5c54e3d4b4bf033ab1b755e43481136f80e00029",
  "source": "pragma solidity ^0.4.24;\n\n/**\n * @title Multiownable\n */\ncontract Multiownable {\n\n    // VARIABLES\n\n    uint256 public ownersGeneration;\n    uint256 public howManyOwnersDecide;\n    address[] public owners;\n    bytes32[] public allOperations;\n    address internal insideCallSender;\n    uint256 internal insideCallCount;\n\n    // Reverse lookup tables for owners and allOperations\n    mapping(address => uint) public ownersIndices; // Starts from 1\n    mapping(bytes32 => uint) public allOperationsIndicies;\n\n    // Owners voting mask per operations\n    mapping(bytes32 => uint256) public votesMaskByOperation;\n    mapping(bytes32 => uint256) public votesCountByOperation;\n\n    // EVENTS\n\n    event OwnershipTransferred(address[] previousOwners, uint howManyOwnersDecide, address[] newOwners, uint newHowManyOwnersDecide);\n    event OperationCreated(bytes32 operation, uint howMany, uint ownersCount, address proposer);\n    event OperationUpvoted(bytes32 operation, uint votes, uint howMany, uint ownersCount, address upvoter);\n    event OperationPerformed(bytes32 operation, uint howMany, uint ownersCount, address performer);\n    event OperationDownvoted(bytes32 operation, uint votes, uint ownersCount,  address downvoter);\n    event OperationCancelled(bytes32 operation, address lastCanceller);\n\n    // ACCESSORS\n\n    function isOwner(address wallet) public constant returns(bool) {\n        return ownersIndices[wallet] > 0;\n    }\n\n    function ownersCount() public constant returns(uint) {\n        return owners.length;\n    }\n\n    function allOperationsCount() public constant returns(uint) {\n        return allOperations.length;\n    }\n\n    // MODIFIERS\n\n    /**\n    * @dev Allows to perform method by any of the owners\n    */\n    modifier onlyAnyOwner {\n        if (checkHowManyOwners(1)) {\n            bool update = (insideCallSender == address(0));\n            if (update) {\n                insideCallSender = msg.sender;\n                insideCallCount = 1;\n            }\n            _;\n            if (update) {\n                insideCallSender = address(0);\n                insideCallCount = 0;\n            }\n        }\n    }\n\n    /**\n    * @dev Allows to perform method only after many owners call it with the same arguments\n    */\n    modifier onlyManyOwners {\n        if (checkHowManyOwners(howManyOwnersDecide)) {\n            bool update = (insideCallSender == address(0));\n            if (update) {\n                insideCallSender = msg.sender;\n                insideCallCount = howManyOwnersDecide;\n            }\n            _;\n            if (update) {\n                insideCallSender = address(0);\n                insideCallCount = 0;\n            }\n        }\n    }\n\n    /**\n    * @dev Allows to perform method only after all owners call it with the same arguments\n    */\n    modifier onlyAllOwners {\n        if (checkHowManyOwners(owners.length)) {\n            bool update = (insideCallSender == address(0));\n            if (update) {\n                insideCallSender = msg.sender;\n                insideCallCount = owners.length;\n            }\n            _;\n            if (update) {\n                insideCallSender = address(0);\n                insideCallCount = 0;\n            }\n        }\n    }\n\n    /**\n    * @dev Allows to perform method only after some owners call it with the same arguments\n    */\n    modifier onlySomeOwners(uint howMany) {\n        require(howMany > 0, \"onlySomeOwners: howMany argument is zero\");\n        require(howMany <= owners.length, \"onlySomeOwners: howMany argument exceeds the number of owners\");\n\n        if (checkHowManyOwners(howMany)) {\n            bool update = (insideCallSender == address(0));\n            if (update) {\n                insideCallSender = msg.sender;\n                insideCallCount = howMany;\n            }\n            _;\n            if (update) {\n                insideCallSender = address(0);\n                insideCallCount = 0;\n            }\n        }\n    }\n\n    // CONSTRUCTOR\n\n    constructor() public {\n        owners.push(msg.sender);\n        ownersIndices[msg.sender] = 1;\n        howManyOwnersDecide = 1;\n    }\n\n    // INTERNAL METHODS\n\n    /**\n     * @dev onlyManyOwners modifier helper\n     */\n    function checkHowManyOwners(uint howMany) internal returns(bool) {\n        if (insideCallSender == msg.sender) {\n            require(howMany <= insideCallCount, \"checkHowManyOwners: nested owners modifier check require more owners\");\n            return true;\n        }\n\n        uint ownerIndex = ownersIndices[msg.sender] - 1;\n        require(ownerIndex < owners.length, \"checkHowManyOwners: msg.sender is not an owner\");\n        bytes32 operation = keccak256(msg.data, ownersGeneration);\n\n        require((votesMaskByOperation[operation] & (2 ** ownerIndex)) == 0, \"checkHowManyOwners: owner already voted for the operation\");\n        votesMaskByOperation[operation] |= (2 ** ownerIndex);\n        uint operationVotesCount = votesCountByOperation[operation] + 1;\n        votesCountByOperation[operation] = operationVotesCount;\n        if (operationVotesCount == 1) {\n            allOperationsIndicies[operation] = allOperations.length;\n            allOperations.push(operation);\n            emit OperationCreated(operation, howMany, owners.length, msg.sender);\n        }\n        emit OperationUpvoted(operation, operationVotesCount, howMany, owners.length, msg.sender);\n\n        // If enough owners confirmed the same operation\n        if (votesCountByOperation[operation] == howMany) {\n            deleteOperation(operation);\n            emit OperationPerformed(operation, howMany, owners.length, msg.sender);\n            return true;\n        }\n\n        return false;\n    }\n\n    /**\n    * @dev Used to delete cancelled or performed operation\n    * @param operation defines which operation to delete\n    */\n    function deleteOperation(bytes32 operation) internal {\n        uint index = allOperationsIndicies[operation];\n        if (index < allOperations.length - 1) { // Not last\n            allOperations[index] = allOperations[allOperations.length - 1];\n            allOperationsIndicies[allOperations[index]] = index;\n        }\n        allOperations.length--;\n\n        delete votesMaskByOperation[operation];\n        delete votesCountByOperation[operation];\n        delete allOperationsIndicies[operation];\n    }\n\n    // PUBLIC METHODS\n\n    /**\n    * @dev Allows owners to change their mind by cacnelling votesMaskByOperation operations\n    * @param operation defines which operation to delete\n    */\n    function cancelPending(bytes32 operation) public onlyAnyOwner {\n        uint ownerIndex = ownersIndices[msg.sender] - 1;\n        require((votesMaskByOperation[operation] & (2 ** ownerIndex)) != 0, \"cancelPending: operation not found for this user\");\n        votesMaskByOperation[operation] &= ~(2 ** ownerIndex);\n        uint operationVotesCount = votesCountByOperation[operation] - 1;\n        votesCountByOperation[operation] = operationVotesCount;\n        emit OperationDownvoted(operation, operationVotesCount, owners.length, msg.sender);\n        if (operationVotesCount == 0) {\n            deleteOperation(operation);\n            emit OperationCancelled(operation, msg.sender);\n        }\n    }\n\n    /**\n    * @dev Allows owners to change ownership\n    * @param newOwners defines array of addresses of new owners\n    * @param newHowManyOwnersDecide defines how many owners can decide\n    */\n    function transferOwnershipWithHowMany(address[] newOwners, uint256 newHowManyOwnersDecide) public onlyManyOwners {\n        require(newOwners.length > 0, \"transferOwnershipWithHowMany: owners array is empty\");\n        require(newOwners.length <= 256, \"transferOwnershipWithHowMany: owners count is greater then 256\");\n        require(newHowManyOwnersDecide > 0, \"transferOwnershipWithHowMany: newHowManyOwnersDecide equal to 0\");\n        require(newHowManyOwnersDecide <= newOwners.length, \"transferOwnershipWithHowMany: newHowManyOwnersDecide exceeds the number of owners\");\n\n        // Reset owners reverse lookup table\n        for (uint j = 0; j < owners.length; j++) {\n            delete ownersIndices[owners[j]];\n        }\n        for (uint i = 0; i < newOwners.length; i++) {\n            require(newOwners[i] != address(0), \"transferOwnershipWithHowMany: owners array contains zero\");\n            require(ownersIndices[newOwners[i]] == 0, \"transferOwnershipWithHowMany: owners array contains duplicates\");\n            ownersIndices[newOwners[i]] = i + 1;\n        }\n\n        emit OwnershipTransferred(owners, howManyOwnersDecide, newOwners, newHowManyOwnersDecide);\n        owners = newOwners;\n        howManyOwnersDecide = newHowManyOwnersDecide;\n        allOperations.length = 0;\n        ownersGeneration++;\n    }\n\n}",
  "sourcePath": "/Users/arikdonovan/Desktop/TokenSmartContract/contracts/Multiownable.sol",
  "compiler": {
    "name": "solc",
    "version": "0.4.24+commit.e67f0147.Emscripten.clang"
  },
  "schemaVersion": "2.0.0",
  "updatedAt": "2018-08-07T23:52:42.432Z"
}