{
  "contractName": "OraclizeDeployer",
  "abi": [
    {
      "constant": false,
      "inputs": [],
      "name": "deployOraclize",
      "outputs": [
        {
          "name": "oraclize",
          "type": "EthPriceOraclize"
        }
      ],
      "payable": false,
      "stateMutability": "nonpayable",
      "type": "function"
    }
  ],
  "bytecode": "0x6133bf610030600b82828239805160001a6073146000811461002057610022565bfe5b5030600052607381538281f3007300000000000000000000000000000000000000003014608060405260043610610058576000357c0100000000000000000000000000000000000000000000000000000000900463ffffffff1680635b0360551461005d575b600080fd5b81801561006957600080fd5b506100726100b4565b604051808273ffffffffffffffffffffffffffffffffffffffff1673ffffffffffffffffffffffffffffffffffffffff16815260200191505060405180910390f35b60006100be6100e0565b604051809103906000f0801580156100da573d6000803e3d6000fd5b50905090565b6040516132a280620000f2833901905600608060405261a8c06005553480156200001757600080fd5b506200007a60017f01000000000000000000000000000000000000000000000000000000000000000260107f01000000000000000000000000000000000000000000000000000000000000000217620000fe640100000000026401000000009004565b7fb472abdb812ae297dc9362ffa05f608532a9f1f1a58f846cad843fe2f00737f530604051808273ffffffffffffffffffffffffffffffffffffffff1673ffffffffffffffffffffffffffffffffffffffff16815260200191505060405180910390a1620000f86001620004b2640100000000026401000000009004565b6200176f565b60008060009054906101000a900473ffffffffffffffffffffffffffffffffffffffff1673ffffffffffffffffffffffffffffffffffffffff1614806200017f575060006200017d6000809054906101000a900473ffffffffffffffffffffffffffffffffffffffff1662000740640100000000026401000000009004565b145b15620001a257620001a060006200074b640100000000026401000000009004565b505b6000809054906101000a900473ffffffffffffffffffffffffffffffffffffffff1673ffffffffffffffffffffffffffffffffffffffff166338cc48316040518163ffffffff167c0100000000000000000000000000000000000000000000000000000000028152600401602060405180830381600087803b1580156200022857600080fd5b505af11580156200023d573d6000803e3d6000fd5b505050506040513d60208110156200025457600080fd5b810190808051906020019092919050505073ffffffffffffffffffffffffffffffffffffffff16600160009054906101000a900473ffffffffffffffffffffffffffffffffffffffff1673ffffffffffffffffffffffffffffffffffffffff16141515620003c0576000809054906101000a900473ffffffffffffffffffffffffffffffffffffffff1673ffffffffffffffffffffffffffffffffffffffff166338cc48316040518163ffffffff167c0100000000000000000000000000000000000000000000000000000000028152600401602060405180830381600087803b1580156200034257600080fd5b505af115801562000357573d6000803e3d6000fd5b505050506040513d60208110156200036e57600080fd5b8101908080519060200190929190505050600160006101000a81548173ffffffffffffffffffffffffffffffffffffffff021916908373ffffffffffffffffffffffffffffffffffffffff1602179055505b600160009054906101000a900473ffffffffffffffffffffffffffffffffffffffff1673ffffffffffffffffffffffffffffffffffffffff1663688dcfd7826040518263ffffffff167c010000000000000000000000000000000000000000000000000000000002815260040180827effffffffffffffffffffffffffffffffffffffffffffffffffffffffffffff19167effffffffffffffffffffffffffffffffffffffffffffffffffffffffffffff19168152602001915050600060405180830381600087803b1580156200049657600080fd5b505af1158015620004ab573d6000803e3d6000fd5b5050505050565b3073ffffffffffffffffffffffffffffffffffffffff1631620005196040805190810160405280600381526020017f55524c00000000000000000000000000000000000000000000000000000000008152506200076d640100000000026401000000009004565b1115620005da577ffee95ecae0c8f7f0743ec0ad254c78ab75e5ecca9f1ddcd9f11f9a98124b96bc60405180806020018281038252604c8152602001807f4f7261636c697a6520717565727920776173204e4f542073656e742c20706c6581526020017f6173652061646420736f6d652045544820746f20636f76657220666f7220746881526020017f652071756572792066656521000000000000000000000000000000000000000081525060600191505060405180910390a16200073d565b7ffee95ecae0c8f7f0743ec0ad254c78ab75e5ecca9f1ddcd9f11f9a98124b96bc6040518080602001828103825260378152602001807f4f7261636c697a65207175657279207761732073656e742c207374616e64696e81526020017f6720627920666f722074686520616e73776572202e2e2e00000000000000000081525060400191505060405180910390a16200073b816040805190810160405280600381526020017f55524c0000000000000000000000000000000000000000000000000000000000815250608060405190810160405280604381526020017f6a736f6e2868747470733a2f2f6170692e636f696e6d61726b65746361702e6381526020017f6f6d2f76312f7469636b65722f657468657265756d2f292e302e70726963655f81526020017f757364000000000000000000000000000000000000000000000000000000000081525062000b6e640100000000026401000000009004565b505b50565b6000813b9050919050565b6000620007666200114c640100000000026401000000009004565b9050919050565b6000806000809054906101000a900473ffffffffffffffffffffffffffffffffffffffff1673ffffffffffffffffffffffffffffffffffffffff161480620007ef57506000620007ed6000809054906101000a900473ffffffffffffffffffffffffffffffffffffffff1662000740640100000000026401000000009004565b145b1562000812576200081060006200074b640100000000026401000000009004565b505b6000809054906101000a900473ffffffffffffffffffffffffffffffffffffffff1673ffffffffffffffffffffffffffffffffffffffff166338cc48316040518163ffffffff167c0100000000000000000000000000000000000000000000000000000000028152600401602060405180830381600087803b1580156200089857600080fd5b505af1158015620008ad573d6000803e3d6000fd5b505050506040513d6020811015620008c457600080fd5b810190808051906020019092919050505073ffffffffffffffffffffffffffffffffffffffff16600160009054906101000a900473ffffffffffffffffffffffffffffffffffffffff1673ffffffffffffffffffffffffffffffffffffffff1614151562000a30576000809054906101000a900473ffffffffffffffffffffffffffffffffffffffff1673ffffffffffffffffffffffffffffffffffffffff166338cc48316040518163ffffffff167c0100000000000000000000000000000000000000000000000000000000028152600401602060405180830381600087803b158015620009b257600080fd5b505af1158015620009c7573d6000803e3d6000fd5b505050506040513d6020811015620009de57600080fd5b8101908080519060200190929190505050600160006101000a81548173ffffffffffffffffffffffffffffffffffffffff021916908373ffffffffffffffffffffffffffffffffffffffff1602179055505b600160009054906101000a900473ffffffffffffffffffffffffffffffffffffffff1673ffffffffffffffffffffffffffffffffffffffff1663524f3889836040518263ffffffff167c01000000000000000000000000000000000000000000000000000000000281526004018080602001828103825283818151815260200191508051906020019080838360005b8381101562000adc57808201518184015260208101905062000abf565b50505050905090810190601f16801562000b0a5780820380516001836020036101000a031916815260200191505b5092505050602060405180830381600087803b15801562000b2a57600080fd5b505af115801562000b3f573d6000803e3d6000fd5b505050506040513d602081101562000b5657600080fd5b81019080805190602001909291905050509050919050565b60008060008060009054906101000a900473ffffffffffffffffffffffffffffffffffffffff1673ffffffffffffffffffffffffffffffffffffffff16148062000bf25750600062000bf06000809054906101000a900473ffffffffffffffffffffffffffffffffffffffff1662000740640100000000026401000000009004565b145b1562000c155762000c1360006200074b640100000000026401000000009004565b505b6000809054906101000a900473ffffffffffffffffffffffffffffffffffffffff1673ffffffffffffffffffffffffffffffffffffffff166338cc48316040518163ffffffff167c0100000000000000000000000000000000000000000000000000000000028152600401602060405180830381600087803b15801562000c9b57600080fd5b505af115801562000cb0573d6000803e3d6000fd5b505050506040513d602081101562000cc757600080fd5b810190808051906020019092919050505073ffffffffffffffffffffffffffffffffffffffff16600160009054906101000a900473ffffffffffffffffffffffffffffffffffffffff1673ffffffffffffffffffffffffffffffffffffffff1614151562000e33576000809054906101000a900473ffffffffffffffffffffffffffffffffffffffff1673ffffffffffffffffffffffffffffffffffffffff166338cc48316040518163ffffffff167c0100000000000000000000000000000000000000000000000000000000028152600401602060405180830381600087803b15801562000db557600080fd5b505af115801562000dca573d6000803e3d6000fd5b505050506040513d602081101562000de157600080fd5b8101908080519060200190929190505050600160006101000a81548173ffffffffffffffffffffffffffffffffffffffff021916908373ffffffffffffffffffffffffffffffffffffffff1602179055505b600160009054906101000a900473ffffffffffffffffffffffffffffffffffffffff1673ffffffffffffffffffffffffffffffffffffffff1663524f3889856040518263ffffffff167c01000000000000000000000000000000000000000000000000000000000281526004018080602001828103825283818151815260200191508051906020019080838360005b8381101562000edf57808201518184015260208101905062000ec2565b50505050905090810190601f16801562000f0d5780820380516001836020036101000a031916815260200191505b5092505050602060405180830381600087803b15801562000f2d57600080fd5b505af115801562000f42573d6000803e3d6000fd5b505050506040513d602081101562000f5957600080fd5b8101908080519060200190929190505050905062030d403a02670de0b6b3a76400000181111562000f91576000600102915062001144565b600160009054906101000a900473ffffffffffffffffffffffffffffffffffffffff1673ffffffffffffffffffffffffffffffffffffffff1663adf59f99828787876040518563ffffffff167c0100000000000000000000000000000000000000000000000000000000028152600401808481526020018060200180602001838103835285818151815260200191508051906020019080838360005b838110156200104a5780820151818401526020810190506200102d565b50505050905090810190601f168015620010785780820380516001836020036101000a031916815260200191505b50838103825284818151815260200191508051906020019080838360005b83811015620010b357808201518184015260208101905062001096565b50505050905090810190601f168015620010e15780820380516001836020036101000a031916815260200191505b50955050505050506020604051808303818588803b1580156200110357600080fd5b505af115801562001118573d6000803e3d6000fd5b50505050506040513d60208110156200113057600080fd5b810190808051906020019092919050505091505b509392505050565b6000806200117d731d3b2638a7cc9f2cb3d298a3da7a90b67e5506ed62000740640100000000026401000000009004565b11156200123157731d3b2638a7cc9f2cb3d298a3da7a90b67e5506ed6000806101000a81548173ffffffffffffffffffffffffffffffffffffffff021916908373ffffffffffffffffffffffffffffffffffffffff160217905550620012276040805190810160405280600b81526020017f6574685f6d61696e6e6574000000000000000000000000000000000000000000815250620016a4640100000000026401000000009004565b60019050620016a1565b60006200126173c03a2615d5efaf5f49f60b7bb6583eaec212fdf162000740640100000000026401000000009004565b1115620013155773c03a2615d5efaf5f49f60b7bb6583eaec212fdf16000806101000a81548173ffffffffffffffffffffffffffffffffffffffff021916908373ffffffffffffffffffffffffffffffffffffffff1602179055506200130b6040805190810160405280600c81526020017f6574685f726f707374656e330000000000000000000000000000000000000000815250620016a4640100000000026401000000009004565b60019050620016a1565b60006200134573b7a07bcf2ba2f2703b24c0691b5278999c59ac7e62000740640100000000026401000000009004565b1115620013f95773b7a07bcf2ba2f2703b24c0691b5278999c59ac7e6000806101000a81548173ffffffffffffffffffffffffffffffffffffffff021916908373ffffffffffffffffffffffffffffffffffffffff160217905550620013ef6040805190810160405280600981526020017f6574685f6b6f76616e0000000000000000000000000000000000000000000000815250620016a4640100000000026401000000009004565b60019050620016a1565b60006200142973146500cfd35b22e4a392fe0adc06de1a1368ed4862000740640100000000026401000000009004565b1115620014dd5773146500cfd35b22e4a392fe0adc06de1a1368ed486000806101000a81548173ffffffffffffffffffffffffffffffffffffffff021916908373ffffffffffffffffffffffffffffffffffffffff160217905550620014d36040805190810160405280600b81526020017f6574685f72696e6b656279000000000000000000000000000000000000000000815250620016a4640100000000026401000000009004565b60019050620016a1565b60006200150d736f485c8bf6fc43ea212e93bbf8ce046c7f1cb47562000740640100000000026401000000009004565b11156200157257736f485c8bf6fc43ea212e93bbf8ce046c7f1cb4756000806101000a81548173ffffffffffffffffffffffffffffffffffffffff021916908373ffffffffffffffffffffffffffffffffffffffff16021790555060019050620016a1565b6000620015a27320e12a1f859b3feae5fb2a0a32c18f5a65555bbf62000740640100000000026401000000009004565b111562001607577320e12a1f859b3feae5fb2a0a32c18f5a65555bbf6000806101000a81548173ffffffffffffffffffffffffffffffffffffffff021916908373ffffffffffffffffffffffffffffffffffffffff16021790555060019050620016a1565b6000620016377351efaf4c8b3c9afbd5ab9f4bbc82784ab6ef8faa62000740640100000000026401000000009004565b11156200169c577351efaf4c8b3c9afbd5ab9f4bbc82784ab6ef8faa6000806101000a81548173ffffffffffffffffffffffffffffffffffffffff021916908373ffffffffffffffffffffffffffffffffffffffff16021790555060019050620016a1565b600090505b90565b8060029080519060200190620016bc929190620016c0565b5050565b828054600181600116156101000203166002900490600052602060002090601f016020900481019282601f106200170357805160ff191683800117855562001734565b8280016001018555821562001734579182015b828111156200173357825182559160200191906001019062001716565b5b50905062001743919062001747565b5090565b6200176c91905b80821115620017685760008160009055506001016200174e565b5090565b90565b611b23806200177f6000396000f300608060405260043610610078576000357c0100000000000000000000000000000000000000000000000000000000900463ffffffff16806327dc297e1461008457806338bbfa50146100fb57806367c9b017146101b85780636a42b8f8146101e357806373db08441461020e57806382ab890a14610239575b6100826001610259565b005b34801561009057600080fd5b506100f96004803603810190808035600019169060200190929190803590602001908201803590602001908080601f01602080910402602001604051908101604052809392919081815260200183838082843782019150505050505091929192905050506104c3565b005b34801561010757600080fd5b506101b66004803603810190808035600019169060200190929190803590602001908201803590602001908080601f0160208091040260200160405190810160405280939291908181526020018383808284378201915050505050509192919290803590602001908201803590602001908080601f0160208091040260200160405190810160405280939291908181526020018383808284378201915050505050509192919290505050610506565b005b3480156101c457600080fd5b506101cd61059f565b6040518082815260200191505060405180910390f35b3480156101ef57600080fd5b506101f86105a9565b6040518082815260200191505060405180910390f35b34801561021a57600080fd5b506102236105af565b6040518082815260200191505060405180910390f35b61025760048036038101908080359060200190929190505050610259565b005b3073ffffffffffffffffffffffffffffffffffffffff16316102af6040805190810160405280600381526020017f55524c00000000000000000000000000000000000000000000000000000000008152506105b5565b111561036e577ffee95ecae0c8f7f0743ec0ad254c78ab75e5ecca9f1ddcd9f11f9a98124b96bc60405180806020018281038252604c8152602001807f4f7261636c697a6520717565727920776173204e4f542073656e742c20706c6581526020017f6173652061646420736f6d652045544820746f20636f76657220666f7220746881526020017f652071756572792066656521000000000000000000000000000000000000000081525060600191505060405180910390a16104c0565b7ffee95ecae0c8f7f0743ec0ad254c78ab75e5ecca9f1ddcd9f11f9a98124b96bc6040518080602001828103825260378152602001807f4f7261636c697a65207175657279207761732073656e742c207374616e64696e81526020017f6720627920666f722074686520616e73776572202e2e2e00000000000000000081525060400191505060405180910390a16104be816040805190810160405280600381526020017f55524c0000000000000000000000000000000000000000000000000000000000815250608060405190810160405280604381526020017f6a736f6e2868747470733a2f2f6170692e636f696e6d61726b65746361702e6381526020017f6f6d2f76312f7469636b65722f657468657265756d2f292e302e70726963655f81526020017f7573640000000000000000000000000000000000000000000000000000000000815250610985565b505b50565b610502828260006040519080825280601f01601f1916602001820160405280156104fc5781602001602082028038833980820191505090505b50610506565b5050565b61050e610f27565b73ffffffffffffffffffffffffffffffffffffffff163373ffffffffffffffffffffffffffffffffffffffff1614151561054757600080fd5b61055082611285565b6006819055507f347ecf8e277d32d09f7d545d147316524769a54a721bbf706d24fcdccc10f81a6006546040518082815260200191505060405180910390a161059a600554610259565b505050565b6000600654905090565b60055481565b60065481565b6000806000809054906101000a900473ffffffffffffffffffffffffffffffffffffffff1673ffffffffffffffffffffffffffffffffffffffff161480610625575060006106236000809054906101000a900473ffffffffffffffffffffffffffffffffffffffff16611299565b145b156106365761063460006112a4565b505b6000809054906101000a900473ffffffffffffffffffffffffffffffffffffffff1673ffffffffffffffffffffffffffffffffffffffff166338cc48316040518163ffffffff167c0100000000000000000000000000000000000000000000000000000000028152600401602060405180830381600087803b1580156106bb57600080fd5b505af11580156106cf573d6000803e3d6000fd5b505050506040513d60208110156106e557600080fd5b810190808051906020019092919050505073ffffffffffffffffffffffffffffffffffffffff16600160009054906101000a900473ffffffffffffffffffffffffffffffffffffffff1673ffffffffffffffffffffffffffffffffffffffff1614151561084d576000809054906101000a900473ffffffffffffffffffffffffffffffffffffffff1673ffffffffffffffffffffffffffffffffffffffff166338cc48316040518163ffffffff167c0100000000000000000000000000000000000000000000000000000000028152600401602060405180830381600087803b1580156107d157600080fd5b505af11580156107e5573d6000803e3d6000fd5b505050506040513d60208110156107fb57600080fd5b8101908080519060200190929190505050600160006101000a81548173ffffffffffffffffffffffffffffffffffffffff021916908373ffffffffffffffffffffffffffffffffffffffff1602179055505b600160009054906101000a900473ffffffffffffffffffffffffffffffffffffffff1673ffffffffffffffffffffffffffffffffffffffff1663524f3889836040518263ffffffff167c01000000000000000000000000000000000000000000000000000000000281526004018080602001828103825283818151815260200191508051906020019080838360005b838110156108f75780820151818401526020810190506108dc565b50505050905090810190601f1680156109245780820380516001836020036101000a031916815260200191505b5092505050602060405180830381600087803b15801561094357600080fd5b505af1158015610957573d6000803e3d6000fd5b505050506040513d602081101561096d57600080fd5b81019080805190602001909291905050509050919050565b60008060008060009054906101000a900473ffffffffffffffffffffffffffffffffffffffff1673ffffffffffffffffffffffffffffffffffffffff1614806109f7575060006109f56000809054906101000a900473ffffffffffffffffffffffffffffffffffffffff16611299565b145b15610a0857610a0660006112a4565b505b6000809054906101000a900473ffffffffffffffffffffffffffffffffffffffff1673ffffffffffffffffffffffffffffffffffffffff166338cc48316040518163ffffffff167c0100000000000000000000000000000000000000000000000000000000028152600401602060405180830381600087803b158015610a8d57600080fd5b505af1158015610aa1573d6000803e3d6000fd5b505050506040513d6020811015610ab757600080fd5b810190808051906020019092919050505073ffffffffffffffffffffffffffffffffffffffff16600160009054906101000a900473ffffffffffffffffffffffffffffffffffffffff1673ffffffffffffffffffffffffffffffffffffffff16141515610c1f576000809054906101000a900473ffffffffffffffffffffffffffffffffffffffff1673ffffffffffffffffffffffffffffffffffffffff166338cc48316040518163ffffffff167c0100000000000000000000000000000000000000000000000000000000028152600401602060405180830381600087803b158015610ba357600080fd5b505af1158015610bb7573d6000803e3d6000fd5b505050506040513d6020811015610bcd57600080fd5b8101908080519060200190929190505050600160006101000a81548173ffffffffffffffffffffffffffffffffffffffff021916908373ffffffffffffffffffffffffffffffffffffffff1602179055505b600160009054906101000a900473ffffffffffffffffffffffffffffffffffffffff1673ffffffffffffffffffffffffffffffffffffffff1663524f3889856040518263ffffffff167c01000000000000000000000000000000000000000000000000000000000281526004018080602001828103825283818151815260200191508051906020019080838360005b83811015610cc9578082015181840152602081019050610cae565b50505050905090810190601f168015610cf65780820380516001836020036101000a031916815260200191505b5092505050602060405180830381600087803b158015610d1557600080fd5b505af1158015610d29573d6000803e3d6000fd5b505050506040513d6020811015610d3f57600080fd5b8101908080519060200190929190505050905062030d403a02670de0b6b3a764000001811115610d755760006001029150610f1f565b600160009054906101000a900473ffffffffffffffffffffffffffffffffffffffff1673ffffffffffffffffffffffffffffffffffffffff1663adf59f99828787876040518563ffffffff167c0100000000000000000000000000000000000000000000000000000000028152600401808481526020018060200180602001838103835285818151815260200191508051906020019080838360005b83811015610e2c578082015181840152602081019050610e11565b50505050905090810190601f168015610e595780820380516001836020036101000a031916815260200191505b50838103825284818151815260200191508051906020019080838360005b83811015610e92578082015181840152602081019050610e77565b50505050905090810190601f168015610ebf5780820380516001836020036101000a031916815260200191505b50955050505050506020604051808303818588803b158015610ee057600080fd5b505af1158015610ef4573d6000803e3d6000fd5b50505050506040513d6020811015610f0b57600080fd5b810190808051906020019092919050505091505b509392505050565b6000806000809054906101000a900473ffffffffffffffffffffffffffffffffffffffff1673ffffffffffffffffffffffffffffffffffffffff161480610f9757506000610f956000809054906101000a900473ffffffffffffffffffffffffffffffffffffffff16611299565b145b15610fa857610fa660006112a4565b505b6000809054906101000a900473ffffffffffffffffffffffffffffffffffffffff1673ffffffffffffffffffffffffffffffffffffffff166338cc48316040518163ffffffff167c0100000000000000000000000000000000000000000000000000000000028152600401602060405180830381600087803b15801561102d57600080fd5b505af1158015611041573d6000803e3d6000fd5b505050506040513d602081101561105757600080fd5b810190808051906020019092919050505073ffffffffffffffffffffffffffffffffffffffff16600160009054906101000a900473ffffffffffffffffffffffffffffffffffffffff1673ffffffffffffffffffffffffffffffffffffffff161415156111bf576000809054906101000a900473ffffffffffffffffffffffffffffffffffffffff1673ffffffffffffffffffffffffffffffffffffffff166338cc48316040518163ffffffff167c0100000000000000000000000000000000000000000000000000000000028152600401602060405180830381600087803b15801561114357600080fd5b505af1158015611157573d6000803e3d6000fd5b505050506040513d602081101561116d57600080fd5b8101908080519060200190929190505050600160006101000a81548173ffffffffffffffffffffffffffffffffffffffff021916908373ffffffffffffffffffffffffffffffffffffffff1602179055505b600160009054906101000a900473ffffffffffffffffffffffffffffffffffffffff1673ffffffffffffffffffffffffffffffffffffffff1663c281d19e6040518163ffffffff167c0100000000000000000000000000000000000000000000000000000000028152600401602060405180830381600087803b15801561124557600080fd5b505af1158015611259573d6000803e3d6000fd5b505050506040513d602081101561126f57600080fd5b8101908080519060200190929190505050905090565b60006112928260006112b5565b9050919050565b6000813b9050919050565b60006112ae6115a9565b9050919050565b6000606060008060008693506000925060009150600090505b835181101561158a5760307f010000000000000000000000000000000000000000000000000000000000000002848281518110151561130957fe5b9060200101517f010000000000000000000000000000000000000000000000000000000000000090047f0100000000000000000000000000000000000000000000000000000000000000027effffffffffffffffffffffffffffffffffffffffffffffffffffffffffffff191610158015611421575060397f01000000000000000000000000000000000000000000000000000000000000000284828151811015156113b157fe5b9060200101517f010000000000000000000000000000000000000000000000000000000000000090047f0100000000000000000000000000000000000000000000000000000000000000027effffffffffffffffffffffffffffffffffffffffffffffffffffffffffffff191611155b156114d257811561144457600086141561143a5761158a565b8580600190039650505b600a830292506030848281518110151561145a57fe5b9060200101517f010000000000000000000000000000000000000000000000000000000000000090047f0100000000000000000000000000000000000000000000000000000000000000027f01000000000000000000000000000000000000000000000000000000000000009004038301925061157d565b602e7f010000000000000000000000000000000000000000000000000000000000000002848281518110151561150457fe5b9060200101517f010000000000000000000000000000000000000000000000000000000000000090047f0100000000000000000000000000000000000000000000000000000000000000027effffffffffffffffffffffffffffffffffffffffffffffffffffffffffffff1916141561157c57600191505b5b80806001019150506112ce565b600086111561159c5785600a0a830292505b8294505050505092915050565b6000806115c9731d3b2638a7cc9f2cb3d298a3da7a90b67e5506ed611299565b111561166a57731d3b2638a7cc9f2cb3d298a3da7a90b67e5506ed6000806101000a81548173ffffffffffffffffffffffffffffffffffffffff021916908373ffffffffffffffffffffffffffffffffffffffff1602179055506116616040805190810160405280600b81526020017f6574685f6d61696e6e6574000000000000000000000000000000000000000000815250611a38565b60019050611a35565b600061168973c03a2615d5efaf5f49f60b7bb6583eaec212fdf1611299565b111561172a5773c03a2615d5efaf5f49f60b7bb6583eaec212fdf16000806101000a81548173ffffffffffffffffffffffffffffffffffffffff021916908373ffffffffffffffffffffffffffffffffffffffff1602179055506117216040805190810160405280600c81526020017f6574685f726f707374656e330000000000000000000000000000000000000000815250611a38565b60019050611a35565b600061174973b7a07bcf2ba2f2703b24c0691b5278999c59ac7e611299565b11156117ea5773b7a07bcf2ba2f2703b24c0691b5278999c59ac7e6000806101000a81548173ffffffffffffffffffffffffffffffffffffffff021916908373ffffffffffffffffffffffffffffffffffffffff1602179055506117e16040805190810160405280600981526020017f6574685f6b6f76616e0000000000000000000000000000000000000000000000815250611a38565b60019050611a35565b600061180973146500cfd35b22e4a392fe0adc06de1a1368ed48611299565b11156118aa5773146500cfd35b22e4a392fe0adc06de1a1368ed486000806101000a81548173ffffffffffffffffffffffffffffffffffffffff021916908373ffffffffffffffffffffffffffffffffffffffff1602179055506118a16040805190810160405280600b81526020017f6574685f72696e6b656279000000000000000000000000000000000000000000815250611a38565b60019050611a35565b60006118c9736f485c8bf6fc43ea212e93bbf8ce046c7f1cb475611299565b111561192c57736f485c8bf6fc43ea212e93bbf8ce046c7f1cb4756000806101000a81548173ffffffffffffffffffffffffffffffffffffffff021916908373ffffffffffffffffffffffffffffffffffffffff16021790555060019050611a35565b600061194b7320e12a1f859b3feae5fb2a0a32c18f5a65555bbf611299565b11156119ae577320e12a1f859b3feae5fb2a0a32c18f5a65555bbf6000806101000a81548173ffffffffffffffffffffffffffffffffffffffff021916908373ffffffffffffffffffffffffffffffffffffffff16021790555060019050611a35565b60006119cd7351efaf4c8b3c9afbd5ab9f4bbc82784ab6ef8faa611299565b1115611a30577351efaf4c8b3c9afbd5ab9f4bbc82784ab6ef8faa6000806101000a81548173ffffffffffffffffffffffffffffffffffffffff021916908373ffffffffffffffffffffffffffffffffffffffff16021790555060019050611a35565b600090505b90565b8060029080519060200190611a4e929190611a52565b5050565b828054600181600116156101000203166002900490600052602060002090601f016020900481019282601f10611a9357805160ff1916838001178555611ac1565b82800160010185558215611ac1579182015b82811115611ac0578251825591602001919060010190611aa5565b5b509050611ace9190611ad2565b5090565b611af491905b80821115611af0576000816000905550600101611ad8565b5090565b905600a165627a7a723058207600c06b31a41da6610189d68eaa796106215820dcb2b5ad40de329d306d9e7f0029a165627a7a72305820dbab239e1749d76224987fcee7b30162a0b1f06ad842768fc8a61fd6d50c45d50029",
  "source": "pragma solidity ^0.4.24;\n\nimport \"../oraclize/EthPriceOraclize.sol\";\n\nlibrary OraclizeDeployer {\n    function deployOraclize() public returns(EthPriceOraclize oraclize) {\n        oraclize = new EthPriceOraclize();\n    }\n}",
  "sourcePath": "/Users/arikdonovan/Desktop/TokenSmartContract/contracts/deployers/OraclizeDeployer.sol",
  "compiler": {
    "name": "solc",
    "version": "0.4.24+commit.e67f0147.Emscripten.clang"
  },
  "schemaVersion": "2.0.0",
  "updatedAt": "2018-07-26T23:22:21.423Z"
}